{
  "contractName": "Crowdfunder",
  "abi": [
    {
      "inputs": [
        {
          "internalType": "address",
          "name": "daiAddress",
          "type": "address"
        },
        {
          "internalType": "address",
          "name": "_feeAccount",
          "type": "address"
        },
        {
          "internalType": "uint256",
          "name": "_feePercent",
          "type": "uint256"
        }
      ],
      "stateMutability": "nonpayable",
      "type": "constructor"
    },
    {
      "anonymous": false,
      "inputs": [
        {
          "indexed": false,
          "internalType": "uint256",
          "name": "id",
          "type": "uint256"
        },
        {
          "indexed": true,
          "internalType": "address",
          "name": "creator",
          "type": "address"
        },
        {
          "indexed": false,
          "internalType": "uint256",
          "name": "fundGoal",
          "type": "uint256"
        },
        {
          "indexed": false,
          "internalType": "uint256",
          "name": "timeGoal",
          "type": "uint256"
        },
        {
          "indexed": false,
          "internalType": "uint256",
          "name": "timestamp",
          "type": "uint256"
        }
      ],
      "name": "Cancel",
      "type": "event"
    },
    {
      "anonymous": false,
      "inputs": [
        {
          "indexed": false,
          "internalType": "uint256",
          "name": "id",
          "type": "uint256"
        },
        {
          "indexed": true,
          "internalType": "address",
          "name": "supporter",
          "type": "address"
        },
        {
          "indexed": false,
          "internalType": "uint256",
          "name": "supporterCount",
          "type": "uint256"
        },
        {
          "indexed": false,
          "internalType": "uint256",
          "name": "totalFunds",
          "type": "uint256"
        },
        {
          "indexed": false,
          "internalType": "uint256",
          "name": "fundAmount",
          "type": "uint256"
        },
        {
          "indexed": false,
          "internalType": "uint256",
          "name": "timestamp",
          "type": "uint256"
        }
      ],
      "name": "Contribution",
      "type": "event"
    },
    {
      "anonymous": false,
      "inputs": [
        {
          "indexed": false,
          "internalType": "uint256",
          "name": "id",
          "type": "uint256"
        },
        {
          "indexed": false,
          "internalType": "string",
          "name": "name",
          "type": "string"
        },
        {
          "indexed": false,
          "internalType": "string",
          "name": "description",
          "type": "string"
        },
        {
          "indexed": false,
          "internalType": "string",
          "name": "imgHash",
          "type": "string"
        },
        {
          "indexed": true,
          "internalType": "address",
          "name": "creator",
          "type": "address"
        },
        {
          "indexed": false,
          "internalType": "uint256",
          "name": "fundGoal",
          "type": "uint256"
        },
        {
          "indexed": false,
          "internalType": "uint256",
          "name": "timeGoal",
          "type": "uint256"
        },
        {
          "indexed": false,
          "internalType": "uint256",
          "name": "timestamp",
          "type": "uint256"
        },
        {
          "indexed": false,
          "internalType": "uint256",
          "name": "totalFunds",
          "type": "uint256"
        },
        {
          "indexed": false,
          "internalType": "uint256",
          "name": "supporterCount",
          "type": "uint256"
        }
      ],
      "name": "ProjectMade",
      "type": "event"
    },
    {
      "anonymous": false,
      "inputs": [
        {
          "indexed": false,
          "internalType": "uint256[]",
          "name": "ids",
          "type": "uint256[]"
        },
        {
          "indexed": true,
          "internalType": "address",
          "name": "supporter",
          "type": "address"
        },
        {
          "indexed": false,
          "internalType": "uint256",
          "name": "refundAmount",
          "type": "uint256"
        },
        {
          "indexed": false,
          "internalType": "uint256",
          "name": "timestamp",
          "type": "uint256"
        }
      ],
      "name": "Refund",
      "type": "event"
    },
    {
      "anonymous": false,
      "inputs": [
        {
          "indexed": false,
          "internalType": "uint256[]",
          "name": "ids",
          "type": "uint256[]"
        },
        {
          "indexed": true,
          "internalType": "address",
          "name": "creator",
          "type": "address"
        },
        {
          "indexed": false,
          "internalType": "uint256",
          "name": "fundAmount",
          "type": "uint256"
        },
        {
          "indexed": false,
          "internalType": "uint256",
          "name": "feeAmount",
          "type": "uint256"
        },
        {
          "indexed": false,
          "internalType": "uint256",
          "name": "timestamp",
          "type": "uint256"
        }
      ],
      "name": "Transfer",
      "type": "event"
    },
    {
      "stateMutability": "nonpayable",
      "type": "fallback"
    },
    {
      "inputs": [],
      "name": "feeAccount",
      "outputs": [
        {
          "internalType": "address",
          "name": "",
          "type": "address"
        }
      ],
      "stateMutability": "view",
      "type": "function",
      "constant": true
    },
    {
      "inputs": [],
      "name": "feePercent",
      "outputs": [
        {
          "internalType": "uint256",
          "name": "",
          "type": "uint256"
        }
      ],
      "stateMutability": "view",
      "type": "function",
      "constant": true
    },
    {
      "inputs": [
        {
          "internalType": "uint256",
          "name": "",
          "type": "uint256"
        }
      ],
      "name": "projectCancelled",
      "outputs": [
        {
          "internalType": "bool",
          "name": "",
          "type": "bool"
        }
      ],
      "stateMutability": "view",
      "type": "function",
      "constant": true
    },
    {
      "inputs": [],
      "name": "projectCount",
      "outputs": [
        {
          "internalType": "uint256",
          "name": "",
          "type": "uint256"
        }
      ],
      "stateMutability": "view",
      "type": "function",
      "constant": true
    },
    {
      "inputs": [
        {
          "internalType": "uint256",
          "name": "",
          "type": "uint256"
        }
      ],
      "name": "projectFundsTransfered",
      "outputs": [
        {
          "internalType": "bool",
          "name": "",
          "type": "bool"
        }
      ],
      "stateMutability": "view",
      "type": "function",
      "constant": true
    },
    {
      "inputs": [
        {
          "internalType": "uint256",
          "name": "",
          "type": "uint256"
        }
      ],
      "name": "projects",
      "outputs": [
        {
          "internalType": "uint256",
          "name": "id",
          "type": "uint256"
        },
        {
          "internalType": "string",
          "name": "name",
          "type": "string"
        },
        {
          "internalType": "string",
          "name": "description",
          "type": "string"
        },
        {
          "internalType": "string",
          "name": "imgHash",
          "type": "string"
        },
        {
          "internalType": "address",
          "name": "creator",
          "type": "address"
        },
        {
          "internalType": "uint256",
          "name": "fundGoal",
          "type": "uint256"
        },
        {
          "internalType": "uint256",
          "name": "timeGoal",
          "type": "uint256"
        },
        {
          "internalType": "uint256",
          "name": "timestamp",
          "type": "uint256"
        },
        {
          "internalType": "uint256",
          "name": "totalFunds",
          "type": "uint256"
        },
        {
          "internalType": "uint256",
          "name": "supporterCount",
          "type": "uint256"
        }
      ],
      "stateMutability": "view",
      "type": "function",
      "constant": true
    },
    {
      "inputs": [
        {
          "internalType": "uint256",
          "name": "",
          "type": "uint256"
        },
        {
          "internalType": "address",
          "name": "",
          "type": "address"
        }
      ],
      "name": "supporterFunds",
      "outputs": [
        {
          "internalType": "uint256",
          "name": "",
          "type": "uint256"
        }
      ],
      "stateMutability": "view",
      "type": "function",
      "constant": true
    },
    {
      "inputs": [
        {
          "internalType": "string",
          "name": "_name",
          "type": "string"
        },
        {
          "internalType": "string",
          "name": "_description",
          "type": "string"
        },
        {
          "internalType": "string",
          "name": "_imgHash",
          "type": "string"
        },
        {
          "internalType": "uint256",
          "name": "_fundGoal",
          "type": "uint256"
        },
        {
          "internalType": "uint256",
          "name": "_timeGoal",
          "type": "uint256"
        }
      ],
      "name": "makeProject",
      "outputs": [],
      "stateMutability": "nonpayable",
      "type": "function"
    },
    {
      "inputs": [
        {
          "internalType": "uint256",
          "name": "_id",
          "type": "uint256"
        }
      ],
      "name": "cancelProject",
      "outputs": [],
      "stateMutability": "nonpayable",
      "type": "function"
    },
    {
      "inputs": [
        {
          "internalType": "uint256",
          "name": "_id",
          "type": "uint256"
        },
        {
          "internalType": "uint256",
          "name": "_amount",
          "type": "uint256"
        }
      ],
      "name": "contribute",
      "outputs": [],
      "stateMutability": "nonpayable",
      "type": "function"
    },
    {
      "inputs": [
        {
          "internalType": "uint256[]",
          "name": "_ids",
          "type": "uint256[]"
        }
      ],
      "name": "transfer",
      "outputs": [],
      "stateMutability": "nonpayable",
      "type": "function"
    },
    {
      "inputs": [
        {
          "internalType": "uint256[]",
          "name": "_ids",
          "type": "uint256[]"
        }
      ],
      "name": "refund",
      "outputs": [],
      "stateMutability": "nonpayable",
      "type": "function"
    }
  ],
  "bytecode": "0x60806040523480156200001157600080fd5b50604051620030e1380380620030e183398181016040528101906200003791906200016d565b826000806101000a81548173ffffffffffffffffffffffffffffffffffffffff021916908373ffffffffffffffffffffffffffffffffffffffff16021790555081600160006101000a81548173ffffffffffffffffffffffffffffffffffffffff021916908373ffffffffffffffffffffffffffffffffffffffff16021790555080600281905550505050620001c9565b600080fd5b600073ffffffffffffffffffffffffffffffffffffffff82169050919050565b6000620000fa82620000cd565b9050919050565b6200010c81620000ed565b81146200011857600080fd5b50565b6000815190506200012c8162000101565b92915050565b6000819050919050565b620001478162000132565b81146200015357600080fd5b50565b60008151905062000167816200013c565b92915050565b600080600060608486031215620001895762000188620000c8565b5b600062000199868287016200011b565b9350506020620001ac868287016200011b565b9250506040620001bf8682870162000156565b9150509250925092565b612f0880620001d96000396000f3fe608060405234801561001057600080fd5b50600436106100b85760003560e01c80638c590917116100715780638c5909171461019d578063aa613df5146101b9578063af9bdbe8146101d5578063b5e3641714610205578063ceb529dc14610221578063eeae24d01461023d576100b9565b8063107046bd146100be57806324941147146100f757806336fbad26146101135780636011bdec1461013157806365e17c9d146101615780637fd6f15c1461017f576100b9565b5b600080fd5b6100d860048036038101906100d39190611b82565b61026d565b6040516100ee9a99989796959493929190611c98565b60405180910390f35b610111600480360381019061010c9190611b82565b610479565b005b61011b610656565b6040516101289190611d49565b60405180910390f35b61014b60048036038101906101469190611d90565b61065c565b6040516101589190611d49565b60405180910390f35b610169610681565b6040516101769190611dd0565b60405180910390f35b6101876106a7565b6040516101949190611d49565b60405180910390f35b6101b760048036038101906101b29190611deb565b6106ad565b005b6101d360048036038101906101ce9190611e90565b610df6565b005b6101ef60048036038101906101ea9190611b82565b611143565b6040516101fc9190611ef8565b60405180910390f35b61021f600480360381019061021a9190611e90565b611163565b005b61023b60048036038101906102369190612043565b6116d2565b005b61025760048036038101906102529190611b82565b6119fe565b6040516102649190611ef8565b60405180910390f35b600460205280600052604060002060009150905080600001549080600101805461029690612141565b80601f01602080910402602001604051908101604052809291908181526020018280546102c290612141565b801561030f5780601f106102e45761010080835404028352916020019161030f565b820191906000526020600020905b8154815290600101906020018083116102f257829003601f168201915b50505050509080600201805461032490612141565b80601f016020809104026020016040519081016040528092919081815260200182805461035090612141565b801561039d5780601f106103725761010080835404028352916020019161039d565b820191906000526020600020905b81548152906001019060200180831161038057829003601f168201915b5050505050908060030180546103b290612141565b80601f01602080910402602001604051908101604052809291908181526020018280546103de90612141565b801561042b5780601f106104005761010080835404028352916020019161042b565b820191906000526020600020905b81548152906001019060200180831161040e57829003601f168201915b5050505050908060040160009054906101000a900473ffffffffffffffffffffffffffffffffffffffff1690806005015490806006015490806007015490806008015490806009015490508a565b8060008111801561048c57506003548111155b6104cb576040517f08c379a00000000000000000000000000000000000000000000000000000000081526004016104c2906121bf565b60405180910390fd5b60006004600084815260200190815260200160002090506104f481600501548260070154611a1e565b610533576040517f08c379a000000000000000000000000000000000000000000000000000000000815260040161052a9061222b565b60405180910390fd5b3373ffffffffffffffffffffffffffffffffffffffff168160040160009054906101000a900473ffffffffffffffffffffffffffffffffffffffff1673ffffffffffffffffffffffffffffffffffffffff16146105c5576040517f08c379a00000000000000000000000000000000000000000000000000000000081526004016105bc906122bd565b60405180910390fd5b60016005600085815260200190815260200160002060006101000a81548160ff0219169083151502179055503373ffffffffffffffffffffffffffffffffffffffff167f7769bfc7786e1deefeb13e6106bf1f23574d6811046097ff1ef0234bc7de2b2c8260000154836005015484600601544260405161064994939291906122dd565b60405180910390a2505050565b60035481565b6007602052816000526040600020602052806000526040600020600091509150505481565b600160009054906101000a900473ffffffffffffffffffffffffffffffffffffffff1681565b60025481565b816000811180156106c057506003548111155b6106ff576040517f08c379a00000000000000000000000000000000000000000000000000000000081526004016106f6906121bf565b60405180910390fd5b6005600084815260200190815260200160002060009054906101000a900460ff1615610760576040517f08c379a00000000000000000000000000000000000000000000000000000000081526004016107579061236e565b60405180910390fd5b600060046000858152602001908152602001600020604051806101400160405290816000820154815260200160018201805461079b90612141565b80601f01602080910402602001604051908101604052809291908181526020018280546107c790612141565b80156108145780601f106107e957610100808354040283529160200191610814565b820191906000526020600020905b8154815290600101906020018083116107f757829003601f168201915b5050505050815260200160028201805461082d90612141565b80601f016020809104026020016040519081016040528092919081815260200182805461085990612141565b80156108a65780601f1061087b576101008083540402835291602001916108a6565b820191906000526020600020905b81548152906001019060200180831161088957829003601f168201915b505050505081526020016003820180546108bf90612141565b80601f01602080910402602001604051908101604052809291908181526020018280546108eb90612141565b80156109385780601f1061090d57610100808354040283529160200191610938565b820191906000526020600020905b81548152906001019060200180831161091b57829003601f168201915b505050505081526020016004820160009054906101000a900473ffffffffffffffffffffffffffffffffffffffff1673ffffffffffffffffffffffffffffffffffffffff1673ffffffffffffffffffffffffffffffffffffffff168152602001600582015481526020016006820154815260200160078201548152602001600882015481526020016009820154815250509050806080015173ffffffffffffffffffffffffffffffffffffffff163373ffffffffffffffffffffffffffffffffffffffff161415610a3e576040517f08c379a0000000000000000000000000000000000000000000000000000000008152600401610a3590612426565b60405180910390fd5b610a508160c001518260e00151611a1e565b610a8f576040517f08c379a0000000000000000000000000000000000000000000000000000000008152600401610a869061222b565b60405180910390fd5b60008054906101000a900473ffffffffffffffffffffffffffffffffffffffff1673ffffffffffffffffffffffffffffffffffffffff166323b872dd3330866040518463ffffffff1660e01b8152600401610aec93929190612446565b602060405180830381600087803b158015610b0657600080fd5b505af1158015610b1a573d6000803e3d6000fd5b505050506040513d601f19601f82011682018060405250810190610b3e91906124a9565b610b4757600080fd5b60006007600086815260200190815260200160002060003373ffffffffffffffffffffffffffffffffffffffff1673ffffffffffffffffffffffffffffffffffffffff168152602001908152602001600020541415610bc457610bb96001826101200151611a3d90919063ffffffff16565b816101200181815250505b610bdc83826101000151611a3d90919063ffffffff16565b81610100018181525050610c49836007600087815260200190815260200160002060003373ffffffffffffffffffffffffffffffffffffffff1673ffffffffffffffffffffffffffffffffffffffff16815260200190815260200160002054611a3d90919063ffffffff16565b6007600086815260200190815260200160002060003373ffffffffffffffffffffffffffffffffffffffff1673ffffffffffffffffffffffffffffffffffffffff168152602001908152602001600020819055508060046000868152602001908152602001600020600082015181600001556020820151816001019080519060200190610cd7929190611a95565b506040820151816002019080519060200190610cf4929190611a95565b506060820151816003019080519060200190610d11929190611a95565b5060808201518160040160006101000a81548173ffffffffffffffffffffffffffffffffffffffff021916908373ffffffffffffffffffffffffffffffffffffffff16021790555060a0820151816005015560c0820151816006015560e08201518160070155610100820151816008015561012082015181600901559050503373ffffffffffffffffffffffffffffffffffffffff167f1d07f4996fa6104db13b09972924f4e243d9304b80685403cb743992bf174bda858361012001518461010001518742604051610de89594939291906124d6565b60405180910390a250505050565b818160008282905011610e3e576040517f08c379a0000000000000000000000000000000000000000000000000000000008152600401610e3590612575565b60405180910390fd5b600080600080600090505b8787905081101561102f576000600460008a8a85818110610e6d57610e6c612595565b5b905060200201358152602001908152602001600020905080600501548160080154109450610ea381600601548260070154611a1e565b158015610ead5750845b93508380610ef15750600560008a8a85818110610ecd57610ecc612595565b5b90506020020135815260200190815260200160002060009054906101000a900460ff165b610f30576040517f08c379a0000000000000000000000000000000000000000000000000000000008152600401610f279061265c565b60405180910390fd5b610fac600760008b8b86818110610f4a57610f49612595565b5b90506020020135815260200190815260200160002060003373ffffffffffffffffffffffffffffffffffffffff1673ffffffffffffffffffffffffffffffffffffffff1681526020019081526020016000205484611a3d90919063ffffffff16565b9250600760008a8a85818110610fc557610fc4612595565b5b90506020020135815260200190815260200160002060003373ffffffffffffffffffffffffffffffffffffffff1673ffffffffffffffffffffffffffffffffffffffff16815260200190815260200160002060009055508080611027906126ab565b915050610e49565b5060008054906101000a900473ffffffffffffffffffffffffffffffffffffffff1673ffffffffffffffffffffffffffffffffffffffff1663a9059cbb33836040518363ffffffff1660e01b815260040161108b9291906126f4565b602060405180830381600087803b1580156110a557600080fd5b505af11580156110b9573d6000803e3d6000fd5b505050506040513d601f19601f820116820180604052508101906110dd91906124a9565b6110e657600080fd5b3373ffffffffffffffffffffffffffffffffffffffff167f80e0c5cd52074fe37472e4e500271f190b7e6d209a1b81d7b1417924a86e89e088888442604051611132949392919061278f565b60405180910390a250505050505050565b60056020528060005260406000206000915054906101000a900460ff1681565b8181600082829050116111ab576040517f08c379a00000000000000000000000000000000000000000000000000000000081526004016111a290612575565b60405180910390fd5b60008060005b868690508110156114c157600560008888848181106111d3576111d2612595565b5b90506020020135815260200190815260200160002060009054906101000a900460ff1615611236576040517f08c379a000000000000000000000000000000000000000000000000000000000815260040161122d9061236e565b60405180910390fd5b6006600088888481811061124d5761124c612595565b5b90506020020135815260200190815260200160002060009054906101000a900460ff16156112b0576040517f08c379a00000000000000000000000000000000000000000000000000000000081526004016112a790612841565b60405180910390fd5b6000600460008989858181106112c9576112c8612595565b5b90506020020135815260200190815260200160002090503373ffffffffffffffffffffffffffffffffffffffff168160040160009054906101000a900473ffffffffffffffffffffffffffffffffffffffff1673ffffffffffffffffffffffffffffffffffffffff1614611372576040517f08c379a0000000000000000000000000000000000000000000000000000000008152600401611369906128d3565b60405180910390fd5b61138481600601548260070154611a1e565b156113c4576040517f08c379a00000000000000000000000000000000000000000000000000000000081526004016113bb9061293f565b60405180910390fd5b80600501548160080154101561140f576040517f08c379a0000000000000000000000000000000000000000000000000000000008152600401611406906129d1565b60405180910390fd5b6001600660008a8a8681811061142857611427612595565b5b90506020020135815260200190815260200160002060006101000a81548160ff02191690831515021790555061146b816008015485611a3d90919063ffffffff16565b93506114ab61149c606461148e6002548560080154611a5390919063ffffffff16565b611a6990919063ffffffff16565b84611a3d90919063ffffffff16565b92505080806114b9906126ab565b9150506111b1565b5060008054906101000a900473ffffffffffffffffffffffffffffffffffffffff1673ffffffffffffffffffffffffffffffffffffffff1663a9059cbb336115128486611a7f90919063ffffffff16565b6040518363ffffffff1660e01b815260040161152f9291906126f4565b602060405180830381600087803b15801561154957600080fd5b505af115801561155d573d6000803e3d6000fd5b505050506040513d601f19601f8201168201806040525081019061158191906124a9565b61158a57600080fd5b60008054906101000a900473ffffffffffffffffffffffffffffffffffffffff1673ffffffffffffffffffffffffffffffffffffffff1663a9059cbb600160009054906101000a900473ffffffffffffffffffffffffffffffffffffffff16836040518363ffffffff1660e01b81526004016116079291906126f4565b602060405180830381600087803b15801561162157600080fd5b505af1158015611635573d6000803e3d6000fd5b505050506040513d601f19601f8201168201806040525081019061165991906124a9565b61166257600080fd5b3373ffffffffffffffffffffffffffffffffffffffff167f46d573bd3bc339e2337b49c5db189e9ba300664ca48763aa13416f094baa5daa87876116af8587611a7f90919063ffffffff16565b85426040516116c29594939291906129f1565b60405180910390a2505050505050565b60008111611715576040517f08c379a000000000000000000000000000000000000000000000000000000000815260040161170c90612ab1565b60405180910390fd5b624f1a00811061175a576040517f08c379a000000000000000000000000000000000000000000000000000000000815260040161175190612b43565b60405180910390fd5b600085511161179e576040517f08c379a000000000000000000000000000000000000000000000000000000000815260040161179590612baf565b60405180910390fd5b60008451116117e2576040517f08c379a00000000000000000000000000000000000000000000000000000000081526004016117d990612c1b565b60405180910390fd5b6000835111611826576040517f08c379a000000000000000000000000000000000000000000000000000000000815260040161181d90612c87565b60405180910390fd5b61183c6001600354611a3d90919063ffffffff16565b60038190555060405180610140016040528060035481526020018681526020018581526020018481526020013373ffffffffffffffffffffffffffffffffffffffff1681526020018381526020018281526020014281526020016000815260200160008152506004600060035481526020019081526020016000206000820151816000015560208201518160010190805190602001906118dd929190611a95565b5060408201518160020190805190602001906118fa929190611a95565b506060820151816003019080519060200190611917929190611a95565b5060808201518160040160006101000a81548173ffffffffffffffffffffffffffffffffffffffff021916908373ffffffffffffffffffffffffffffffffffffffff16021790555060a0820151816005015560c0820151816006015560e08201518160070155610100820151816008015561012082015181600901559050503373ffffffffffffffffffffffffffffffffffffffff167f10209b84a35ba76afaea6f0a51d3bf5da359f3446afa37f1e83dc73fd7a5f1bc6003548787878787426000806040516119ef99989796959493929190612cec565b60405180910390a25050505050565b60066020528060005260406000206000915054906101000a900460ff1681565b600042611a348385611a3d90919063ffffffff16565b11905092915050565b60008183611a4b9190612d8e565b905092915050565b60008183611a619190612de4565b905092915050565b60008183611a779190612e6d565b905092915050565b60008183611a8d9190612e9e565b905092915050565b828054611aa190612141565b90600052602060002090601f016020900481019282611ac35760008555611b0a565b82601f10611adc57805160ff1916838001178555611b0a565b82800160010185558215611b0a579182015b82811115611b09578251825591602001919060010190611aee565b5b509050611b179190611b1b565b5090565b5b80821115611b34576000816000905550600101611b1c565b5090565b6000604051905090565b600080fd5b600080fd5b6000819050919050565b611b5f81611b4c565b8114611b6a57600080fd5b50565b600081359050611b7c81611b56565b92915050565b600060208284031215611b9857611b97611b42565b5b6000611ba684828501611b6d565b91505092915050565b611bb881611b4c565b82525050565b600081519050919050565b600082825260208201905092915050565b60005b83811015611bf8578082015181840152602081019050611bdd565b83811115611c07576000848401525b50505050565b6000601f19601f8301169050919050565b6000611c2982611bbe565b611c338185611bc9565b9350611c43818560208601611bda565b611c4c81611c0d565b840191505092915050565b600073ffffffffffffffffffffffffffffffffffffffff82169050919050565b6000611c8282611c57565b9050919050565b611c9281611c77565b82525050565b600061014082019050611cae600083018d611baf565b8181036020830152611cc0818c611c1e565b90508181036040830152611cd4818b611c1e565b90508181036060830152611ce8818a611c1e565b9050611cf76080830189611c89565b611d0460a0830188611baf565b611d1160c0830187611baf565b611d1e60e0830186611baf565b611d2c610100830185611baf565b611d3a610120830184611baf565b9b9a5050505050505050505050565b6000602082019050611d5e6000830184611baf565b92915050565b611d6d81611c77565b8114611d7857600080fd5b50565b600081359050611d8a81611d64565b92915050565b60008060408385031215611da757611da6611b42565b5b6000611db585828601611b6d565b9250506020611dc685828601611d7b565b9150509250929050565b6000602082019050611de56000830184611c89565b92915050565b60008060408385031215611e0257611e01611b42565b5b6000611e1085828601611b6d565b9250506020611e2185828601611b6d565b9150509250929050565b600080fd5b600080fd5b600080fd5b60008083601f840112611e5057611e4f611e2b565b5b8235905067ffffffffffffffff811115611e6d57611e6c611e30565b5b602083019150836020820283011115611e8957611e88611e35565b5b9250929050565b60008060208385031215611ea757611ea6611b42565b5b600083013567ffffffffffffffff811115611ec557611ec4611b47565b5b611ed185828601611e3a565b92509250509250929050565b60008115159050919050565b611ef281611edd565b82525050565b6000602082019050611f0d6000830184611ee9565b92915050565b600080fd5b7f4e487b7100000000000000000000000000000000000000000000000000000000600052604160045260246000fd5b611f5082611c0d565b810181811067ffffffffffffffff82111715611f6f57611f6e611f18565b5b80604052505050565b6000611f82611b38565b9050611f8e8282611f47565b919050565b600067ffffffffffffffff821115611fae57611fad611f18565b5b611fb782611c0d565b9050602081019050919050565b82818337600083830152505050565b6000611fe6611fe184611f93565b611f78565b90508281526020810184848401111561200257612001611f13565b5b61200d848285611fc4565b509392505050565b600082601f83011261202a57612029611e2b565b5b813561203a848260208601611fd3565b91505092915050565b600080600080600060a0868803121561205f5761205e611b42565b5b600086013567ffffffffffffffff81111561207d5761207c611b47565b5b61208988828901612015565b955050602086013567ffffffffffffffff8111156120aa576120a9611b47565b5b6120b688828901612015565b945050604086013567ffffffffffffffff8111156120d7576120d6611b47565b5b6120e388828901612015565b93505060606120f488828901611b6d565b925050608061210588828901611b6d565b9150509295509295909350565b7f4e487b7100000000000000000000000000000000000000000000000000000000600052602260045260246000fd5b6000600282049050600182168061215957607f821691505b6020821081141561216d5761216c612112565b5b50919050565b7f4572726f722c2077726f6e672069640000000000000000000000000000000000600082015250565b60006121a9600f83611bc9565b91506121b482612173565b602082019050919050565b600060208201905081810360008301526121d88161219c565b9050919050565b7f4572726f722c2070726f6a656374206d757374206265206f70656e0000000000600082015250565b6000612215601b83611bc9565b9150612220826121df565b602082019050919050565b6000602082019050818103600083015261224481612208565b9050919050565b7f4572726f722c206f6e6c792063726561746f722063616e2063616e63656c207460008201527f686569722070726f6a6563740000000000000000000000000000000000000000602082015250565b60006122a7602c83611bc9565b91506122b28261224b565b604082019050919050565b600060208201905081810360008301526122d68161229a565b9050919050565b60006080820190506122f26000830187611baf565b6122ff6020830186611baf565b61230c6040830185611baf565b6123196060830184611baf565b95945050505050565b7f4572726f722c2070726f6a6563742069732063616e63656c6564000000000000600082015250565b6000612358601a83611bc9565b915061236382612322565b602082019050919050565b600060208201905081810360008301526123878161234b565b9050919050565b7f4572726f722c2063726561746f727320617265206e6f7420616c6c6f7765642060008201527f746f206164642066756e647320746f207468656972206f776e2070726f6a656360208201527f7473000000000000000000000000000000000000000000000000000000000000604082015250565b6000612410604283611bc9565b915061241b8261238e565b606082019050919050565b6000602082019050818103600083015261243f81612403565b9050919050565b600060608201905061245b6000830186611c89565b6124686020830185611c89565b6124756040830184611baf565b949350505050565b61248681611edd565b811461249157600080fd5b50565b6000815190506124a38161247d565b92915050565b6000602082840312156124bf576124be611b42565b5b60006124cd84828501612494565b91505092915050565b600060a0820190506124eb6000830188611baf565b6124f86020830187611baf565b6125056040830186611baf565b6125126060830185611baf565b61251f6080830184611baf565b9695505050505050565b7f4572726f722c206964732061727261792063616e6e6f7420626520656d707479600082015250565b600061255f602083611bc9565b915061256a82612529565b602082019050919050565b6000602082019050818103600083015261258e81612552565b9050919050565b7f4e487b7100000000000000000000000000000000000000000000000000000000600052603260045260246000fd5b7f4572726f722c206e6f20726566756e647320756e6c6573732070726f6a65637460008201527f20686173206265656e2063616e63656c6564206f7220646964206e6f74206d6560208201527f65742066756e64696e6720676f616c0000000000000000000000000000000000604082015250565b6000612646604f83611bc9565b9150612651826125c4565b606082019050919050565b6000602082019050818103600083015261267581612639565b9050919050565b7f4e487b7100000000000000000000000000000000000000000000000000000000600052601160045260246000fd5b60006126b682611b4c565b91507fffffffffffffffffffffffffffffffffffffffffffffffffffffffffffffffff8214156126e9576126e861267c565b5b600182019050919050565b60006040820190506127096000830185611c89565b6127166020830184611baf565b9392505050565b600082825260208201905092915050565b600080fd5b600061273f838561271d565b93507f07ffffffffffffffffffffffffffffffffffffffffffffffffffffffffffffff8311156127725761277161272e565b5b602083029250612783838584611fc4565b82840190509392505050565b600060608201905081810360008301526127aa818688612733565b90506127b96020830185611baf565b6127c66040830184611baf565b95945050505050565b7f4572726f722c20636f6c6c65637465642070726f6a6563742066756e6473206160008201527f6c7265616479207472616e736665726564000000000000000000000000000000602082015250565b600061282b603183611bc9565b9150612836826127cf565b604082019050919050565b6000602082019050818103600083015261285a8161281e565b9050919050565b7f4572726f722c206f6e6c792063726561746f722063616e207472616e7366657260008201527f20636f6c6c65637465642070726f6a6563742066756e64730000000000000000602082015250565b60006128bd603883611bc9565b91506128c882612861565b604082019050919050565b600060208201905081810360008301526128ec816128b0565b9050919050565b7f4572726f722c2070726f6a656374207374696c6c206f70656e00000000000000600082015250565b6000612929601983611bc9565b9150612934826128f3565b602082019050919050565b600060208201905081810360008301526129588161291c565b9050919050565b7f4572726f722c2070726f6a65637420646964206e6f74206d6565742066756e6460008201527f696e6720676f616c20696e2074696d6500000000000000000000000000000000602082015250565b60006129bb603083611bc9565b91506129c68261295f565b604082019050919050565b600060208201905081810360008301526129ea816129ae565b9050919050565b60006080820190508181036000830152612a0c818789612733565b9050612a1b6020830186611baf565b612a286040830185611baf565b612a356060830184611baf565b9695505050505050565b7f4572726f722c2074696d6520676f616c206d75737420657869737420696e207460008201527f6865206675747572650000000000000000000000000000000000000000000000602082015250565b6000612a9b602983611bc9565b9150612aa682612a3f565b604082019050919050565b60006020820190508181036000830152612aca81612a8e565b9050919050565b7f4572726f722c2074696d6520676f616c206d757374206265206c65737320746860008201527f616e203630206461797300000000000000000000000000000000000000000000602082015250565b6000612b2d602a83611bc9565b9150612b3882612ad1565b604082019050919050565b60006020820190508181036000830152612b5c81612b20565b9050919050565b7f4572726f722c206e616d65206d75737420657869737400000000000000000000600082015250565b6000612b99601683611bc9565b9150612ba482612b63565b602082019050919050565b60006020820190508181036000830152612bc881612b8c565b9050919050565b7f4572726f722c206465736372697074696f6e206d757374206578697374000000600082015250565b6000612c05601d83611bc9565b9150612c1082612bcf565b602082019050919050565b60006020820190508181036000830152612c3481612bf8565b9050919050565b7f4572726f722c20696d6167652068617368206d75737420657869737400000000600082015250565b6000612c71601c83611bc9565b9150612c7c82612c3b565b602082019050919050565b60006020820190508181036000830152612ca081612c64565b9050919050565b6000819050919050565b6000819050919050565b6000612cd6612cd1612ccc84612ca7565b612cb1565b611b4c565b9050919050565b612ce681612cbb565b82525050565b600061012082019050612d02600083018c611baf565b8181036020830152612d14818b611c1e565b90508181036040830152612d28818a611c1e565b90508181036060830152612d3c8189611c1e565b9050612d4b6080830188611baf565b612d5860a0830187611baf565b612d6560c0830186611baf565b612d7260e0830185612cdd565b612d80610100830184612cdd565b9a9950505050505050505050565b6000612d9982611b4c565b9150612da483611b4c565b9250827fffffffffffffffffffffffffffffffffffffffffffffffffffffffffffffffff03821115612dd957612dd861267c565b5b828201905092915050565b6000612def82611b4c565b9150612dfa83611b4c565b9250817fffffffffffffffffffffffffffffffffffffffffffffffffffffffffffffffff0483118215151615612e3357612e3261267c565b5b828202905092915050565b7f4e487b7100000000000000000000000000000000000000000000000000000000600052601260045260246000fd5b6000612e7882611b4c565b9150612e8383611b4c565b925082612e9357612e92612e3e565b5b828204905092915050565b6000612ea982611b4c565b9150612eb483611b4c565b925082821015612ec757612ec661267c565b5b82820390509291505056fea2646970667358221220a47d3582f906dcec91746cf95e67296ebbf0ef6010bcfde7500baf7f740d2b4f64736f6c63430008090033",
  "immutableReferences": {},
  "source": "//SPDX-License-Identifier: UNLICENSED\r\n\r\n\r\npragma solidity ^0.8.0;\r\n\r\nimport \"openzeppelin-solidity/contracts/utils/math/SafeMath.sol\";\r\nimport \"openzeppelin-solidity/contracts/token/ERC20/IERC20.sol\";\r\n\r\ncontract Crowdfunder {\r\n\r\n\tusing SafeMath for uint;\r\n\tIERC20 dai; \r\n\taddress public feeAccount; // the account that receives exchange fees\r\n\tuint256 public feePercent; // the fee percentage\r\n\tuint256 public projectCount;\r\n\tmapping(uint256 => _Project) public projects;\r\n\tmapping (uint256 => bool) public projectCancelled;\r\n\tmapping (uint256 => bool) public projectFundsTransfered;\r\n\tmapping(uint256 => mapping (address => uint256)) public supporterFunds;\r\n\tevent ProjectMade (\r\n\t\tuint256 id,\r\n\t\tstring name,\r\n\t\tstring description,\r\n\t\tstring imgHash,\r\n\t\taddress indexed creator,\r\n\t\tuint256 fundGoal,\r\n\t\tuint256 timeGoal,\r\n\t\tuint256 timestamp,\r\n\t\tuint256 totalFunds,\r\n\t\tuint256 supporterCount\t\r\n\t);\r\n\tevent Cancel (\r\n\t\tuint256 id,\r\n\t\taddress indexed creator,\r\n\t\tuint256 fundGoal,\r\n\t\tuint256 timeGoal,\r\n\t\tuint256 timestamp\t\r\n\t);\r\n\tevent Contribution (\r\n\t\tuint256 id,\r\n\t\taddress indexed supporter,\r\n\t\tuint256 supporterCount,\r\n\t\tuint256 totalFunds,\r\n\t\tuint256 fundAmount,\t\r\n\t\tuint256 timestamp\t\t\r\n\t);\r\n\tevent Transfer (\r\n\t\tuint256[] ids,\r\n\t\taddress indexed creator,\r\n\t\tuint256 fundAmount,\r\n\t\tuint256 feeAmount,\r\n\t\tuint256 timestamp\r\n\t);\r\n\tevent Refund (\r\n\t\tuint256[] ids,\r\n\t\taddress indexed supporter,\r\n\t\tuint256 refundAmount,\r\n\t\tuint256 timestamp\t\r\n\t);\r\n\tstruct _Project {\r\n\t\tuint256 id;\r\n\t\tstring name; \r\n\t\tstring description;\r\n\t\tstring imgHash;\r\n\t\taddress creator;\r\n\t\tuint256 fundGoal;\r\n\t\tuint256 timeGoal;\r\n\t\tuint256 timestamp;\r\n\t\tuint256 totalFunds;\r\n\t\tuint256 supporterCount;\r\n\t}\r\n\r\n\tconstructor (address daiAddress, address _feeAccount, uint256 _feePercent) {\r\n\t\tdai = IERC20(daiAddress);\r\n\t\tfeeAccount = _feeAccount;\r\n\t\tfeePercent = _feePercent;\r\n\t}\r\n\tmodifier onlyValidIds (uint256 _id) {\r\n\t\trequire(_id > 0 && _id <= projectCount, 'Error, wrong id');\r\n\t\t_;\r\n\t}\r\n\tmodifier onlyNonEmptyArrays (uint256[] calldata _ids) {\r\n\t\trequire(_ids.length > 0, 'Error, ids array cannot be empty');\r\n\t\t_;\r\n\t}\r\n\r\n\t// Fallback: reverts if Ether is sent to this smart contract by mistake\r\n    fallback () external { revert(); }\r\n\r\n\r\n\tfunction makeProject(string memory _name, string memory _description, string memory _imgHash, uint256 _fundGoal, uint256 _timeGoal) external {\r\n\t\trequire(_timeGoal > 0, 'Error, time goal must exist in the future');\r\n\t\trequire(_timeGoal < 5184000, 'Error, time goal must be less than 60 days');\r\n\t\trequire(bytes(_name).length > 0, 'Error, name must exist');\r\n\t\trequire(bytes(_description).length > 0, 'Error, description must exist');\r\n\t\trequire(bytes(_imgHash).length > 0, 'Error, image hash must exist');\r\n\t\tprojectCount = projectCount.add(1);\r\n\t\tprojects[projectCount] = _Project(projectCount, _name, _description, _imgHash, msg.sender, _fundGoal, _timeGoal, block.timestamp, 0, 0);\r\n\t\temit ProjectMade(projectCount, _name, _description, _imgHash, msg.sender, _fundGoal, _timeGoal, block.timestamp, 0, 0);\r\n\t}\r\n\r\n\tfunction IsOpen(uint256 _timeGoal, uint256 _timestamp) internal view returns(bool) {\r\n\t\treturn(_timeGoal.add(_timestamp) > block.timestamp);\r\n\t}\r\n\r\n\tfunction cancelProject(uint256 _id) onlyValidIds(_id) external {\r\n\t\t_Project storage _project = projects[_id];\r\n\t\trequire(IsOpen(_project.fundGoal, _project.timestamp), 'Error, project must be open');\r\n\t\trequire(address(_project.creator) == msg.sender, 'Error, only creator can cancel their project');\r\n\t\tprojectCancelled[_id] = true;\r\n\t\temit Cancel(_project.id, msg.sender, _project.fundGoal, _project.timeGoal, block.timestamp);\r\n\t}\r\n\r\n\tfunction contribute(uint256 _id, uint256 _amount) onlyValidIds(_id) external {\r\n\t\trequire(!projectCancelled[_id], 'Error, project is canceled');\r\n\t\t_Project memory _project = projects[_id];\r\n\t\trequire(msg.sender != _project.creator, 'Error, creators are not allowed to add funds to their own projects');\r\n\t\trequire(IsOpen(_project.timeGoal, _project.timestamp), 'Error, project must be open');\r\n\t\trequire(dai.transferFrom(msg.sender, address(this), _amount));\r\n\t\tif(supporterFunds[_id][msg.sender] == 0) {\r\n\t\t\t_project.supporterCount = _project.supporterCount.add(1);\t\r\n\t\t}\r\n\t\t_project.totalFunds = _project.totalFunds.add(_amount);\r\n\t\tsupporterFunds[_id][msg.sender] = supporterFunds[_id][msg.sender].add(_amount);\r\n\t\tprojects[_id] = _project;\r\n\t\temit Contribution (_id, msg.sender, _project.supporterCount, _project.totalFunds, _amount, block.timestamp);\t\r\n\t}\r\n\r\n\tfunction transfer(uint256[] calldata _ids) onlyNonEmptyArrays(_ids) external {\r\n\t\tuint256 _totalFunds;\r\n\t\tuint256 _feeAmount;\r\n\t\tfor(uint256 i = 0; i < _ids.length; i++) {\r\n\t\t\trequire(!projectCancelled[_ids[i]], 'Error, project is canceled');\r\n\t\t\trequire(!projectFundsTransfered[_ids[i]], 'Error, collected project funds already transfered');\r\n\t\t\t_Project storage _project = projects[_ids[i]];\r\n\t\t\trequire(address(_project.creator) == msg.sender, 'Error, only creator can transfer collected project funds');\r\n\t\t\trequire(!IsOpen(_project.timeGoal, _project.timestamp), 'Error, project still open');\r\n\t\t\trequire(_project.totalFunds >= _project.fundGoal, 'Error, project did not meet funding goal in time');\r\n\t\t\tprojectFundsTransfered[_ids[i]] = true;\r\n\t\t\t_totalFunds = _totalFunds.add(_project.totalFunds);\r\n\t\t\t_feeAmount = _feeAmount.add(_project.totalFunds.mul(feePercent).div(100));\r\n\t\t}\r\n\t\trequire(dai.transfer(msg.sender, _totalFunds.sub(_feeAmount)));\r\n\t\trequire(dai.transfer(feeAccount, _feeAmount));\r\n\t\temit Transfer(_ids, msg.sender, _totalFunds.sub(_feeAmount), _feeAmount, block.timestamp);\r\n\t}\r\n\r\n\tfunction refund(uint256[] calldata _ids) onlyNonEmptyArrays(_ids) external {\r\n\t\tbool underFunded;\r\n\t\tbool _failed;\r\n\t\tuint256 _supporterFunds;\r\n\t\tfor(uint256 i = 0; i < _ids.length; i++) {\r\n\t\t\t_Project storage _project = projects[_ids[i]];\r\n\t\t\tunderFunded = _project.totalFunds < _project.fundGoal;\r\n\t\t\t_failed = !IsOpen(_project.timeGoal, _project.timestamp) && underFunded;\r\n\t\t\trequire(_failed || projectCancelled[_ids[i]], 'Error, no refunds unless project has been canceled or did not meet funding goal');\r\n\t\t\t_supporterFunds = _supporterFunds.add(supporterFunds[_ids[i]][msg.sender]);\r\n\t\t\tdelete supporterFunds[_ids[i]][msg.sender];\r\n\t\t}\r\n\t\trequire(dai.transfer(msg.sender, _supporterFunds));\r\n\t\temit Refund(_ids, msg.sender, _supporterFunds, block.timestamp);\r\n\t}\r\n}\r\n\r\n// Place timeGoal and fundingGoal limits\r\n// timeGoal limit would depend on fundgoal\r\n// timeGoalLimit == fundGoal*C\r\n// timeGoalLimit would not depend on the fundGoal digit number\r\n// change _amount data type from uint256 to uint16\r\n",
  "sourcePath": "/mnt/c/pr0/make-it-happen/src/contracts/Crowdfunder.sol",
  "compiler": {
    "name": "solc",
    "version": "0.8.9+commit.e5eed63a.Emscripten.clang"
  },
  "schemaVersion": "3.4.1",
  "updatedAt": "2021-10-07T21:14:22.935Z",
  "networkType": "ethereum",
  "devdoc": {
    "kind": "dev",
    "methods": {},
    "version": 1
  },
  "userdoc": {
    "kind": "user",
    "methods": {},
    "version": 1
  }
}