{
  "contractName": "Crowdfunder",
  "abi": [
    {
      "inputs": [
        {
          "internalType": "address",
          "name": "_dai",
          "type": "address"
        },
        {
          "internalType": "address",
          "name": "_feeAccount",
          "type": "address"
        },
        {
          "internalType": "uint256",
          "name": "_feePercent",
          "type": "uint256"
        }
      ],
      "stateMutability": "nonpayable",
      "type": "constructor"
    },
    {
      "anonymous": false,
      "inputs": [
        {
          "indexed": false,
          "internalType": "uint256",
          "name": "id",
          "type": "uint256"
        },
        {
          "indexed": true,
          "internalType": "address",
          "name": "creator",
          "type": "address"
        },
        {
          "indexed": false,
          "internalType": "uint256",
          "name": "fundGoal",
          "type": "uint256"
        },
        {
          "indexed": false,
          "internalType": "uint256",
          "name": "timeGoal",
          "type": "uint256"
        },
        {
          "indexed": false,
          "internalType": "uint256",
          "name": "timestamp",
          "type": "uint256"
        }
      ],
      "name": "Cancel",
      "type": "event"
    },
    {
      "anonymous": false,
      "inputs": [
        {
          "indexed": true,
          "internalType": "uint256",
          "name": "id",
          "type": "uint256"
        },
        {
          "indexed": true,
          "internalType": "address",
          "name": "supporter",
          "type": "address"
        },
        {
          "indexed": false,
          "internalType": "bool",
          "name": "newSupporter",
          "type": "bool"
        },
        {
          "indexed": false,
          "internalType": "uint256",
          "name": "raisedFunds",
          "type": "uint256"
        },
        {
          "indexed": false,
          "internalType": "uint256",
          "name": "fundAmount",
          "type": "uint256"
        },
        {
          "indexed": false,
          "internalType": "uint256",
          "name": "timestamp",
          "type": "uint256"
        }
      ],
      "name": "Contribution",
      "type": "event"
    },
    {
      "anonymous": false,
      "inputs": [
        {
          "indexed": false,
          "internalType": "uint256",
          "name": "id",
          "type": "uint256"
        },
        {
          "indexed": true,
          "internalType": "address",
          "name": "creator",
          "type": "address"
        },
        {
          "indexed": false,
          "internalType": "uint256",
          "name": "disburseAmount",
          "type": "uint256"
        },
        {
          "indexed": false,
          "internalType": "uint256",
          "name": "feeAmount",
          "type": "uint256"
        },
        {
          "indexed": false,
          "internalType": "uint256",
          "name": "timestamp",
          "type": "uint256"
        }
      ],
      "name": "Disburse",
      "type": "event"
    },
    {
      "anonymous": false,
      "inputs": [
        {
          "indexed": false,
          "internalType": "uint256",
          "name": "id",
          "type": "uint256"
        },
        {
          "indexed": false,
          "internalType": "string",
          "name": "name",
          "type": "string"
        },
        {
          "indexed": false,
          "internalType": "string",
          "name": "description",
          "type": "string"
        },
        {
          "indexed": false,
          "internalType": "string",
          "name": "imgHash",
          "type": "string"
        },
        {
          "indexed": false,
          "internalType": "address",
          "name": "creator",
          "type": "address"
        },
        {
          "indexed": false,
          "internalType": "uint256",
          "name": "fundGoal",
          "type": "uint256"
        },
        {
          "indexed": false,
          "internalType": "uint256",
          "name": "timeGoal",
          "type": "uint256"
        },
        {
          "indexed": false,
          "internalType": "uint256",
          "name": "timestamp",
          "type": "uint256"
        }
      ],
      "name": "ProjectMade",
      "type": "event"
    },
    {
      "anonymous": false,
      "inputs": [
        {
          "indexed": true,
          "internalType": "uint256",
          "name": "id",
          "type": "uint256"
        },
        {
          "indexed": true,
          "internalType": "address",
          "name": "supporter",
          "type": "address"
        },
        {
          "indexed": false,
          "internalType": "uint256",
          "name": "raisedFunds",
          "type": "uint256"
        },
        {
          "indexed": false,
          "internalType": "uint256",
          "name": "refundAmount",
          "type": "uint256"
        },
        {
          "indexed": false,
          "internalType": "uint256",
          "name": "timestamp",
          "type": "uint256"
        }
      ],
      "name": "Refund",
      "type": "event"
    },
    {
      "stateMutability": "nonpayable",
      "type": "fallback"
    },
    {
      "inputs": [],
      "name": "dai",
      "outputs": [
        {
          "internalType": "address",
          "name": "",
          "type": "address"
        }
      ],
      "stateMutability": "view",
      "type": "function",
      "constant": true
    },
    {
      "inputs": [],
      "name": "feeAccount",
      "outputs": [
        {
          "internalType": "address",
          "name": "",
          "type": "address"
        }
      ],
      "stateMutability": "view",
      "type": "function",
      "constant": true
    },
    {
      "inputs": [],
      "name": "feePercent",
      "outputs": [
        {
          "internalType": "uint256",
          "name": "",
          "type": "uint256"
        }
      ],
      "stateMutability": "view",
      "type": "function",
      "constant": true
    },
    {
      "inputs": [],
      "name": "projectCount",
      "outputs": [
        {
          "internalType": "uint256",
          "name": "",
          "type": "uint256"
        }
      ],
      "stateMutability": "view",
      "type": "function",
      "constant": true
    },
    {
      "inputs": [
        {
          "internalType": "uint256",
          "name": "",
          "type": "uint256"
        }
      ],
      "name": "projects",
      "outputs": [
        {
          "internalType": "contract Project",
          "name": "",
          "type": "address"
        }
      ],
      "stateMutability": "view",
      "type": "function",
      "constant": true
    },
    {
      "inputs": [
        {
          "internalType": "string",
          "name": "_name",
          "type": "string"
        },
        {
          "internalType": "string",
          "name": "_description",
          "type": "string"
        },
        {
          "internalType": "string",
          "name": "_imgHash",
          "type": "string"
        },
        {
          "internalType": "uint256",
          "name": "_fundGoal",
          "type": "uint256"
        },
        {
          "internalType": "uint256",
          "name": "_timeGoal",
          "type": "uint256"
        }
      ],
      "name": "makeProject",
      "outputs": [],
      "stateMutability": "nonpayable",
      "type": "function"
    },
    {
      "inputs": [
        {
          "internalType": "uint256",
          "name": "_id",
          "type": "uint256"
        }
      ],
      "name": "cancel",
      "outputs": [],
      "stateMutability": "nonpayable",
      "type": "function"
    },
    {
      "inputs": [
        {
          "internalType": "uint256",
          "name": "_id",
          "type": "uint256"
        },
        {
          "internalType": "uint256",
          "name": "_amount",
          "type": "uint256"
        }
      ],
      "name": "contribute",
      "outputs": [],
      "stateMutability": "nonpayable",
      "type": "function"
    },
    {
      "inputs": [
        {
          "internalType": "uint256",
          "name": "_id",
          "type": "uint256"
        }
      ],
      "name": "disburse",
      "outputs": [],
      "stateMutability": "nonpayable",
      "type": "function"
    },
    {
      "inputs": [
        {
          "internalType": "uint256",
          "name": "_id",
          "type": "uint256"
        }
      ],
      "name": "claimRefund",
      "outputs": [],
      "stateMutability": "nonpayable",
      "type": "function"
    }
  ],
  "bytecode": "0x60806040523480156200001157600080fd5b5060405162003a2238038062003a2283398181016040528101906200003791906200016d565b81600160006101000a81548173ffffffffffffffffffffffffffffffffffffffff021916908373ffffffffffffffffffffffffffffffffffffffff16021790555080600281905550826000806101000a81548173ffffffffffffffffffffffffffffffffffffffff021916908373ffffffffffffffffffffffffffffffffffffffff160217905550505050620001c9565b600080fd5b600073ffffffffffffffffffffffffffffffffffffffff82169050919050565b6000620000fa82620000cd565b9050919050565b6200010c81620000ed565b81146200011857600080fd5b50565b6000815190506200012c8162000101565b92915050565b6000819050919050565b620001478162000132565b81146200015357600080fd5b50565b60008151905062000167816200013c565b92915050565b600080600060608486031215620001895762000188620000c8565b5b600062000199868287016200011b565b9350506020620001ac868287016200011b565b9250506040620001bf8682870162000156565b9150509250925092565b61384980620001d96000396000f3fe60806040523480156200001157600080fd5b5060043610620000b15760003560e01c80637fd6f15c116200006f5780637fd6f15c14620001715780638c5909171462000193578063bd77ac2c14620001b3578063ceb529dc14620001d3578063f4b9fa7514620001f357620000b2565b8063107046bd14620000b757806336fbad2614620000ed57806340e58ee5146200010f5780635b7baf64146200012f57806365e17c9d146200014f57620000b2565b5b600080fd5b620000d56004803603810190620000cf919062000a2b565b62000215565b604051620000e4919062000ae8565b60405180910390f35b620000f762000248565b60405162000106919062000b16565b60405180910390f35b6200012d600480360381019062000127919062000a2b565b6200024e565b005b6200014d600480360381019062000147919062000a2b565b62000369565b005b6200015962000483565b60405162000168919062000b58565b60405180910390f35b6200017b620004a9565b6040516200018a919062000b16565b60405180910390f35b620001b16004803603810190620001ab919062000b75565b620004af565b005b620001d16004803603810190620001cb919062000a2b565b620005ce565b005b620001f16004803603810190620001eb919062000d1e565b62000711565b005b620001fd620009aa565b6040516200020c919062000b58565b60405180910390f35b60046020528060005260406000206000915054906101000a900473ffffffffffffffffffffffffffffffffffffffff1681565b60035481565b60008060006004600085815260200190815260200160002060009054906101000a900473ffffffffffffffffffffffffffffffffffffffff1673ffffffffffffffffffffffffffffffffffffffff16634c33fe94336040518263ffffffff1660e01b8152600401620002c1919062000b58565b6060604051808303816000875af1158015620002e1573d6000803e3d6000fd5b505050506040513d601f19601f8201168201806040525081019062000307919062000e1a565b9250925092503373ffffffffffffffffffffffffffffffffffffffff167f7769bfc7786e1deefeb13e6106bf1f23574d6811046097ff1ef0234bc7de2b2c858585856040516200035b949392919062000e76565b60405180910390a250505050565b60008060006004600085815260200190815260200160002060009054906101000a900473ffffffffffffffffffffffffffffffffffffffff1673ffffffffffffffffffffffffffffffffffffffff1663bffa55d5336040518263ffffffff1660e01b8152600401620003dc919062000b58565b6060604051808303816000875af1158015620003fc573d6000803e3d6000fd5b505050506040513d601f19601f8201168201806040525081019062000422919062000e1a565b9250925092503373ffffffffffffffffffffffffffffffffffffffff16847f477e597a208718170c9c5cc9ed3c792ef08a1848dd79f885b3281a521b87cd4b858585604051620004759392919062000ec3565b60405180910390a350505050565b600160009054906101000a900473ffffffffffffffffffffffffffffffffffffffff1681565b60025481565b60008060006004600086815260200190815260200160002060009054906101000a900473ffffffffffffffffffffffffffffffffffffffff1673ffffffffffffffffffffffffffffffffffffffff166360b0b0f085336040518363ffffffff1660e01b81526004016200052492919062000f00565b6060604051808303816000875af115801562000544573d6000803e3d6000fd5b505050506040513d601f19601f820116820180604052508101906200056a919062000f6a565b9250925092503373ffffffffffffffffffffffffffffffffffffffff16857f15bdb4471fbf8ac2515531c3c435f8bc9f0b7ce41b6af71a8ec8fb2d95242fa985858886604051620005bf949392919062000fd7565b60405180910390a35050505050565b60008060006004600085815260200190815260200160002060009054906101000a900473ffffffffffffffffffffffffffffffffffffffff1673ffffffffffffffffffffffffffffffffffffffff16638ae37aa9600254600160009054906101000a900473ffffffffffffffffffffffffffffffffffffffff16336040518463ffffffff1660e01b8152600401620006699392919062001024565b6060604051808303816000875af115801562000689573d6000803e3d6000fd5b505050506040513d601f19601f82011682018060405250810190620006af919062000e1a565b9250925092503373ffffffffffffffffffffffffffffffffffffffff167f2169fbb1a5f2f0f48c8340c6f6aa6043e14e925c1687f018ae1df99ced3a948a8585858560405162000703949392919062000e76565b60405180910390a250505050565b42811162000756576040517f08c379a00000000000000000000000000000000000000000000000000000000081526004016200074d90620010e8565b60405180910390fd5b42624f1a0062000767919062001139565b8110620007ab576040517f08c379a0000000000000000000000000000000000000000000000000000000008152600401620007a2906200120c565b60405180910390fd5b6000855111620007f2576040517f08c379a0000000000000000000000000000000000000000000000000000000008152600401620007e9906200127e565b60405180910390fd5b600084511162000839576040517f08c379a00000000000000000000000000000000000000000000000000000000081526004016200083090620012f0565b60405180910390fd5b600083511162000880576040517f08c379a0000000000000000000000000000000000000000000000000000000008152600401620008779062001362565b60405180910390fd5b60008585853386864260008054906101000a900473ffffffffffffffffffffffffffffffffffffffff16604051620008b890620009ce565b620008cb98979695949392919062001406565b604051809103906000f080158015620008e8573d6000803e3d6000fd5b509050600360008154809291906200090090620014a9565b91905055508060046000600354815260200190815260200160002060006101000a81548173ffffffffffffffffffffffffffffffffffffffff021916908373ffffffffffffffffffffffffffffffffffffffff1602179055507fec9855581b0348e5c86478107f0b8e1341c8e0347ccd0beedda1f43fa7c0bf8d600354878787338888426040516200099a989796959493929190620014f7565b60405180910390a1505050505050565b60008054906101000a900473ffffffffffffffffffffffffffffffffffffffff1681565b612279806200159b83390190565b6000604051905090565b600080fd5b600080fd5b6000819050919050565b62000a0581620009f0565b811462000a1157600080fd5b50565b60008135905062000a2581620009fa565b92915050565b60006020828403121562000a445762000a43620009e6565b5b600062000a548482850162000a14565b91505092915050565b600073ffffffffffffffffffffffffffffffffffffffff82169050919050565b6000819050919050565b600062000aa862000aa262000a9c8462000a5d565b62000a7d565b62000a5d565b9050919050565b600062000abc8262000a87565b9050919050565b600062000ad08262000aaf565b9050919050565b62000ae28162000ac3565b82525050565b600060208201905062000aff600083018462000ad7565b92915050565b62000b1081620009f0565b82525050565b600060208201905062000b2d600083018462000b05565b92915050565b600062000b408262000a5d565b9050919050565b62000b528162000b33565b82525050565b600060208201905062000b6f600083018462000b47565b92915050565b6000806040838503121562000b8f5762000b8e620009e6565b5b600062000b9f8582860162000a14565b925050602062000bb28582860162000a14565b9150509250929050565b600080fd5b600080fd5b6000601f19601f8301169050919050565b7f4e487b7100000000000000000000000000000000000000000000000000000000600052604160045260246000fd5b62000c118262000bc6565b810181811067ffffffffffffffff8211171562000c335762000c3262000bd7565b5b80604052505050565b600062000c48620009dc565b905062000c56828262000c06565b919050565b600067ffffffffffffffff82111562000c795762000c7862000bd7565b5b62000c848262000bc6565b9050602081019050919050565b82818337600083830152505050565b600062000cb762000cb18462000c5b565b62000c3c565b90508281526020810184848401111562000cd65762000cd562000bc1565b5b62000ce384828562000c91565b509392505050565b600082601f83011262000d035762000d0262000bbc565b5b813562000d1584826020860162000ca0565b91505092915050565b600080600080600060a0868803121562000d3d5762000d3c620009e6565b5b600086013567ffffffffffffffff81111562000d5e5762000d5d620009eb565b5b62000d6c8882890162000ceb565b955050602086013567ffffffffffffffff81111562000d905762000d8f620009eb565b5b62000d9e8882890162000ceb565b945050604086013567ffffffffffffffff81111562000dc25762000dc1620009eb565b5b62000dd08882890162000ceb565b935050606062000de38882890162000a14565b925050608062000df68882890162000a14565b9150509295509295909350565b60008151905062000e1481620009fa565b92915050565b60008060006060848603121562000e365762000e35620009e6565b5b600062000e468682870162000e03565b935050602062000e598682870162000e03565b925050604062000e6c8682870162000e03565b9150509250925092565b600060808201905062000e8d600083018762000b05565b62000e9c602083018662000b05565b62000eab604083018562000b05565b62000eba606083018462000b05565b95945050505050565b600060608201905062000eda600083018662000b05565b62000ee9602083018562000b05565b62000ef8604083018462000b05565b949350505050565b600060408201905062000f17600083018562000b05565b62000f26602083018462000b47565b9392505050565b60008115159050919050565b62000f448162000f2d565b811462000f5057600080fd5b50565b60008151905062000f648162000f39565b92915050565b60008060006060848603121562000f865762000f85620009e6565b5b600062000f968682870162000f53565b935050602062000fa98682870162000e03565b925050604062000fbc8682870162000e03565b9150509250925092565b62000fd18162000f2d565b82525050565b600060808201905062000fee600083018762000fc6565b62000ffd602083018662000b05565b6200100c604083018562000b05565b6200101b606083018462000b05565b95945050505050565b60006060820190506200103b600083018662000b05565b6200104a602083018562000b47565b62001059604083018462000b47565b949350505050565b600082825260208201905092915050565b7f4572726f722c2074696d6520676f616c206d75737420657869737420696e207460008201527f6865206675747572650000000000000000000000000000000000000000000000602082015250565b6000620010d060298362001061565b9150620010dd8262001072565b604082019050919050565b600060208201905081810360008301526200110381620010c1565b9050919050565b7f4e487b7100000000000000000000000000000000000000000000000000000000600052601160045260246000fd5b60006200114682620009f0565b91506200115383620009f0565b9250827fffffffffffffffffffffffffffffffffffffffffffffffffffffffffffffffff038211156200118b576200118a6200110a565b5b828201905092915050565b7f4572726f722c2074696d6520676f616c206d757374206265206c65737320746860008201527f616e203630206461797300000000000000000000000000000000000000000000602082015250565b6000620011f4602a8362001061565b9150620012018262001196565b604082019050919050565b600060208201905081810360008301526200122781620011e5565b9050919050565b7f4572726f722c206e616d65206d75737420657869737400000000000000000000600082015250565b60006200126660168362001061565b915062001273826200122e565b602082019050919050565b60006020820190508181036000830152620012998162001257565b9050919050565b7f4572726f722c206465736372697074696f6e206d757374206578697374000000600082015250565b6000620012d8601d8362001061565b9150620012e582620012a0565b602082019050919050565b600060208201905081810360008301526200130b81620012c9565b9050919050565b7f4572726f722c20696d6167652068617368206d75737420657869737400000000600082015250565b60006200134a601c8362001061565b9150620013578262001312565b602082019050919050565b600060208201905081810360008301526200137d816200133b565b9050919050565b600081519050919050565b60005b83811015620013af57808201518184015260208101905062001392565b83811115620013bf576000848401525b50505050565b6000620013d28262001384565b620013de818562001061565b9350620013f08185602086016200138f565b620013fb8162000bc6565b840191505092915050565b600061010082019050818103600083015262001423818b620013c5565b9050818103602083015262001439818a620013c5565b905081810360408301526200144f8189620013c5565b905062001460606083018862000b47565b6200146f608083018762000b05565b6200147e60a083018662000b05565b6200148d60c083018562000b05565b6200149c60e083018462000b47565b9998505050505050505050565b6000620014b682620009f0565b91507fffffffffffffffffffffffffffffffffffffffffffffffffffffffffffffffff821415620014ec57620014eb6200110a565b5b600182019050919050565b6000610100820190506200150f600083018b62000b05565b818103602083015262001523818a620013c5565b90508181036040830152620015398189620013c5565b905081810360608301526200154f8188620013c5565b905062001560608083018762000b47565b6200156f60a083018662000b05565b6200157e60c083018562000b05565b6200158d60e083018462000b05565b999850505050505050505056fe60806040523480156200001157600080fd5b506040516200227938038062002279833981810160405281019062000037919062000454565b87600290805190602001906200004f92919062000167565b5086600390805190602001906200006892919062000167565b5085600490805190602001906200008192919062000167565b5084600560006101000a81548173ffffffffffffffffffffffffffffffffffffffff021916908373ffffffffffffffffffffffffffffffffffffffff160217905550836006819055508260078190555081600981905550806000806101000a81548173ffffffffffffffffffffffffffffffffffffffff021916908373ffffffffffffffffffffffffffffffffffffffff16021790555033600160006101000a81548173ffffffffffffffffffffffffffffffffffffffff021916908373ffffffffffffffffffffffffffffffffffffffff1602179055505050505050505050620005df565b8280546200017590620005a9565b90600052602060002090601f016020900481019282620001995760008555620001e5565b82601f10620001b457805160ff1916838001178555620001e5565b82800160010185558215620001e5579182015b82811115620001e4578251825591602001919060010190620001c7565b5b509050620001f49190620001f8565b5090565b5b8082111562000213576000816000905550600101620001f9565b5090565b6000604051905090565b600080fd5b600080fd5b600080fd5b600080fd5b6000601f19601f8301169050919050565b7f4e487b7100000000000000000000000000000000000000000000000000000000600052604160045260246000fd5b620002808262000235565b810181811067ffffffffffffffff82111715620002a257620002a162000246565b5b80604052505050565b6000620002b762000217565b9050620002c5828262000275565b919050565b600067ffffffffffffffff821115620002e857620002e762000246565b5b620002f38262000235565b9050602081019050919050565b60005b838110156200032057808201518184015260208101905062000303565b8381111562000330576000848401525b50505050565b60006200034d6200034784620002ca565b620002ab565b9050828152602081018484840111156200036c576200036b62000230565b5b6200037984828562000300565b509392505050565b600082601f8301126200039957620003986200022b565b5b8151620003ab84826020860162000336565b91505092915050565b600073ffffffffffffffffffffffffffffffffffffffff82169050919050565b6000620003e182620003b4565b9050919050565b620003f381620003d4565b8114620003ff57600080fd5b50565b6000815190506200041381620003e8565b92915050565b6000819050919050565b6200042e8162000419565b81146200043a57600080fd5b50565b6000815190506200044e8162000423565b92915050565b600080600080600080600080610100898b03121562000478576200047762000221565b5b600089015167ffffffffffffffff81111562000499576200049862000226565b5b620004a78b828c0162000381565b985050602089015167ffffffffffffffff811115620004cb57620004ca62000226565b5b620004d98b828c0162000381565b975050604089015167ffffffffffffffff811115620004fd57620004fc62000226565b5b6200050b8b828c0162000381565b96505060606200051e8b828c0162000402565b9550506080620005318b828c016200043d565b94505060a0620005448b828c016200043d565b93505060c0620005578b828c016200043d565b92505060e06200056a8b828c0162000402565b9150509295985092959890939650565b7f4e487b7100000000000000000000000000000000000000000000000000000000600052602260045260246000fd5b60006002820490506001821680620005c257607f821691505b60208210811415620005d957620005d86200057a565b5b50919050565b611c8a80620005ef6000396000f3fe608060405234801561001057600080fd5b50600436106101035760003560e01c80638ae37aa911610097578063bffa55d511610066578063bffa55d5146102bf578063dfb8dca9146102f1578063e15fa5b21461030f578063f4b9fa751461032d57610104565b80638ae37aa9146102215780638d41c1e5146102535780639a82a09a14610283578063b80777ea146102a157610104565b80634c33fe94116100d35780634c33fe94146101815780635a41c855146101b357806360b0b0f0146101d15780637284e4161461020357610104565b8062821de31461010957806302d05d3f1461012757806306fdde0314610145578063309561d91461016357610104565b5b600080fd5b61011161034b565b60405161011e91906111ac565b60405180910390f35b61012f610371565b60405161013c91906111ac565b60405180910390f35b61014d610397565b60405161015a9190611260565b60405180910390f35b61016b610425565b604051610178919061129b565b60405180910390f35b61019b600480360381019061019691906112e7565b61042b565b6040516101aa93929190611314565b60405180910390f35b6101bb6105d4565b6040516101c89190611260565b60405180910390f35b6101eb60048036038101906101e69190611377565b610662565b6040516101fa939291906113d2565b60405180910390f35b61020b6109a8565b6040516102189190611260565b60405180910390f35b61023b60048036038101906102369190611409565b610a36565b60405161024a93929190611314565b60405180910390f35b61026d600480360381019061026891906112e7565b610ddc565b60405161027a919061129b565b60405180910390f35b61028b610df4565b604051610298919061145c565b60405180910390f35b6102a9610e07565b6040516102b6919061129b565b60405180910390f35b6102d960048036038101906102d491906112e7565b610e0d565b6040516102e893929190611314565b60405180910390f35b6102f96110c6565b604051610306919061129b565b60405180910390f35b6103176110cc565b604051610324919061129b565b60405180910390f35b6103356110d2565b60405161034291906114d6565b60405180910390f35b600160009054906101000a900473ffffffffffffffffffffffffffffffffffffffff1681565b600560009054906101000a900473ffffffffffffffffffffffffffffffffffffffff1681565b600280546103a490611520565b80601f01602080910402602001604051908101604052809291908181526020018280546103d090611520565b801561041d5780601f106103f25761010080835404028352916020019161041d565b820191906000526020600020905b81548152906001019060200180831161040057829003601f168201915b505050505081565b60075481565b60008060003373ffffffffffffffffffffffffffffffffffffffff16600160009054906101000a900473ffffffffffffffffffffffffffffffffffffffff1673ffffffffffffffffffffffffffffffffffffffff16146104c0576040517f08c379a00000000000000000000000000000000000000000000000000000000081526004016104b7906115c4565b60405180910390fd5b6104c86110f6565b610507576040517f08c379a00000000000000000000000000000000000000000000000000000000081526004016104fe90611630565b60405180910390fd5b61051084611102565b61054f576040517f08c379a0000000000000000000000000000000000000000000000000000000008152600401610546906116c2565b60405180910390fd5b6001600a60006101000a81548160ff0219169083151502179055508373ffffffffffffffffffffffffffffffffffffffff167f49f50fca4a590bc780b00eea7d6be105e57280946507e6075bc777b9645d6d03600654600754426040516105b893929190611314565b60405180910390a2600654600754429250925092509193909250565b600480546105e190611520565b80601f016020809104026020016040519081016040528092919081815260200182805461060d90611520565b801561065a5780601f1061062f5761010080835404028352916020019161065a565b820191906000526020600020905b81548152906001019060200180831161063d57829003601f168201915b505050505081565b60008060003373ffffffffffffffffffffffffffffffffffffffff16600160009054906101000a900473ffffffffffffffffffffffffffffffffffffffff1673ffffffffffffffffffffffffffffffffffffffff16146106f7576040517f08c379a00000000000000000000000000000000000000000000000000000000081526004016106ee906115c4565b60405180910390fd5b6000600a60009054906101000a900460ff1615610749576040517f08c379a00000000000000000000000000000000000000000000000000000000081526004016107409061172e565b60405180910390fd5b61075285611102565b15610792576040517f08c379a0000000000000000000000000000000000000000000000000000000008152600401610789906117e6565b60405180910390fd5b61079a6110f6565b6107d9576040517f08c379a00000000000000000000000000000000000000000000000000000000081526004016107d090611630565b60405180910390fd5b6000600b60008773ffffffffffffffffffffffffffffffffffffffff1673ffffffffffffffffffffffffffffffffffffffff16815260200190815260200160002054141561082657600190505b85600860008282546108389190611835565b9250508190555085600b60008773ffffffffffffffffffffffffffffffffffffffff1673ffffffffffffffffffffffffffffffffffffffff168152602001908152602001600020600082825461088e9190611835565b9250508190555060008054906101000a900473ffffffffffffffffffffffffffffffffffffffff1673ffffffffffffffffffffffffffffffffffffffff166323b872dd8630896040518463ffffffff1660e01b81526004016108f29392919061188b565b6020604051808303816000875af1158015610911573d6000803e3d6000fd5b505050506040513d601f19601f8201168201806040525081019061093591906118ee565b61093e57600080fd5b8015158573ffffffffffffffffffffffffffffffffffffffff167fe34dca9f0d19574214d3cdef65ff6c81ac02be4a10541ca76d2b3b0590262640600854894260405161098d93929190611314565b60405180910390a38060085442935093509350509250925092565b600380546109b590611520565b80601f01602080910402602001604051908101604052809291908181526020018280546109e190611520565b8015610a2e5780601f10610a0357610100808354040283529160200191610a2e565b820191906000526020600020905b815481529060010190602001808311610a1157829003601f168201915b505050505081565b60008060003373ffffffffffffffffffffffffffffffffffffffff16600160009054906101000a900473ffffffffffffffffffffffffffffffffffffffff1673ffffffffffffffffffffffffffffffffffffffff1614610acb576040517f08c379a0000000000000000000000000000000000000000000000000000000008152600401610ac2906115c4565b60405180910390fd5b600a60009054906101000a900460ff1615610b1b576040517f08c379a0000000000000000000000000000000000000000000000000000000008152600401610b129061172e565b60405180910390fd5b610b2484611102565b610b63576040517f08c379a0000000000000000000000000000000000000000000000000000000008152600401610b5a9061198d565b60405180910390fd5b610b6b6110f6565b15610bab576040517f08c379a0000000000000000000000000000000000000000000000000000000008152600401610ba2906119f9565b60405180910390fd5b610bb361115c565b610bf2576040517f08c379a0000000000000000000000000000000000000000000000000000000008152600401610be990611a65565b60405180910390fd5b6000606487600854610c049190611a85565b610c0e9190611b0e565b9050600081600854610c209190611b3f565b905060086000905560008054906101000a900473ffffffffffffffffffffffffffffffffffffffff1673ffffffffffffffffffffffffffffffffffffffff1663a9059cbb88846040518363ffffffff1660e01b8152600401610c83929190611b73565b6020604051808303816000875af1158015610ca2573d6000803e3d6000fd5b505050506040513d601f19601f82011682018060405250810190610cc691906118ee565b610ccf57600080fd5b60008054906101000a900473ffffffffffffffffffffffffffffffffffffffff1673ffffffffffffffffffffffffffffffffffffffff1663a9059cbb87836040518363ffffffff1660e01b8152600401610d2a929190611b73565b6020604051808303816000875af1158015610d49573d6000803e3d6000fd5b505050506040513d601f19601f82011682018060405250810190610d6d91906118ee565b610d7657600080fd5b8573ffffffffffffffffffffffffffffffffffffffff167f52948de0cc413a7d554dc2b2a5896a37041208572e8a0b0dbf938e6ec8ea376e828442604051610dc093929190611314565b60405180910390a2808242945094509450505093509350939050565b600b6020528060005260406000206000915090505481565b600a60009054906101000a900460ff1681565b60095481565b60008060003373ffffffffffffffffffffffffffffffffffffffff16600160009054906101000a900473ffffffffffffffffffffffffffffffffffffffff1673ffffffffffffffffffffffffffffffffffffffff1614610ea2576040517f08c379a0000000000000000000000000000000000000000000000000000000008152600401610e99906115c4565b60405180910390fd5b6000610eac6110f6565b158015610ebe5750610ebc61115c565b155b90508080610ed85750600a60009054906101000a900460ff165b610f17576040517f08c379a0000000000000000000000000000000000000000000000000000000008152600401610f0e90611c34565b60405180910390fd5b6000600b60008773ffffffffffffffffffffffffffffffffffffffff1673ffffffffffffffffffffffffffffffffffffffff168152602001908152602001600020549050600b60008773ffffffffffffffffffffffffffffffffffffffff1673ffffffffffffffffffffffffffffffffffffffff168152602001908152602001600020600090558060086000828254610fb09190611b3f565b9250508190555060008054906101000a900473ffffffffffffffffffffffffffffffffffffffff1673ffffffffffffffffffffffffffffffffffffffff1663a9059cbb87836040518363ffffffff1660e01b8152600401611012929190611b73565b6020604051808303816000875af1158015611031573d6000803e3d6000fd5b505050506040513d601f19601f8201168201806040525081019061105591906118ee565b61105e57600080fd5b8573ffffffffffffffffffffffffffffffffffffffff167fb7048c2ad36aadee977bb16b4543a18866044d27a2ca753e1c7dbcfa7d7a696260085483426040516110aa93929190611314565b60405180910390a2600854814294509450945050509193909250565b60085481565b60065481565b60008054906101000a900473ffffffffffffffffffffffffffffffffffffffff1681565b60004260075411905090565b6000600560009054906101000a900473ffffffffffffffffffffffffffffffffffffffff1673ffffffffffffffffffffffffffffffffffffffff168273ffffffffffffffffffffffffffffffffffffffff16149050919050565b60006006546008541015905090565b600073ffffffffffffffffffffffffffffffffffffffff82169050919050565b60006111968261116b565b9050919050565b6111a68161118b565b82525050565b60006020820190506111c1600083018461119d565b92915050565b600081519050919050565b600082825260208201905092915050565b60005b838110156112015780820151818401526020810190506111e6565b83811115611210576000848401525b50505050565b6000601f19601f8301169050919050565b6000611232826111c7565b61123c81856111d2565b935061124c8185602086016111e3565b61125581611216565b840191505092915050565b6000602082019050818103600083015261127a8184611227565b905092915050565b6000819050919050565b61129581611282565b82525050565b60006020820190506112b0600083018461128c565b92915050565b600080fd5b6112c48161118b565b81146112cf57600080fd5b50565b6000813590506112e1816112bb565b92915050565b6000602082840312156112fd576112fc6112b6565b5b600061130b848285016112d2565b91505092915050565b6000606082019050611329600083018661128c565b611336602083018561128c565b611343604083018461128c565b949350505050565b61135481611282565b811461135f57600080fd5b50565b6000813590506113718161134b565b92915050565b6000806040838503121561138e5761138d6112b6565b5b600061139c85828601611362565b92505060206113ad858286016112d2565b9150509250929050565b60008115159050919050565b6113cc816113b7565b82525050565b60006060820190506113e760008301866113c3565b6113f4602083018561128c565b611401604083018461128c565b949350505050565b600080600060608486031215611422576114216112b6565b5b600061143086828701611362565b9350506020611441868287016112d2565b9250506040611452868287016112d2565b9150509250925092565b600060208201905061147160008301846113c3565b92915050565b6000819050919050565b600061149c6114976114928461116b565b611477565b61116b565b9050919050565b60006114ae82611481565b9050919050565b60006114c0826114a3565b9050919050565b6114d0816114b5565b82525050565b60006020820190506114eb60008301846114c7565b92915050565b7f4e487b7100000000000000000000000000000000000000000000000000000000600052602260045260246000fd5b6000600282049050600182168061153857607f821691505b6020821081141561154c5761154b6114f1565b5b50919050565b7f4572726f722c206f6e6c7920706172656e7420636f6e74726163742063616e2060008201527f696e7465726163742077697468207468697320636f6e74726163740000000000602082015250565b60006115ae603b836111d2565b91506115b982611552565b604082019050919050565b600060208201905081810360008301526115dd816115a1565b9050919050565b7f4572726f722c2070726f6a656374206d757374206265206f70656e0000000000600082015250565b600061161a601b836111d2565b9150611625826115e4565b602082019050919050565b600060208201905081810360008301526116498161160d565b9050919050565b7f4572726f722c206f6e6c792063726561746f722063616e2063616e63656c207460008201527f686569722070726f6a6563740000000000000000000000000000000000000000602082015250565b60006116ac602c836111d2565b91506116b782611650565b604082019050919050565b600060208201905081810360008301526116db8161169f565b9050919050565b7f4572726f722c2070726f6a6563742063616e63656c6c65640000000000000000600082015250565b60006117186018836111d2565b9150611723826116e2565b602082019050919050565b600060208201905081810360008301526117478161170b565b9050919050565b7f4572726f722c2063726561746f727320617265206e6f7420616c6c6f7765642060008201527f746f206164642066756e647320746f207468656972206f776e2070726f6a656360208201527f7473000000000000000000000000000000000000000000000000000000000000604082015250565b60006117d06042836111d2565b91506117db8261174e565b606082019050919050565b600060208201905081810360008301526117ff816117c3565b9050919050565b7f4e487b7100000000000000000000000000000000000000000000000000000000600052601160045260246000fd5b600061184082611282565b915061184b83611282565b9250827fffffffffffffffffffffffffffffffffffffffffffffffffffffffffffffffff038211156118805761187f611806565b5b828201905092915050565b60006060820190506118a0600083018661119d565b6118ad602083018561119d565b6118ba604083018461128c565b949350505050565b6118cb816113b7565b81146118d657600080fd5b50565b6000815190506118e8816118c2565b92915050565b600060208284031215611904576119036112b6565b5b6000611912848285016118d9565b91505092915050565b7f4572726f722c206f6e6c792063726561746f722063616e20646973627572736560008201527f20636f6c6c65637465642070726f6a6563742066756e64730000000000000000602082015250565b60006119776038836111d2565b91506119828261191b565b604082019050919050565b600060208201905081810360008301526119a68161196a565b9050919050565b7f4572726f722c2070726f6a656374207374696c6c206f70656e00000000000000600082015250565b60006119e36019836111d2565b91506119ee826119ad565b602082019050919050565b60006020820190508181036000830152611a12816119d6565b9050919050565b7f4572726f722c2070726f6a656374206e6f742066756c6c7946756e6465640000600082015250565b6000611a4f601e836111d2565b9150611a5a82611a19565b602082019050919050565b60006020820190508181036000830152611a7e81611a42565b9050919050565b6000611a9082611282565b9150611a9b83611282565b9250817fffffffffffffffffffffffffffffffffffffffffffffffffffffffffffffffff0483118215151615611ad457611ad3611806565b5b828202905092915050565b7f4e487b7100000000000000000000000000000000000000000000000000000000600052601260045260246000fd5b6000611b1982611282565b9150611b2483611282565b925082611b3457611b33611adf565b5b828204905092915050565b6000611b4a82611282565b9150611b5583611282565b925082821015611b6857611b67611806565b5b828203905092915050565b6000604082019050611b88600083018561119d565b611b95602083018461128c565b9392505050565b7f4572726f722c206e6f20726566756e647320756e6c6573732070726f6a65637460008201527f20686173206265656e2063616e63656c6c6564206f7220646964206e6f74206d60208201527f6565742066756e64696e6720676f616c00000000000000000000000000000000604082015250565b6000611c1e6050836111d2565b9150611c2982611b9c565b606082019050919050565b60006020820190508181036000830152611c4d81611c11565b905091905056fea26469706673582212208c2d928557079f728df723f498e7c43bec701b9a2baff89d605b11dd1c5cfeda64736f6c634300080a0033a2646970667358221220d26a220a8c40c08f6cc492b928a45eadd27d523d050e7ec3298e774a71ab357964736f6c634300080a0033",
  "immutableReferences": {},
  "source": "//SPDX-License-Identifier: UNLICENSED\npragma solidity ^0.8.9;\n\nimport \"./Project.sol\"; \n\ncontract Crowdfunder {\n\taddress public dai; \n\taddress public feeAccount; // the account that receives transfer fees\n\tuint256 public feePercent; // the fee percentage\n\tuint256 public projectCount;\n\tmapping(uint256 => Project) public projects;\n\tevent ProjectMade (\n\t\tuint256 id,\n\t\tstring name,\n\t\tstring description,\n\t\tstring imgHash,\n\t\taddress creator,\n\t\tuint256 fundGoal,\n\t\tuint256 timeGoal,\n\t\tuint256 timestamp\n\t);\n\tevent Cancel (\n\t\tuint256 id,\n\t\taddress indexed creator,\n\t\tuint256 fundGoal,\n\t\tuint256 timeGoal,\n\t\tuint256 timestamp\t\n\t);\n\tevent Contribution (\n\t\tuint256 indexed id,\n\t\taddress indexed supporter,\n\t\tbool newSupporter,\n\t\tuint256 raisedFunds,\n\t\tuint256 fundAmount,\t\n\t\tuint256 timestamp\t\t\n\t);\n\tevent Disburse (\n\t\tuint256 id,\n\t\taddress indexed creator,\n\t\tuint256 disburseAmount,\n\t\tuint256 feeAmount,\n\t\tuint256 timestamp\n\t);\n\tevent Refund (\n\t\tuint256 indexed id,\n\t\taddress indexed supporter,\n\t\tuint256 raisedFunds,\n\t\tuint256 refundAmount,\n\t\tuint256 timestamp\t\n\t);\n\n\tconstructor (address _dai, address _feeAccount, uint256 _feePercent) {\n\t\tfeeAccount = _feeAccount;\n\t\tfeePercent = _feePercent;\n\t\tdai = _dai;\n\t}\n\n\t// Fallback: reverts if Ether is sent to this smart contract by mistake\n    fallback () external { revert(); }\n    \n    function makeProject(string memory _name, string memory _description, string memory _imgHash, uint256 _fundGoal, uint256 _timeGoal) external {\n        require(_timeGoal > block.timestamp, 'Error, time goal must exist in the future');\n\t\trequire(_timeGoal < 60 days + block.timestamp, 'Error, time goal must be less than 60 days');\n\t\trequire(bytes(_name).length > 0, 'Error, name must exist');\n\t\trequire(bytes(_description).length > 0, 'Error, description must exist');\n\t\trequire(bytes(_imgHash).length > 0, 'Error, image hash must exist');\n\t\tProject project = new Project(_name, _description, _imgHash, address(msg.sender), _fundGoal, _timeGoal, block.timestamp, dai);\n\t\tprojectCount ++;\n\t\tprojects[projectCount] = project;\n\t\temit ProjectMade(projectCount, _name, _description, _imgHash, msg.sender, _fundGoal, _timeGoal, block.timestamp);\n    }\n\n\tfunction cancel(uint256 _id) external {\n\t    (uint256 _fundGoal, uint256 _timeGoal, uint256 _timestamp) = projects[_id].cancel(msg.sender);\n\t\temit Cancel(_id, msg.sender, _fundGoal, _timeGoal, _timestamp);\n\t}\n\n\tfunction contribute(uint256 _id, uint256 _amount) external {\n\t    (bool _newSupporter, uint256 _raisedFunds, uint256 _timestamp) = projects[_id].contribute(_amount, msg.sender);\n\t\temit Contribution (_id, msg.sender, _newSupporter, _raisedFunds, _amount, _timestamp);\t\n\t}\n\n\tfunction disburse(uint256 _id) external {\n        (uint256 _disburseAmount, uint256 _feeAmount, uint256 _timestamp) = projects[_id].disburse(feePercent, feeAccount, msg.sender);  \n\t\temit Disburse(_id, msg.sender, _disburseAmount, _feeAmount, _timestamp);\n\t}\n\n\tfunction claimRefund(uint256 _id) external {\n\t    (uint256 _raisedFunds, uint256 _supporterFunds, uint256 _timestamp) = projects[_id].claimRefund(msg.sender);\n\t\temit Refund(_id, msg.sender, _raisedFunds, _supporterFunds, _timestamp);\n\t}\n}\n\n// Place timeGoal and fundingGoal limits\n// timeGoal limit would depend on fundgoal\n// timeGoalLimit == fundGoal*C\n// timeGoalLimit would not depend on the fundGoal digit number\n// change _amount data type from uint256 to uint16\n",
  "sourcePath": "/Users/ethancemer/Documents/make-it-happen/src/contracts/Crowdfunder.sol",
  "compiler": {
    "name": "solc",
    "version": "0.8.10+commit.fc410830.Emscripten.clang"
  },
  "schemaVersion": "3.4.3",
  "updatedAt": "2021-11-29T00:47:58.012Z",
  "networkType": "ethereum",
  "devdoc": {
    "kind": "dev",
    "methods": {},
    "version": 1
  },
  "userdoc": {
    "kind": "user",
    "methods": {},
    "version": 1
  }
}