{
  "contractName": "Crowdfunder",
  "abi": [
    {
      "inputs": [
        {
          "internalType": "address",
          "name": "_dai",
          "type": "address"
        },
        {
          "internalType": "address",
          "name": "_weth",
          "type": "address"
        },
        {
          "internalType": "address",
          "name": "_feeAccount",
          "type": "address"
        },
        {
          "internalType": "uint256",
          "name": "_feePercent",
          "type": "uint256"
        }
      ],
      "stateMutability": "nonpayable",
      "type": "constructor"
    },
    {
      "anonymous": false,
      "inputs": [
        {
          "indexed": false,
          "internalType": "uint256",
          "name": "id",
          "type": "uint256"
        },
        {
          "indexed": true,
          "internalType": "address",
          "name": "creator",
          "type": "address"
        },
        {
          "indexed": false,
          "internalType": "uint256",
          "name": "fundGoal",
          "type": "uint256"
        },
        {
          "indexed": false,
          "internalType": "uint256",
          "name": "timeGoal",
          "type": "uint256"
        },
        {
          "indexed": false,
          "internalType": "uint256",
          "name": "timestamp",
          "type": "uint256"
        }
      ],
      "name": "Cancel",
      "type": "event"
    },
    {
      "anonymous": false,
      "inputs": [
        {
          "indexed": true,
          "internalType": "uint256",
          "name": "id",
          "type": "uint256"
        },
        {
          "indexed": true,
          "internalType": "address",
          "name": "supporter",
          "type": "address"
        },
        {
          "indexed": false,
          "internalType": "bool",
          "name": "newSupporter",
          "type": "bool"
        },
        {
          "indexed": false,
          "internalType": "uint256",
          "name": "raisedFunds",
          "type": "uint256"
        },
        {
          "indexed": false,
          "internalType": "uint256",
          "name": "fundAmount",
          "type": "uint256"
        },
        {
          "indexed": false,
          "internalType": "uint256",
          "name": "timestamp",
          "type": "uint256"
        }
      ],
      "name": "Contribution",
      "type": "event"
    },
    {
      "anonymous": false,
      "inputs": [
        {
          "indexed": false,
          "internalType": "uint256",
          "name": "id",
          "type": "uint256"
        },
        {
          "indexed": false,
          "internalType": "address",
          "name": "user",
          "type": "address"
        },
        {
          "indexed": false,
          "internalType": "uint256",
          "name": "amountOut",
          "type": "uint256"
        },
        {
          "indexed": false,
          "internalType": "uint256",
          "name": "amountInMaximum",
          "type": "uint256"
        },
        {
          "indexed": false,
          "internalType": "uint256",
          "name": "amountIn",
          "type": "uint256"
        }
      ],
      "name": "Converted",
      "type": "event"
    },
    {
      "anonymous": false,
      "inputs": [
        {
          "indexed": false,
          "internalType": "uint256",
          "name": "id",
          "type": "uint256"
        },
        {
          "indexed": true,
          "internalType": "address",
          "name": "creator",
          "type": "address"
        },
        {
          "indexed": false,
          "internalType": "uint256",
          "name": "disburseAmount",
          "type": "uint256"
        },
        {
          "indexed": false,
          "internalType": "uint256",
          "name": "feeAmount",
          "type": "uint256"
        },
        {
          "indexed": false,
          "internalType": "uint256",
          "name": "timestamp",
          "type": "uint256"
        }
      ],
      "name": "Disburse",
      "type": "event"
    },
    {
      "anonymous": false,
      "inputs": [
        {
          "indexed": false,
          "internalType": "uint256",
          "name": "id",
          "type": "uint256"
        },
        {
          "indexed": false,
          "internalType": "string",
          "name": "name",
          "type": "string"
        },
        {
          "indexed": false,
          "internalType": "string",
          "name": "description",
          "type": "string"
        },
        {
          "indexed": false,
          "internalType": "string",
          "name": "imgHash",
          "type": "string"
        },
        {
          "indexed": false,
          "internalType": "address",
          "name": "creator",
          "type": "address"
        },
        {
          "indexed": false,
          "internalType": "uint256",
          "name": "fundGoal",
          "type": "uint256"
        },
        {
          "indexed": false,
          "internalType": "uint256",
          "name": "timeGoal",
          "type": "uint256"
        },
        {
          "indexed": false,
          "internalType": "uint256",
          "name": "timestamp",
          "type": "uint256"
        }
      ],
      "name": "ProjectMade",
      "type": "event"
    },
    {
      "anonymous": false,
      "inputs": [
        {
          "indexed": true,
          "internalType": "uint256",
          "name": "id",
          "type": "uint256"
        },
        {
          "indexed": true,
          "internalType": "address",
          "name": "supporter",
          "type": "address"
        },
        {
          "indexed": false,
          "internalType": "uint256",
          "name": "raisedFunds",
          "type": "uint256"
        },
        {
          "indexed": false,
          "internalType": "uint256",
          "name": "refundAmount",
          "type": "uint256"
        },
        {
          "indexed": false,
          "internalType": "uint256",
          "name": "timestamp",
          "type": "uint256"
        }
      ],
      "name": "Refund",
      "type": "event"
    },
    {
      "inputs": [],
      "name": "dai",
      "outputs": [
        {
          "internalType": "address",
          "name": "",
          "type": "address"
        }
      ],
      "stateMutability": "view",
      "type": "function",
      "constant": true
    },
    {
      "inputs": [],
      "name": "feeAccount",
      "outputs": [
        {
          "internalType": "address",
          "name": "",
          "type": "address"
        }
      ],
      "stateMutability": "view",
      "type": "function",
      "constant": true
    },
    {
      "inputs": [],
      "name": "feePercent",
      "outputs": [
        {
          "internalType": "uint256",
          "name": "",
          "type": "uint256"
        }
      ],
      "stateMutability": "view",
      "type": "function",
      "constant": true
    },
    {
      "inputs": [],
      "name": "poolFee",
      "outputs": [
        {
          "internalType": "uint24",
          "name": "",
          "type": "uint24"
        }
      ],
      "stateMutability": "view",
      "type": "function",
      "constant": true
    },
    {
      "inputs": [],
      "name": "projectCount",
      "outputs": [
        {
          "internalType": "uint256",
          "name": "",
          "type": "uint256"
        }
      ],
      "stateMutability": "view",
      "type": "function",
      "constant": true
    },
    {
      "inputs": [
        {
          "internalType": "uint256",
          "name": "",
          "type": "uint256"
        }
      ],
      "name": "projects",
      "outputs": [
        {
          "internalType": "contract Project",
          "name": "",
          "type": "address"
        }
      ],
      "stateMutability": "view",
      "type": "function",
      "constant": true
    },
    {
      "inputs": [],
      "name": "quoter",
      "outputs": [
        {
          "internalType": "contract IQuoter",
          "name": "",
          "type": "address"
        }
      ],
      "stateMutability": "view",
      "type": "function",
      "constant": true
    },
    {
      "inputs": [],
      "name": "swapRouter",
      "outputs": [
        {
          "internalType": "contract IUniSwapRouter",
          "name": "",
          "type": "address"
        }
      ],
      "stateMutability": "view",
      "type": "function",
      "constant": true
    },
    {
      "inputs": [],
      "name": "weth",
      "outputs": [
        {
          "internalType": "address",
          "name": "",
          "type": "address"
        }
      ],
      "stateMutability": "view",
      "type": "function",
      "constant": true
    },
    {
      "stateMutability": "payable",
      "type": "receive",
      "payable": true
    },
    {
      "inputs": [
        {
          "internalType": "uint256",
          "name": "_amountOut",
          "type": "uint256"
        }
      ],
      "name": "getEthInputAmount",
      "outputs": [
        {
          "internalType": "uint256",
          "name": "_amountIn",
          "type": "uint256"
        }
      ],
      "stateMutability": "payable",
      "type": "function",
      "payable": true
    },
    {
      "inputs": [
        {
          "internalType": "string",
          "name": "_name",
          "type": "string"
        },
        {
          "internalType": "string",
          "name": "_description",
          "type": "string"
        },
        {
          "internalType": "string",
          "name": "_imgHash",
          "type": "string"
        },
        {
          "internalType": "uint256",
          "name": "_fundGoal",
          "type": "uint256"
        },
        {
          "internalType": "uint256",
          "name": "_timeGoal",
          "type": "uint256"
        }
      ],
      "name": "makeProject",
      "outputs": [],
      "stateMutability": "nonpayable",
      "type": "function"
    },
    {
      "inputs": [
        {
          "internalType": "uint256",
          "name": "_id",
          "type": "uint256"
        }
      ],
      "name": "cancel",
      "outputs": [],
      "stateMutability": "nonpayable",
      "type": "function"
    },
    {
      "inputs": [
        {
          "internalType": "uint256",
          "name": "_id",
          "type": "uint256"
        },
        {
          "internalType": "uint256",
          "name": "_amount",
          "type": "uint256"
        },
        {
          "internalType": "uint256",
          "name": "_deadline",
          "type": "uint256"
        }
      ],
      "name": "contribute",
      "outputs": [],
      "stateMutability": "payable",
      "type": "function",
      "payable": true
    },
    {
      "inputs": [
        {
          "internalType": "uint256",
          "name": "_id",
          "type": "uint256"
        }
      ],
      "name": "disburse",
      "outputs": [],
      "stateMutability": "nonpayable",
      "type": "function"
    },
    {
      "inputs": [
        {
          "internalType": "uint256",
          "name": "_id",
          "type": "uint256"
        }
      ],
      "name": "claimRefund",
      "outputs": [],
      "stateMutability": "nonpayable",
      "type": "function"
    }
  ],
  "bytecode": "0x60806040523480156200001157600080fd5b5060405162004687380380620046878339818101604052810190620000379190620001af565b81600160006101000a81548173ffffffffffffffffffffffffffffffffffffffff021916908373ffffffffffffffffffffffffffffffffffffffff16021790555080600281905550836000806101000a81548173ffffffffffffffffffffffffffffffffffffffff021916908373ffffffffffffffffffffffffffffffffffffffff16021790555082600560006101000a81548173ffffffffffffffffffffffffffffffffffffffff021916908373ffffffffffffffffffffffffffffffffffffffff1602179055505050505062000221565b600080fd5b600073ffffffffffffffffffffffffffffffffffffffff82169050919050565b60006200013c826200010f565b9050919050565b6200014e816200012f565b81146200015a57600080fd5b50565b6000815190506200016e8162000143565b92915050565b6000819050919050565b620001898162000174565b81146200019557600080fd5b50565b600081519050620001a9816200017e565b92915050565b60008060008060808587031215620001cc57620001cb6200010a565b5b6000620001dc878288016200015d565b9450506020620001ef878288016200015d565b935050604062000202878288016200015d565b9250506060620002158782880162000198565b91505092959194509250565b61445680620002316000396000f3fe608060405260043610620001035760003560e01c80637d98adaf1162000097578063c31c9c071162000061578063c31c9c071462000324578063c6bbd5a71462000354578063ceb529dc1462000384578063f4b9fa7514620003b2576200010b565b80637d98adaf14620002705780637fd6f15c1462000290578063938a8a7b14620002c0578063bd77ac2c14620002f6576200010b565b80633fc8cef311620000d95780633fc8cef314620001b457806340e58ee514620001e45780635b7baf64146200021257806365e17c9d1462000240576200010b565b8063089fe6aa1462000110578063107046bd146200014057806336fbad261462000184576200010b565b366200010b57005b600080fd5b3480156200011d57600080fd5b5062000128620003e2565b604051620001379190620010f4565b60405180910390f35b3480156200014d57600080fd5b506200016c600480360381019062000166919062001160565b620003e8565b6040516200017b91906200121d565b60405180910390f35b3480156200019157600080fd5b506200019c6200041b565b604051620001ab91906200124b565b60405180910390f35b348015620001c157600080fd5b50620001cc62000421565b604051620001db91906200128d565b60405180910390f35b348015620001f157600080fd5b506200021060048036038101906200020a919062001160565b62000447565b005b3480156200021f57600080fd5b506200023e600480360381019062000238919062001160565b62000562565b005b3480156200024d57600080fd5b50620002586200067c565b6040516200026791906200128d565b60405180910390f35b6200028e6004803603810190620002889190620012aa565b620006a2565b005b3480156200029d57600080fd5b50620002a86200082a565b604051620002b791906200124b565b60405180910390f35b620002de6004803603810190620002d8919062001160565b62000830565b604051620002ed91906200124b565b60405180910390f35b3480156200030357600080fd5b506200032260048036038101906200031c919062001160565b6200092f565b005b3480156200033157600080fd5b506200033c62000a72565b6040516200034b91906200132b565b60405180910390f35b3480156200036157600080fd5b506200036c62000a8a565b6040516200037b91906200136d565b60405180910390f35b3480156200039157600080fd5b50620003b06004803603810190620003aa9190620014ec565b62000aa2565b005b348015620003bf57600080fd5b50620003ca62000d3b565b604051620003d991906200128d565b60405180910390f35b610bb881565b60046020528060005260406000206000915054906101000a900473ffffffffffffffffffffffffffffffffffffffff1681565b60035481565b600560009054906101000a900473ffffffffffffffffffffffffffffffffffffffff1681565b60008060006004600085815260200190815260200160002060009054906101000a900473ffffffffffffffffffffffffffffffffffffffff1673ffffffffffffffffffffffffffffffffffffffff16634c33fe94336040518263ffffffff1660e01b8152600401620004ba91906200128d565b6060604051808303816000875af1158015620004da573d6000803e3d6000fd5b505050506040513d601f19601f82011682018060405250810190620005009190620015e8565b9250925092503373ffffffffffffffffffffffffffffffffffffffff167f7769bfc7786e1deefeb13e6106bf1f23574d6811046097ff1ef0234bc7de2b2c8585858560405162000554949392919062001644565b60405180910390a250505050565b60008060006004600085815260200190815260200160002060009054906101000a900473ffffffffffffffffffffffffffffffffffffffff1673ffffffffffffffffffffffffffffffffffffffff1663bffa55d5336040518263ffffffff1660e01b8152600401620005d591906200128d565b6060604051808303816000875af1158015620005f5573d6000803e3d6000fd5b505050506040513d601f19601f820116820180604052508101906200061b9190620015e8565b9250925092503373ffffffffffffffffffffffffffffffffffffffff16847f477e597a208718170c9c5cc9ed3c792ef08a1848dd79f885b3281a521b87cd4b8585856040516200066e9392919062001691565b60405180910390a350505050565b600160009054906101000a900473ffffffffffffffffffffffffffffffffffffffff1681565b60008211620006e8576040517f08c379a0000000000000000000000000000000000000000000000000000000008152600401620006df9062001755565b60405180910390fd5b600080341115620007075762000702848484333462000d5f565b600190505b60008060006004600088815260200190815260200160002060009054906101000a900473ffffffffffffffffffffffffffffffffffffffff1673ffffffffffffffffffffffffffffffffffffffff1663cc5bfd238733876040518463ffffffff1660e01b81526004016200077e9392919062001794565b6060604051808303816000875af11580156200079e573d6000803e3d6000fd5b505050506040513d601f19601f82011682018060405250810190620007c4919062001802565b9250925092503373ffffffffffffffffffffffffffffffffffffffff16877f15bdb4471fbf8ac2515531c3c435f8bc9f0b7ce41b6af71a8ec8fb2d95242fa985858a866040516200081994939291906200185e565b60405180910390a350505050505050565b60025481565b600080600560009054906101000a900473ffffffffffffffffffffffffffffffffffffffff16905060008060009054906101000a900473ffffffffffffffffffffffffffffffffffffffff16905060006101f49050600073b27308f9f90d607463bb33ea1bebb41c27ce5ab673ffffffffffffffffffffffffffffffffffffffff166330d07f218585858a866040518663ffffffff1660e01b8152600401620008de959493929190620018bc565b6020604051808303816000875af1158015620008fe573d6000803e3d6000fd5b505050506040513d601f19601f8201168201806040525081019062000924919062001919565b945050505050919050565b60008060006004600085815260200190815260200160002060009054906101000a900473ffffffffffffffffffffffffffffffffffffffff1673ffffffffffffffffffffffffffffffffffffffff16638ae37aa9600254600160009054906101000a900473ffffffffffffffffffffffffffffffffffffffff16336040518463ffffffff1660e01b8152600401620009ca939291906200194b565b6060604051808303816000875af1158015620009ea573d6000803e3d6000fd5b505050506040513d601f19601f8201168201806040525081019062000a109190620015e8565b9250925092503373ffffffffffffffffffffffffffffffffffffffff167f2169fbb1a5f2f0f48c8340c6f6aa6043e14e925c1687f018ae1df99ced3a948a8585858560405162000a64949392919062001644565b60405180910390a250505050565b73e592427a0aece92de3edee1f18e0157c0586156481565b73b27308f9f90d607463bb33ea1bebb41c27ce5ab681565b42811162000ae7576040517f08c379a000000000000000000000000000000000000000000000000000000000815260040162000ade90620019fe565b60405180910390fd5b42624f1a0062000af8919062001a4f565b811062000b3c576040517f08c379a000000000000000000000000000000000000000000000000000000000815260040162000b339062001b22565b60405180910390fd5b600085511162000b83576040517f08c379a000000000000000000000000000000000000000000000000000000000815260040162000b7a9062001b94565b60405180910390fd5b600084511162000bca576040517f08c379a000000000000000000000000000000000000000000000000000000000815260040162000bc19062001c06565b60405180910390fd5b600083511162000c11576040517f08c379a000000000000000000000000000000000000000000000000000000000815260040162000c089062001c78565b60405180910390fd5b60008585853386864260008054906101000a900473ffffffffffffffffffffffffffffffffffffffff1660405162000c4990620010c6565b62000c5c98979695949392919062001d1c565b604051809103906000f08015801562000c79573d6000803e3d6000fd5b5090506003600081548092919062000c919062001dbf565b91905055508060046000600354815260200190815260200160002060006101000a81548173ffffffffffffffffffffffffffffffffffffffff021916908373ffffffffffffffffffffffffffffffffffffffff1602179055507fec9855581b0348e5c86478107f0b8e1341c8e0347ccd0beedda1f43fa7c0bf8d6003548787873388884260405162000d2b98979695949392919062001e0d565b60405180910390a1505050505050565b60008054906101000a900473ffffffffffffffffffffffffffffffffffffffff1681565b6000841162000da5576040517f08c379a000000000000000000000000000000000000000000000000000000000815260040162000d9c9062001f26565b60405180910390fd5b6000604051806101000160405280600560009054906101000a900473ffffffffffffffffffffffffffffffffffffffff1673ffffffffffffffffffffffffffffffffffffffff16815260200160008054906101000a900473ffffffffffffffffffffffffffffffffffffffff1673ffffffffffffffffffffffffffffffffffffffff168152602001610bb862ffffff1681526020016004600089815260200190815260200160002060009054906101000a900473ffffffffffffffffffffffffffffffffffffffff1673ffffffffffffffffffffffffffffffffffffffff168152602001858152602001868152602001838152602001600073ffffffffffffffffffffffffffffffffffffffff168152509050600073e592427a0aece92de3edee1f18e0157c0586156473ffffffffffffffffffffffffffffffffffffffff1663db3e219884846040518363ffffffff1660e01b815260040162000f0a91906200203e565b60206040518083038185885af115801562000f29573d6000803e3d6000fd5b50505050506040513d601f19601f8201168201806040525081019062000f50919062001919565b905073e592427a0aece92de3edee1f18e0157c0586156473ffffffffffffffffffffffffffffffffffffffff166312210e8a6040518163ffffffff1660e01b8152600401600060405180830381600087803b15801562000faf57600080fd5b505af115801562000fc4573d6000803e3d6000fd5b5050505060008473ffffffffffffffffffffffffffffffffffffffff164760405162000ff09062002091565b60006040518083038185875af1925050503d80600081146200102f576040519150601f19603f3d011682016040523d82523d6000602084013e62001034565b606091505b50509050806200107b576040517f08c379a00000000000000000000000000000000000000000000000000000000081526004016200107290620020f8565b60405180910390fd5b7f2de0b44f34d962177c0915f7272d238b0eb10977076b6b62618c1624a067cc8b8886898786604051620010b49594939291906200211a565b60405180910390a15050505050505050565b6122a9806200217883390190565b600062ffffff82169050919050565b620010ee81620010d4565b82525050565b60006020820190506200110b6000830184620010e3565b92915050565b6000604051905090565b600080fd5b600080fd5b6000819050919050565b6200113a8162001125565b81146200114657600080fd5b50565b6000813590506200115a816200112f565b92915050565b6000602082840312156200117957620011786200111b565b5b6000620011898482850162001149565b91505092915050565b600073ffffffffffffffffffffffffffffffffffffffff82169050919050565b6000819050919050565b6000620011dd620011d7620011d18462001192565b620011b2565b62001192565b9050919050565b6000620011f182620011bc565b9050919050565b60006200120582620011e4565b9050919050565b6200121781620011f8565b82525050565b60006020820190506200123460008301846200120c565b92915050565b620012458162001125565b82525050565b60006020820190506200126260008301846200123a565b92915050565b6000620012758262001192565b9050919050565b620012878162001268565b82525050565b6000602082019050620012a460008301846200127c565b92915050565b600080600060608486031215620012c657620012c56200111b565b5b6000620012d68682870162001149565b9350506020620012e98682870162001149565b9250506040620012fc8682870162001149565b9150509250925092565b60006200131382620011e4565b9050919050565b620013258162001306565b82525050565b60006020820190506200134260008301846200131a565b92915050565b60006200135582620011e4565b9050919050565b620013678162001348565b82525050565b60006020820190506200138460008301846200135c565b92915050565b600080fd5b600080fd5b6000601f19601f8301169050919050565b7f4e487b7100000000000000000000000000000000000000000000000000000000600052604160045260246000fd5b620013df8262001394565b810181811067ffffffffffffffff82111715620014015762001400620013a5565b5b80604052505050565b60006200141662001111565b9050620014248282620013d4565b919050565b600067ffffffffffffffff821115620014475762001446620013a5565b5b620014528262001394565b9050602081019050919050565b82818337600083830152505050565b6000620014856200147f8462001429565b6200140a565b905082815260208101848484011115620014a457620014a36200138f565b5b620014b18482856200145f565b509392505050565b600082601f830112620014d157620014d06200138a565b5b8135620014e38482602086016200146e565b91505092915050565b600080600080600060a086880312156200150b576200150a6200111b565b5b600086013567ffffffffffffffff8111156200152c576200152b62001120565b5b6200153a88828901620014b9565b955050602086013567ffffffffffffffff8111156200155e576200155d62001120565b5b6200156c88828901620014b9565b945050604086013567ffffffffffffffff81111562001590576200158f62001120565b5b6200159e88828901620014b9565b9350506060620015b18882890162001149565b9250506080620015c48882890162001149565b9150509295509295909350565b600081519050620015e2816200112f565b92915050565b6000806000606084860312156200160457620016036200111b565b5b60006200161486828701620015d1565b93505060206200162786828701620015d1565b92505060406200163a86828701620015d1565b9150509250925092565b60006080820190506200165b60008301876200123a565b6200166a60208301866200123a565b6200167960408301856200123a565b6200168860608301846200123a565b95945050505050565b6000606082019050620016a860008301866200123a565b620016b760208301856200123a565b620016c660408301846200123a565b949350505050565b600082825260208201905092915050565b7f4572726f722c2044414920616d6f756e74206d7573742062652067726561746560008201527f72207468616e2030000000000000000000000000000000000000000000000000602082015250565b60006200173d602883620016ce565b91506200174a82620016df565b604082019050919050565b6000602082019050818103600083015262001770816200172e565b9050919050565b60008115159050919050565b6200178e8162001777565b82525050565b6000606082019050620017ab60008301866200123a565b620017ba60208301856200127c565b620017c9604083018462001783565b949350505050565b620017dc8162001777565b8114620017e857600080fd5b50565b600081519050620017fc81620017d1565b92915050565b6000806000606084860312156200181e576200181d6200111b565b5b60006200182e86828701620017eb565b93505060206200184186828701620015d1565b92505060406200185486828701620015d1565b9150509250925092565b600060808201905062001875600083018762001783565b6200188460208301866200123a565b6200189360408301856200123a565b620018a260608301846200123a565b95945050505050565b620018b68162001192565b82525050565b600060a082019050620018d360008301886200127c565b620018e260208301876200127c565b620018f16040830186620010e3565b6200190060608301856200123a565b6200190f6080830184620018ab565b9695505050505050565b6000602082840312156200193257620019316200111b565b5b60006200194284828501620015d1565b91505092915050565b60006060820190506200196260008301866200123a565b6200197160208301856200127c565b6200198060408301846200127c565b949350505050565b7f4572726f722c2074696d6520676f616c206d75737420657869737420696e207460008201527f6865206675747572650000000000000000000000000000000000000000000000602082015250565b6000620019e6602983620016ce565b9150620019f38262001988565b604082019050919050565b6000602082019050818103600083015262001a1981620019d7565b9050919050565b7f4e487b7100000000000000000000000000000000000000000000000000000000600052601160045260246000fd5b600062001a5c8262001125565b915062001a698362001125565b9250827fffffffffffffffffffffffffffffffffffffffffffffffffffffffffffffffff0382111562001aa15762001aa062001a20565b5b828201905092915050565b7f4572726f722c2074696d6520676f616c206d757374206265206c65737320746860008201527f616e203630206461797300000000000000000000000000000000000000000000602082015250565b600062001b0a602a83620016ce565b915062001b178262001aac565b604082019050919050565b6000602082019050818103600083015262001b3d8162001afb565b9050919050565b7f4572726f722c206e616d65206d75737420657869737400000000000000000000600082015250565b600062001b7c601683620016ce565b915062001b898262001b44565b602082019050919050565b6000602082019050818103600083015262001baf8162001b6d565b9050919050565b7f4572726f722c206465736372697074696f6e206d757374206578697374000000600082015250565b600062001bee601d83620016ce565b915062001bfb8262001bb6565b602082019050919050565b6000602082019050818103600083015262001c218162001bdf565b9050919050565b7f4572726f722c20696d6167652068617368206d75737420657869737400000000600082015250565b600062001c60601c83620016ce565b915062001c6d8262001c28565b602082019050919050565b6000602082019050818103600083015262001c938162001c51565b9050919050565b600081519050919050565b60005b8381101562001cc557808201518184015260208101905062001ca8565b8381111562001cd5576000848401525b50505050565b600062001ce88262001c9a565b62001cf48185620016ce565b935062001d0681856020860162001ca5565b62001d118162001394565b840191505092915050565b600061010082019050818103600083015262001d39818b62001cdb565b9050818103602083015262001d4f818a62001cdb565b9050818103604083015262001d65818962001cdb565b905062001d7660608301886200127c565b62001d8560808301876200123a565b62001d9460a08301866200123a565b62001da360c08301856200123a565b62001db260e08301846200127c565b9998505050505050505050565b600062001dcc8262001125565b91507fffffffffffffffffffffffffffffffffffffffffffffffffffffffffffffffff82141562001e025762001e0162001a20565b5b600182019050919050565b60006101008201905062001e25600083018b6200123a565b818103602083015262001e39818a62001cdb565b9050818103604083015262001e4f818962001cdb565b9050818103606083015262001e65818862001cdb565b905062001e7660808301876200127c565b62001e8560a08301866200123a565b62001e9460c08301856200123a565b62001ea360e08301846200123a565b9998505050505050505050565b7f4572726f722c2044414920616d6f756e74206f7574206d75737420626520677260008201527f6561746572207468616e20300000000000000000000000000000000000000000602082015250565b600062001f0e602c83620016ce565b915062001f1b8262001eb0565b604082019050919050565b6000602082019050818103600083015262001f418162001eff565b9050919050565b62001f538162001268565b82525050565b62001f6481620010d4565b82525050565b62001f758162001125565b82525050565b62001f868162001192565b82525050565b6101008201600082015162001fa5600085018262001f48565b50602082015162001fba602085018262001f48565b50604082015162001fcf604085018262001f59565b50606082015162001fe4606085018262001f48565b50608082015162001ff9608085018262001f6a565b5060a08201516200200e60a085018262001f6a565b5060c08201516200202360c085018262001f6a565b5060e08201516200203860e085018262001f7b565b50505050565b60006101008201905062002056600083018462001f8c565b92915050565b600081905092915050565b50565b6000620020796000836200205c565b9150620020868262002067565b600082019050919050565b60006200209e826200206a565b9150819050919050565b7f526566756e64206661696c656400000000000000000000000000000000000000600082015250565b6000620020e0600d83620016ce565b9150620020ed82620020a8565b602082019050919050565b600060208201905081810360008301526200211381620020d1565b9050919050565b600060a0820190506200213160008301886200123a565b6200214060208301876200127c565b6200214f60408301866200123a565b6200215e60608301856200123a565b6200216d60808301846200123a565b969550505050505056fe60806040523480156200001157600080fd5b50604051620022a9380380620022a9833981810160405281019062000037919062000454565b87600290805190602001906200004f92919062000167565b5086600390805190602001906200006892919062000167565b5085600490805190602001906200008192919062000167565b5084600560006101000a81548173ffffffffffffffffffffffffffffffffffffffff021916908373ffffffffffffffffffffffffffffffffffffffff160217905550836006819055508260078190555081600981905550806000806101000a81548173ffffffffffffffffffffffffffffffffffffffff021916908373ffffffffffffffffffffffffffffffffffffffff16021790555033600160006101000a81548173ffffffffffffffffffffffffffffffffffffffff021916908373ffffffffffffffffffffffffffffffffffffffff1602179055505050505050505050620005df565b8280546200017590620005a9565b90600052602060002090601f016020900481019282620001995760008555620001e5565b82601f10620001b457805160ff1916838001178555620001e5565b82800160010185558215620001e5579182015b82811115620001e4578251825591602001919060010190620001c7565b5b509050620001f49190620001f8565b5090565b5b8082111562000213576000816000905550600101620001f9565b5090565b6000604051905090565b600080fd5b600080fd5b600080fd5b600080fd5b6000601f19601f8301169050919050565b7f4e487b7100000000000000000000000000000000000000000000000000000000600052604160045260246000fd5b620002808262000235565b810181811067ffffffffffffffff82111715620002a257620002a162000246565b5b80604052505050565b6000620002b762000217565b9050620002c5828262000275565b919050565b600067ffffffffffffffff821115620002e857620002e762000246565b5b620002f38262000235565b9050602081019050919050565b60005b838110156200032057808201518184015260208101905062000303565b8381111562000330576000848401525b50505050565b60006200034d6200034784620002ca565b620002ab565b9050828152602081018484840111156200036c576200036b62000230565b5b6200037984828562000300565b509392505050565b600082601f8301126200039957620003986200022b565b5b8151620003ab84826020860162000336565b91505092915050565b600073ffffffffffffffffffffffffffffffffffffffff82169050919050565b6000620003e182620003b4565b9050919050565b620003f381620003d4565b8114620003ff57600080fd5b50565b6000815190506200041381620003e8565b92915050565b6000819050919050565b6200042e8162000419565b81146200043a57600080fd5b50565b6000815190506200044e8162000423565b92915050565b600080600080600080600080610100898b03121562000478576200047762000221565b5b600089015167ffffffffffffffff81111562000499576200049862000226565b5b620004a78b828c0162000381565b985050602089015167ffffffffffffffff811115620004cb57620004ca62000226565b5b620004d98b828c0162000381565b975050604089015167ffffffffffffffff811115620004fd57620004fc62000226565b5b6200050b8b828c0162000381565b96505060606200051e8b828c0162000402565b9550506080620005318b828c016200043d565b94505060a0620005448b828c016200043d565b93505060c0620005578b828c016200043d565b92505060e06200056a8b828c0162000402565b9150509295985092959890939650565b7f4e487b7100000000000000000000000000000000000000000000000000000000600052602260045260246000fd5b60006002820490506001821680620005c257607f821691505b60208210811415620005d957620005d86200057a565b5b50919050565b611cba80620005ef6000396000f3fe608060405234801561001057600080fd5b50600436106101035760003560e01c80638d41c1e511610097578063cc5bfd2311610066578063cc5bfd23146102bf578063dfb8dca9146102f1578063e15fa5b21461030f578063f4b9fa751461032d57610104565b80638d41c1e5146102215780639a82a09a14610251578063b80777ea1461026f578063bffa55d51461028d57610104565b80634c33fe94116100d35780634c33fe94146101815780635a41c855146101b35780637284e416146101d15780638ae37aa9146101ef57610104565b8062821de31461010957806302d05d3f1461012757806306fdde0314610145578063309561d91461016357610104565b5b600080fd5b61011161034b565b60405161011e91906111b4565b60405180910390f35b61012f610371565b60405161013c91906111b4565b60405180910390f35b61014d610397565b60405161015a9190611268565b60405180910390f35b61016b610425565b60405161017891906112a3565b60405180910390f35b61019b600480360381019061019691906112ef565b61042b565b6040516101aa9392919061131c565b60405180910390f35b6101bb6105d4565b6040516101c89190611268565b60405180910390f35b6101d9610662565b6040516101e69190611268565b60405180910390f35b6102096004803603810190610204919061137f565b6106f0565b6040516102189392919061131c565b60405180910390f35b61023b600480360381019061023691906112ef565b610a96565b60405161024891906112a3565b60405180910390f35b610259610aae565b60405161026691906113ed565b60405180910390f35b610277610ac1565b60405161028491906112a3565b60405180910390f35b6102a760048036038101906102a291906112ef565b610ac7565b6040516102b69392919061131c565b60405180910390f35b6102d960048036038101906102d49190611434565b610d80565b6040516102e893929190611487565b60405180910390f35b6102f96110ce565b60405161030691906112a3565b60405180910390f35b6103176110d4565b60405161032491906112a3565b60405180910390f35b6103356110da565b604051610342919061151d565b60405180910390f35b600160009054906101000a900473ffffffffffffffffffffffffffffffffffffffff1681565b600560009054906101000a900473ffffffffffffffffffffffffffffffffffffffff1681565b600280546103a490611567565b80601f01602080910402602001604051908101604052809291908181526020018280546103d090611567565b801561041d5780601f106103f25761010080835404028352916020019161041d565b820191906000526020600020905b81548152906001019060200180831161040057829003601f168201915b505050505081565b60075481565b60008060003373ffffffffffffffffffffffffffffffffffffffff16600160009054906101000a900473ffffffffffffffffffffffffffffffffffffffff1673ffffffffffffffffffffffffffffffffffffffff16146104c0576040517f08c379a00000000000000000000000000000000000000000000000000000000081526004016104b79061160b565b60405180910390fd5b6104c86110fe565b610507576040517f08c379a00000000000000000000000000000000000000000000000000000000081526004016104fe90611677565b60405180910390fd5b6105108461110a565b61054f576040517f08c379a000000000000000000000000000000000000000000000000000000000815260040161054690611709565b60405180910390fd5b6001600a60006101000a81548160ff0219169083151502179055508373ffffffffffffffffffffffffffffffffffffffff167f49f50fca4a590bc780b00eea7d6be105e57280946507e6075bc777b9645d6d03600654600754426040516105b89392919061131c565b60405180910390a2600654600754429250925092509193909250565b600480546105e190611567565b80601f016020809104026020016040519081016040528092919081815260200182805461060d90611567565b801561065a5780601f1061062f5761010080835404028352916020019161065a565b820191906000526020600020905b81548152906001019060200180831161063d57829003601f168201915b505050505081565b6003805461066f90611567565b80601f016020809104026020016040519081016040528092919081815260200182805461069b90611567565b80156106e85780601f106106bd576101008083540402835291602001916106e8565b820191906000526020600020905b8154815290600101906020018083116106cb57829003601f168201915b505050505081565b60008060003373ffffffffffffffffffffffffffffffffffffffff16600160009054906101000a900473ffffffffffffffffffffffffffffffffffffffff1673ffffffffffffffffffffffffffffffffffffffff1614610785576040517f08c379a000000000000000000000000000000000000000000000000000000000815260040161077c9061160b565b60405180910390fd5b600a60009054906101000a900460ff16156107d5576040517f08c379a00000000000000000000000000000000000000000000000000000000081526004016107cc90611775565b60405180910390fd5b6107de8461110a565b61081d576040517f08c379a000000000000000000000000000000000000000000000000000000000815260040161081490611807565b60405180910390fd5b6108256110fe565b15610865576040517f08c379a000000000000000000000000000000000000000000000000000000000815260040161085c90611873565b60405180910390fd5b61086d611164565b6108ac576040517f08c379a00000000000000000000000000000000000000000000000000000000081526004016108a3906118df565b60405180910390fd5b60006064876008546108be919061192e565b6108c891906119b7565b90506000816008546108da91906119e8565b905060086000905560008054906101000a900473ffffffffffffffffffffffffffffffffffffffff1673ffffffffffffffffffffffffffffffffffffffff1663a9059cbb88846040518363ffffffff1660e01b815260040161093d929190611a1c565b6020604051808303816000875af115801561095c573d6000803e3d6000fd5b505050506040513d601f19601f820116820180604052508101906109809190611a5a565b61098957600080fd5b60008054906101000a900473ffffffffffffffffffffffffffffffffffffffff1673ffffffffffffffffffffffffffffffffffffffff1663a9059cbb87836040518363ffffffff1660e01b81526004016109e4929190611a1c565b6020604051808303816000875af1158015610a03573d6000803e3d6000fd5b505050506040513d601f19601f82011682018060405250810190610a279190611a5a565b610a3057600080fd5b8573ffffffffffffffffffffffffffffffffffffffff167f52948de0cc413a7d554dc2b2a5896a37041208572e8a0b0dbf938e6ec8ea376e828442604051610a7a9392919061131c565b60405180910390a2808242945094509450505093509350939050565b600b6020528060005260406000206000915090505481565b600a60009054906101000a900460ff1681565b60095481565b60008060003373ffffffffffffffffffffffffffffffffffffffff16600160009054906101000a900473ffffffffffffffffffffffffffffffffffffffff1673ffffffffffffffffffffffffffffffffffffffff1614610b5c576040517f08c379a0000000000000000000000000000000000000000000000000000000008152600401610b539061160b565b60405180910390fd5b6000610b666110fe565b158015610b785750610b76611164565b155b90508080610b925750600a60009054906101000a900460ff165b610bd1576040517f08c379a0000000000000000000000000000000000000000000000000000000008152600401610bc890611b1f565b60405180910390fd5b6000600b60008773ffffffffffffffffffffffffffffffffffffffff1673ffffffffffffffffffffffffffffffffffffffff168152602001908152602001600020549050600b60008773ffffffffffffffffffffffffffffffffffffffff1673ffffffffffffffffffffffffffffffffffffffff168152602001908152602001600020600090558060086000828254610c6a91906119e8565b9250508190555060008054906101000a900473ffffffffffffffffffffffffffffffffffffffff1673ffffffffffffffffffffffffffffffffffffffff1663a9059cbb87836040518363ffffffff1660e01b8152600401610ccc929190611a1c565b6020604051808303816000875af1158015610ceb573d6000803e3d6000fd5b505050506040513d601f19601f82011682018060405250810190610d0f9190611a5a565b610d1857600080fd5b8573ffffffffffffffffffffffffffffffffffffffff167fb7048c2ad36aadee977bb16b4543a18866044d27a2ca753e1c7dbcfa7d7a69626008548342604051610d649392919061131c565b60405180910390a2600854814294509450945050509193909250565b60008060003373ffffffffffffffffffffffffffffffffffffffff16600160009054906101000a900473ffffffffffffffffffffffffffffffffffffffff1673ffffffffffffffffffffffffffffffffffffffff1614610e15576040517f08c379a0000000000000000000000000000000000000000000000000000000008152600401610e0c9061160b565b60405180910390fd5b6000600a60009054906101000a900460ff1615610e67576040517f08c379a0000000000000000000000000000000000000000000000000000000008152600401610e5e90611775565b60405180910390fd5b610e708661110a565b15610eb0576040517f08c379a0000000000000000000000000000000000000000000000000000000008152600401610ea790611bd7565b60405180910390fd5b610eb86110fe565b610ef7576040517f08c379a0000000000000000000000000000000000000000000000000000000008152600401610eee90611677565b60405180910390fd5b6000600b60008873ffffffffffffffffffffffffffffffffffffffff1673ffffffffffffffffffffffffffffffffffffffff168152602001908152602001600020541415610f4457600190505b8660086000828254610f569190611bf7565b9250508190555086600b60008873ffffffffffffffffffffffffffffffffffffffff1673ffffffffffffffffffffffffffffffffffffffff1681526020019081526020016000206000828254610fac9190611bf7565b92505081905550846110625760008054906101000a900473ffffffffffffffffffffffffffffffffffffffff1673ffffffffffffffffffffffffffffffffffffffff166323b872dd87308a6040518463ffffffff1660e01b815260040161101593929190611c4d565b6020604051808303816000875af1158015611034573d6000803e3d6000fd5b505050506040513d601f19601f820116820180604052508101906110589190611a5a565b61106157600080fd5b5b8015158673ffffffffffffffffffffffffffffffffffffffff167fe34dca9f0d19574214d3cdef65ff6c81ac02be4a10541ca76d2b3b05902626406008548a426040516110b19392919061131c565b60405180910390a380600854429350935093505093509350939050565b60085481565b60065481565b60008054906101000a900473ffffffffffffffffffffffffffffffffffffffff1681565b60004260075411905090565b6000600560009054906101000a900473ffffffffffffffffffffffffffffffffffffffff1673ffffffffffffffffffffffffffffffffffffffff168273ffffffffffffffffffffffffffffffffffffffff16149050919050565b60006006546008541015905090565b600073ffffffffffffffffffffffffffffffffffffffff82169050919050565b600061119e82611173565b9050919050565b6111ae81611193565b82525050565b60006020820190506111c960008301846111a5565b92915050565b600081519050919050565b600082825260208201905092915050565b60005b838110156112095780820151818401526020810190506111ee565b83811115611218576000848401525b50505050565b6000601f19601f8301169050919050565b600061123a826111cf565b61124481856111da565b93506112548185602086016111eb565b61125d8161121e565b840191505092915050565b60006020820190508181036000830152611282818461122f565b905092915050565b6000819050919050565b61129d8161128a565b82525050565b60006020820190506112b86000830184611294565b92915050565b600080fd5b6112cc81611193565b81146112d757600080fd5b50565b6000813590506112e9816112c3565b92915050565b600060208284031215611305576113046112be565b5b6000611313848285016112da565b91505092915050565b60006060820190506113316000830186611294565b61133e6020830185611294565b61134b6040830184611294565b949350505050565b61135c8161128a565b811461136757600080fd5b50565b60008135905061137981611353565b92915050565b600080600060608486031215611398576113976112be565b5b60006113a68682870161136a565b93505060206113b7868287016112da565b92505060406113c8868287016112da565b9150509250925092565b60008115159050919050565b6113e7816113d2565b82525050565b600060208201905061140260008301846113de565b92915050565b611411816113d2565b811461141c57600080fd5b50565b60008135905061142e81611408565b92915050565b60008060006060848603121561144d5761144c6112be565b5b600061145b8682870161136a565b935050602061146c868287016112da565b925050604061147d8682870161141f565b9150509250925092565b600060608201905061149c60008301866113de565b6114a96020830185611294565b6114b66040830184611294565b949350505050565b6000819050919050565b60006114e36114de6114d984611173565b6114be565b611173565b9050919050565b60006114f5826114c8565b9050919050565b6000611507826114ea565b9050919050565b611517816114fc565b82525050565b6000602082019050611532600083018461150e565b92915050565b7f4e487b7100000000000000000000000000000000000000000000000000000000600052602260045260246000fd5b6000600282049050600182168061157f57607f821691505b6020821081141561159357611592611538565b5b50919050565b7f4572726f722c206f6e6c7920706172656e7420636f6e74726163742063616e2060008201527f696e7465726163742077697468207468697320636f6e74726163740000000000602082015250565b60006115f5603b836111da565b915061160082611599565b604082019050919050565b60006020820190508181036000830152611624816115e8565b9050919050565b7f4572726f722c2070726f6a656374206d757374206265206f70656e0000000000600082015250565b6000611661601b836111da565b915061166c8261162b565b602082019050919050565b6000602082019050818103600083015261169081611654565b9050919050565b7f4572726f722c206f6e6c792063726561746f722063616e2063616e63656c207460008201527f686569722070726f6a6563740000000000000000000000000000000000000000602082015250565b60006116f3602c836111da565b91506116fe82611697565b604082019050919050565b60006020820190508181036000830152611722816116e6565b9050919050565b7f4572726f722c2070726f6a6563742063616e63656c6c65640000000000000000600082015250565b600061175f6018836111da565b915061176a82611729565b602082019050919050565b6000602082019050818103600083015261178e81611752565b9050919050565b7f4572726f722c206f6e6c792063726561746f722063616e20646973627572736560008201527f20636f6c6c65637465642070726f6a6563742066756e64730000000000000000602082015250565b60006117f16038836111da565b91506117fc82611795565b604082019050919050565b60006020820190508181036000830152611820816117e4565b9050919050565b7f4572726f722c2070726f6a656374207374696c6c206f70656e00000000000000600082015250565b600061185d6019836111da565b915061186882611827565b602082019050919050565b6000602082019050818103600083015261188c81611850565b9050919050565b7f4572726f722c2070726f6a656374206e6f742066756c6c7946756e6465640000600082015250565b60006118c9601e836111da565b91506118d482611893565b602082019050919050565b600060208201905081810360008301526118f8816118bc565b9050919050565b7f4e487b7100000000000000000000000000000000000000000000000000000000600052601160045260246000fd5b60006119398261128a565b91506119448361128a565b9250817fffffffffffffffffffffffffffffffffffffffffffffffffffffffffffffffff048311821515161561197d5761197c6118ff565b5b828202905092915050565b7f4e487b7100000000000000000000000000000000000000000000000000000000600052601260045260246000fd5b60006119c28261128a565b91506119cd8361128a565b9250826119dd576119dc611988565b5b828204905092915050565b60006119f38261128a565b91506119fe8361128a565b925082821015611a1157611a106118ff565b5b828203905092915050565b6000604082019050611a3160008301856111a5565b611a3e6020830184611294565b9392505050565b600081519050611a5481611408565b92915050565b600060208284031215611a7057611a6f6112be565b5b6000611a7e84828501611a45565b91505092915050565b7f4572726f722c206e6f20726566756e647320756e6c6573732070726f6a65637460008201527f20686173206265656e2063616e63656c6c6564206f7220646964206e6f74206d60208201527f6565742066756e64696e6720676f616c00000000000000000000000000000000604082015250565b6000611b096050836111da565b9150611b1482611a87565b606082019050919050565b60006020820190508181036000830152611b3881611afc565b9050919050565b7f4572726f722c2063726561746f727320617265206e6f7420616c6c6f7765642060008201527f746f206164642066756e647320746f207468656972206f776e2070726f6a656360208201527f7473000000000000000000000000000000000000000000000000000000000000604082015250565b6000611bc16042836111da565b9150611bcc82611b3f565b606082019050919050565b60006020820190508181036000830152611bf081611bb4565b9050919050565b6000611c028261128a565b9150611c0d8361128a565b9250827fffffffffffffffffffffffffffffffffffffffffffffffffffffffffffffffff03821115611c4257611c416118ff565b5b828201905092915050565b6000606082019050611c6260008301866111a5565b611c6f60208301856111a5565b611c7c6040830184611294565b94935050505056fea2646970667358221220715ef951d9fa7e2a63c70f1bc41df485009dc5e407a41d5bad9a36ed04d5e02f64736f6c634300080a0033a2646970667358221220812876ce5302e4d02c5c5213e0201e892aaad0bcda1aafe7bb864ab873a03e4d64736f6c634300080a0033",
  "immutableReferences": {},
  "source": "// SPDX-License-Identifier: MIT\npragma solidity ^0.8.1;\npragma abicoder v2;\n\nimport '@uniswap/v3-periphery/contracts/interfaces/ISwapRouter.sol';\nimport '@uniswap/v3-periphery/contracts/interfaces/IQuoter.sol';\n\ninterface IUniSwapRouter is ISwapRouter {\n    function refundETH() external payable;\n}\nimport \"./Project.sol\"; \n\ncontract Crowdfunder {\n\taddress public dai; \n\taddress public feeAccount; // the account that receives transfer fees\n\tuint256 public feePercent; // the fee percentage\n\tuint256 public projectCount;\n\tmapping(uint256 => Project) public projects;\n\tuint24 public constant poolFee = 3000;\n    address public weth;\n    IUniSwapRouter public constant swapRouter = IUniSwapRouter(0xE592427A0AEce92De3Edee1F18E0157C05861564);\n    IQuoter public constant quoter = IQuoter(0xb27308f9F90D607463bb33eA1BeBb41C27CE5AB6);\n\tevent Converted (\n\t\tuint256 id,\n        address user,\n        uint256 amountOut,\n        uint256 amountInMaximum,\n        uint256 amountIn\n    );\n\tevent ProjectMade (\n\t\tuint256 id,\n\t\tstring name,\n\t\tstring description,\n\t\tstring imgHash,\n\t\taddress creator,\n\t\tuint256 fundGoal,\n\t\tuint256 timeGoal,\n\t\tuint256 timestamp\n\t);\n\tevent Cancel (\n\t\tuint256 id,\n\t\taddress indexed creator,\n\t\tuint256 fundGoal,\n\t\tuint256 timeGoal,\n\t\tuint256 timestamp\t\n\t);\n\tevent Contribution (\n\t\tuint256 indexed id,\n\t\taddress indexed supporter,\n\t\tbool newSupporter,\n\t\tuint256 raisedFunds,\n\t\tuint256 fundAmount,\t\n\t\tuint256 timestamp\t\t\n\t);\n\tevent Disburse (\n\t\tuint256 id,\n\t\taddress indexed creator,\n\t\tuint256 disburseAmount,\n\t\tuint256 feeAmount,\n\t\tuint256 timestamp\n\t);\n\tevent Refund (\n\t\tuint256 indexed id,\n\t\taddress indexed supporter,\n\t\tuint256 raisedFunds,\n\t\tuint256 refundAmount,\n\t\tuint256 timestamp\t\n\t);\n\n\n\tconstructor (address _dai, address _weth, address _feeAccount, uint256 _feePercent) {\n\t\tfeeAccount = _feeAccount;\n\t\tfeePercent = _feePercent;\n\t\tdai = _dai;\n\t\tweth = _weth;\n\t}\n\n    // Used to accept swapRouter refund \n    receive() external payable {} \n    \n    function getEthInputAmount(uint256 _amountOut) external payable returns(uint256 _amountIn) {\n        address _tokenIn = weth;\n        address _tokenOut = dai;\n        uint24 _fee = 500;\n        uint160 sqrtPriceLimitX96 = 0;\n        _amountIn = quoter.quoteExactOutputSingle(\n            _tokenIn,\n            _tokenOut,\n            _fee,\n            _amountOut,\n            sqrtPriceLimitX96\n        );\n    }\n\tfunction convertEthToExactDai(uint256 _id,uint256 _daiAmountOut, uint256 _deadline, address _user, uint256 _maxEthAmountIn) internal {\n        require(_daiAmountOut > 0, \"Error, DAI amount out must be greater than 0\");\n        ISwapRouter.ExactOutputSingleParams memory params =\n            ISwapRouter.ExactOutputSingleParams({\n                tokenIn: weth,\n                tokenOut: dai,\n                fee: poolFee,\n                recipient: address(projects[_id]),\n                deadline: _deadline,\n                amountOut: _daiAmountOut,\n                amountInMaximum: _maxEthAmountIn,\n                sqrtPriceLimitX96: 0\n            });\n\n        uint256 _amountIn = swapRouter.exactOutputSingle{value: _maxEthAmountIn}(params);\n        swapRouter.refundETH();\n        // Send the refunded ETH back to sender\n        (bool success, ) = _user.call{value: address(this).balance }('');\n        require(success, \"Refund failed\");\n        emit Converted (_id,_user, _daiAmountOut, _maxEthAmountIn, _amountIn);\n    }\n    function makeProject(string memory _name, string memory _description, string memory _imgHash, uint256 _fundGoal, uint256 _timeGoal) external {\n        require(_timeGoal > block.timestamp, 'Error, time goal must exist in the future');\n\t\trequire(_timeGoal < 60 days + block.timestamp, 'Error, time goal must be less than 60 days');\n\t\trequire(bytes(_name).length > 0, 'Error, name must exist');\n\t\trequire(bytes(_description).length > 0, 'Error, description must exist');\n\t\trequire(bytes(_imgHash).length > 0, 'Error, image hash must exist');\n\t\tProject project = new Project(_name, _description, _imgHash, address(msg.sender), _fundGoal, _timeGoal, block.timestamp, dai);\n\t\tprojectCount ++;\n\t\tprojects[projectCount] = project;\n\t\temit ProjectMade(projectCount, _name, _description, _imgHash, msg.sender, _fundGoal, _timeGoal, block.timestamp);\n    }\n\n\tfunction cancel(uint256 _id) external {\n\t    (uint256 _fundGoal, uint256 _timeGoal, uint256 _timestamp) = projects[_id].cancel(msg.sender);\n\t\temit Cancel(_id, msg.sender, _fundGoal, _timeGoal, _timestamp);\n\t}\n\n\tfunction contribute(uint256 _id, uint256 _amount, uint256 _deadline) external payable {\n\t\trequire(_amount > 0, 'Error, DAI amount must be greater than 0');\n\t\tbool swapped;\n\t\tif(msg.value > 0) {\n\t\t\tconvertEthToExactDai(_id,_amount, _deadline, msg.sender, msg.value);\n\t\t\tswapped = true;\n\t\t}\n\t    (bool _newSupporter, uint256 _raisedFunds, uint256 _timestamp) = projects[_id].contribute(_amount, msg.sender, swapped);\n\t\temit Contribution (_id, msg.sender, _newSupporter, _raisedFunds, _amount, _timestamp);\t\n\t}\n\n\tfunction disburse(uint256 _id) external {\n        (uint256 _disburseAmount, uint256 _feeAmount, uint256 _timestamp) = projects[_id].disburse(feePercent, feeAccount, msg.sender);  \n\t\temit Disburse(_id, msg.sender, _disburseAmount, _feeAmount, _timestamp);\n\t}\n\n\tfunction claimRefund(uint256 _id) external {\n\t    (uint256 _raisedFunds, uint256 _supporterFunds, uint256 _timestamp) = projects[_id].claimRefund(msg.sender);\n\t\temit Refund(_id, msg.sender, _raisedFunds, _supporterFunds, _timestamp);\n\t}\n}\n\n// Place timeGoal and fundingGoal limits\n// timeGoal limit would depend on fundgoal\n// timeGoalLimit == fundGoal*C\n// timeGoalLimit would not depend on the fundGoal digit number\n// change _amount data type from uint256 to uint16\n",
  "sourcePath": "/Users/ethancemer/Documents/make-it-happen/src/contracts/Crowdfunder.sol",
  "compiler": {
    "name": "solc",
    "version": "0.8.10+commit.fc410830.Emscripten.clang"
  },
  "schemaVersion": "3.4.3",
  "updatedAt": "2021-12-01T16:14:29.073Z",
  "networkType": "ethereum",
  "devdoc": {
    "kind": "dev",
    "methods": {},
    "version": 1
  },
  "userdoc": {
    "kind": "user",
    "methods": {},
    "version": 1
  }
}