{
  "contractName": "Crowdfunder",
  "abi": [
    {
      "inputs": [
        {
          "internalType": "address",
          "name": "daiAddress",
          "type": "address"
        },
        {
          "internalType": "address",
          "name": "_feeAccount",
          "type": "address"
        },
        {
          "internalType": "uint256",
          "name": "_feePercent",
          "type": "uint256"
        }
      ],
      "stateMutability": "nonpayable",
      "type": "constructor"
    },
    {
      "anonymous": false,
      "inputs": [
        {
          "indexed": false,
          "internalType": "uint256",
          "name": "id",
          "type": "uint256"
        },
        {
          "indexed": true,
          "internalType": "address",
          "name": "creator",
          "type": "address"
        },
        {
          "indexed": false,
          "internalType": "uint256",
          "name": "fundGoal",
          "type": "uint256"
        },
        {
          "indexed": false,
          "internalType": "uint256",
          "name": "timeGoal",
          "type": "uint256"
        },
        {
          "indexed": false,
          "internalType": "uint256",
          "name": "timestamp",
          "type": "uint256"
        }
      ],
      "name": "Cancel",
      "type": "event"
    },
    {
      "anonymous": false,
      "inputs": [
        {
          "indexed": false,
          "internalType": "uint256",
          "name": "id",
          "type": "uint256"
        },
        {
          "indexed": true,
          "internalType": "address",
          "name": "supporter",
          "type": "address"
        },
        {
          "indexed": false,
          "internalType": "uint256",
          "name": "supporterCount",
          "type": "uint256"
        },
        {
          "indexed": false,
          "internalType": "uint256",
          "name": "totalFunds",
          "type": "uint256"
        },
        {
          "indexed": false,
          "internalType": "uint256",
          "name": "fundAmount",
          "type": "uint256"
        },
        {
          "indexed": false,
          "internalType": "uint256",
          "name": "timestamp",
          "type": "uint256"
        }
      ],
      "name": "Contribution",
      "type": "event"
    },
    {
      "anonymous": false,
      "inputs": [
        {
          "indexed": false,
          "internalType": "uint256",
          "name": "id",
          "type": "uint256"
        },
        {
          "indexed": false,
          "internalType": "string",
          "name": "name",
          "type": "string"
        },
        {
          "indexed": false,
          "internalType": "string",
          "name": "description",
          "type": "string"
        },
        {
          "indexed": false,
          "internalType": "string",
          "name": "imgHash",
          "type": "string"
        },
        {
          "indexed": true,
          "internalType": "address",
          "name": "creator",
          "type": "address"
        },
        {
          "indexed": false,
          "internalType": "uint256",
          "name": "fundGoal",
          "type": "uint256"
        },
        {
          "indexed": false,
          "internalType": "uint256",
          "name": "timeGoal",
          "type": "uint256"
        },
        {
          "indexed": false,
          "internalType": "uint256",
          "name": "timestamp",
          "type": "uint256"
        },
        {
          "indexed": false,
          "internalType": "uint256",
          "name": "totalFunds",
          "type": "uint256"
        },
        {
          "indexed": false,
          "internalType": "uint256",
          "name": "supporterCount",
          "type": "uint256"
        }
      ],
      "name": "ProjectMade",
      "type": "event"
    },
    {
      "anonymous": false,
      "inputs": [
        {
          "indexed": false,
          "internalType": "uint256",
          "name": "id",
          "type": "uint256"
        },
        {
          "indexed": true,
          "internalType": "address",
          "name": "supporter",
          "type": "address"
        },
        {
          "indexed": false,
          "internalType": "uint256",
          "name": "refundAmount",
          "type": "uint256"
        },
        {
          "indexed": false,
          "internalType": "uint256",
          "name": "timestamp",
          "type": "uint256"
        }
      ],
      "name": "Refund",
      "type": "event"
    },
    {
      "anonymous": false,
      "inputs": [
        {
          "indexed": false,
          "internalType": "uint256",
          "name": "id",
          "type": "uint256"
        },
        {
          "indexed": true,
          "internalType": "address",
          "name": "creator",
          "type": "address"
        },
        {
          "indexed": false,
          "internalType": "uint256",
          "name": "fundAmount",
          "type": "uint256"
        },
        {
          "indexed": false,
          "internalType": "uint256",
          "name": "feeAmount",
          "type": "uint256"
        },
        {
          "indexed": false,
          "internalType": "uint256",
          "name": "timestamp",
          "type": "uint256"
        }
      ],
      "name": "Transfer",
      "type": "event"
    },
    {
      "stateMutability": "nonpayable",
      "type": "fallback"
    },
    {
      "inputs": [],
      "name": "feeAccount",
      "outputs": [
        {
          "internalType": "address",
          "name": "",
          "type": "address"
        }
      ],
      "stateMutability": "view",
      "type": "function",
      "constant": true
    },
    {
      "inputs": [],
      "name": "feePercent",
      "outputs": [
        {
          "internalType": "uint256",
          "name": "",
          "type": "uint256"
        }
      ],
      "stateMutability": "view",
      "type": "function",
      "constant": true
    },
    {
      "inputs": [
        {
          "internalType": "uint256",
          "name": "",
          "type": "uint256"
        }
      ],
      "name": "projectCancelled",
      "outputs": [
        {
          "internalType": "bool",
          "name": "",
          "type": "bool"
        }
      ],
      "stateMutability": "view",
      "type": "function",
      "constant": true
    },
    {
      "inputs": [],
      "name": "projectCount",
      "outputs": [
        {
          "internalType": "uint256",
          "name": "",
          "type": "uint256"
        }
      ],
      "stateMutability": "view",
      "type": "function",
      "constant": true
    },
    {
      "inputs": [
        {
          "internalType": "uint256",
          "name": "",
          "type": "uint256"
        }
      ],
      "name": "projectFundsTransfered",
      "outputs": [
        {
          "internalType": "bool",
          "name": "",
          "type": "bool"
        }
      ],
      "stateMutability": "view",
      "type": "function",
      "constant": true
    },
    {
      "inputs": [
        {
          "internalType": "uint256",
          "name": "",
          "type": "uint256"
        }
      ],
      "name": "projects",
      "outputs": [
        {
          "internalType": "uint256",
          "name": "id",
          "type": "uint256"
        },
        {
          "internalType": "string",
          "name": "name",
          "type": "string"
        },
        {
          "internalType": "string",
          "name": "description",
          "type": "string"
        },
        {
          "internalType": "string",
          "name": "imgHash",
          "type": "string"
        },
        {
          "internalType": "address",
          "name": "creator",
          "type": "address"
        },
        {
          "internalType": "uint256",
          "name": "fundGoal",
          "type": "uint256"
        },
        {
          "internalType": "uint256",
          "name": "timeGoal",
          "type": "uint256"
        },
        {
          "internalType": "uint256",
          "name": "timestamp",
          "type": "uint256"
        },
        {
          "internalType": "uint256",
          "name": "totalFunds",
          "type": "uint256"
        },
        {
          "internalType": "uint256",
          "name": "supporterCount",
          "type": "uint256"
        }
      ],
      "stateMutability": "view",
      "type": "function",
      "constant": true
    },
    {
      "inputs": [
        {
          "internalType": "uint256",
          "name": "",
          "type": "uint256"
        },
        {
          "internalType": "address",
          "name": "",
          "type": "address"
        }
      ],
      "name": "supporterFunds",
      "outputs": [
        {
          "internalType": "uint256",
          "name": "",
          "type": "uint256"
        }
      ],
      "stateMutability": "view",
      "type": "function",
      "constant": true
    },
    {
      "inputs": [
        {
          "internalType": "string",
          "name": "_name",
          "type": "string"
        },
        {
          "internalType": "string",
          "name": "_description",
          "type": "string"
        },
        {
          "internalType": "string",
          "name": "_imgHash",
          "type": "string"
        },
        {
          "internalType": "uint256",
          "name": "_fundGoal",
          "type": "uint256"
        },
        {
          "internalType": "uint256",
          "name": "_timeGoal",
          "type": "uint256"
        }
      ],
      "name": "makeProject",
      "outputs": [],
      "stateMutability": "nonpayable",
      "type": "function"
    },
    {
      "inputs": [
        {
          "internalType": "uint256",
          "name": "_id",
          "type": "uint256"
        }
      ],
      "name": "cancelProject",
      "outputs": [],
      "stateMutability": "nonpayable",
      "type": "function"
    },
    {
      "inputs": [
        {
          "internalType": "uint256",
          "name": "_id",
          "type": "uint256"
        },
        {
          "internalType": "uint256",
          "name": "_amount",
          "type": "uint256"
        }
      ],
      "name": "contribute",
      "outputs": [],
      "stateMutability": "nonpayable",
      "type": "function"
    },
    {
      "inputs": [
        {
          "internalType": "uint256",
          "name": "_id",
          "type": "uint256"
        }
      ],
      "name": "transfer",
      "outputs": [],
      "stateMutability": "nonpayable",
      "type": "function"
    },
    {
      "inputs": [
        {
          "internalType": "uint256",
          "name": "_id",
          "type": "uint256"
        }
      ],
      "name": "refund",
      "outputs": [],
      "stateMutability": "nonpayable",
      "type": "function"
    }
  ],
  "bytecode": "0x60806040523480156200001157600080fd5b5060405162002d5338038062002d5383398181016040528101906200003791906200016d565b826000806101000a81548173ffffffffffffffffffffffffffffffffffffffff021916908373ffffffffffffffffffffffffffffffffffffffff16021790555081600160006101000a81548173ffffffffffffffffffffffffffffffffffffffff021916908373ffffffffffffffffffffffffffffffffffffffff16021790555080600281905550505050620001c9565b600080fd5b600073ffffffffffffffffffffffffffffffffffffffff82169050919050565b6000620000fa82620000cd565b9050919050565b6200010c81620000ed565b81146200011857600080fd5b50565b6000815190506200012c8162000101565b92915050565b6000819050919050565b620001478162000132565b81146200015357600080fd5b50565b60008151905062000167816200013c565b92915050565b600080600060608486031215620001895762000188620000c8565b5b600062000199868287016200011b565b9350506020620001ac868287016200011b565b9250506040620001bf8682870162000156565b9150509250925092565b612b7a80620001d96000396000f3fe608060405234801561001057600080fd5b50600436106100b85760003560e01c806365e17c9d1161007157806365e17c9d146101995780637fd6f15c146101b75780638c590917146101d5578063af9bdbe8146101f1578063ceb529dc14610221578063eeae24d01461023d576100b9565b8063107046bd146100be57806312514bba146100f75780632494114714610113578063278ecde11461012f57806336fbad261461014b5780636011bdec14610169576100b9565b5b600080fd5b6100d860048036038101906100d39190611a4e565b61026d565b6040516100ee9a99989796959493929190611b64565b60405180910390f35b610111600480360381019061010c9190611a4e565b610479565b005b61012d60048036038101906101289190611a4e565b610938565b005b61014960048036038101906101449190611a4e565b610b15565b005b610153610d7b565b6040516101609190611c15565b60405180910390f35b610183600480360381019061017e9190611c5c565b610d81565b6040516101909190611c15565b60405180910390f35b6101a1610da6565b6040516101ae9190611c9c565b60405180910390f35b6101bf610dcc565b6040516101cc9190611c15565b60405180910390f35b6101ef60048036038101906101ea9190611cb7565b610dd2565b005b61020b60048036038101906102069190611a4e565b61157e565b6040516102189190611d12565b60405180910390f35b61023b60048036038101906102369190611e62565b61159e565b005b61025760048036038101906102529190611a4e565b6118ca565b6040516102649190611d12565b60405180910390f35b600460205280600052604060002060009150905080600001549080600101805461029690611f60565b80601f01602080910402602001604051908101604052809291908181526020018280546102c290611f60565b801561030f5780601f106102e45761010080835404028352916020019161030f565b820191906000526020600020905b8154815290600101906020018083116102f257829003601f168201915b50505050509080600201805461032490611f60565b80601f016020809104026020016040519081016040528092919081815260200182805461035090611f60565b801561039d5780601f106103725761010080835404028352916020019161039d565b820191906000526020600020905b81548152906001019060200180831161038057829003601f168201915b5050505050908060030180546103b290611f60565b80601f01602080910402602001604051908101604052809291908181526020018280546103de90611f60565b801561042b5780601f106104005761010080835404028352916020019161042b565b820191906000526020600020905b81548152906001019060200180831161040e57829003601f168201915b5050505050908060040160009054906101000a900473ffffffffffffffffffffffffffffffffffffffff1690806005015490806006015490806007015490806008015490806009015490508a565b806005600082815260200190815260200160002060009054906101000a900460ff16156104db576040517f08c379a00000000000000000000000000000000000000000000000000000000081526004016104d290611fde565b60405180910390fd5b6006600083815260200190815260200160002060009054906101000a900460ff161561053c576040517f08c379a000000000000000000000000000000000000000000000000000000000815260040161053390612070565b60405180910390fd5b60006004600084815260200190815260200160002090503373ffffffffffffffffffffffffffffffffffffffff168160040160009054906101000a900473ffffffffffffffffffffffffffffffffffffffff1673ffffffffffffffffffffffffffffffffffffffff16146105e5576040517f08c379a00000000000000000000000000000000000000000000000000000000081526004016105dc90612102565b60405180910390fd5b6105f7816006015482600701546118ea565b15610637576040517f08c379a000000000000000000000000000000000000000000000000000000000815260040161062e9061216e565b60405180910390fd5b806005015481600801541015610682576040517f08c379a000000000000000000000000000000000000000000000000000000000815260040161067990612200565b60405180910390fd5b60008160080154905060006106b560646106a76002548561190990919063ffffffff16565b61191f90919063ffffffff16565b905060008054906101000a900473ffffffffffffffffffffffffffffffffffffffff1673ffffffffffffffffffffffffffffffffffffffff1663a9059cbb8460040160009054906101000a900473ffffffffffffffffffffffffffffffffffffffff1661072b848661193590919063ffffffff16565b6040518363ffffffff1660e01b8152600401610748929190612220565b602060405180830381600087803b15801561076257600080fd5b505af1158015610776573d6000803e3d6000fd5b505050506040513d601f19601f8201168201806040525081019061079a9190612275565b6107a357600080fd5b60008054906101000a900473ffffffffffffffffffffffffffffffffffffffff1673ffffffffffffffffffffffffffffffffffffffff1663a9059cbb600160009054906101000a900473ffffffffffffffffffffffffffffffffffffffff16836040518363ffffffff1660e01b8152600401610820929190612220565b602060405180830381600087803b15801561083a57600080fd5b505af115801561084e573d6000803e3d6000fd5b505050506040513d601f19601f820116820180604052508101906108729190612275565b61087b57600080fd5b60016006600087815260200190815260200160002060006101000a81548160ff0219169083151502179055508260040160009054906101000a900473ffffffffffffffffffffffffffffffffffffffff1673ffffffffffffffffffffffffffffffffffffffff167fa284acea865988df8511069bd7a13cb66e046cb28712800b8099e2c9c011a25686610917848661193590919063ffffffff16565b844260405161092994939291906122a2565b60405180910390a25050505050565b8060008111801561094b57506003548111155b61098a576040517f08c379a000000000000000000000000000000000000000000000000000000000815260040161098190612333565b60405180910390fd5b60006004600084815260200190815260200160002090506109b3816005015482600701546118ea565b6109f2576040517f08c379a00000000000000000000000000000000000000000000000000000000081526004016109e99061239f565b60405180910390fd5b3373ffffffffffffffffffffffffffffffffffffffff168160040160009054906101000a900473ffffffffffffffffffffffffffffffffffffffff1673ffffffffffffffffffffffffffffffffffffffff1614610a84576040517f08c379a0000000000000000000000000000000000000000000000000000000008152600401610a7b90612431565b60405180910390fd5b60016005600085815260200190815260200160002060006101000a81548160ff0219169083151502179055503373ffffffffffffffffffffffffffffffffffffffff167f7769bfc7786e1deefeb13e6106bf1f23574d6811046097ff1ef0234bc7de2b2c82600001548360050154846006015442604051610b0894939291906122a2565b60405180910390a2505050565b60006004600083815260200190815260200160002090506000816005015482600801541090506000610b4f836006015484600701546118ea565b158015610b595750815b90508080610b8457506005600085815260200190815260200160002060009054906101000a900460ff165b610bc3576040517f08c379a0000000000000000000000000000000000000000000000000000000008152600401610bba906124e9565b60405180910390fd5b60006007600086815260200190815260200160002060003373ffffffffffffffffffffffffffffffffffffffff1673ffffffffffffffffffffffffffffffffffffffff16815260200190815260200160002054905060008054906101000a900473ffffffffffffffffffffffffffffffffffffffff1673ffffffffffffffffffffffffffffffffffffffff1663a9059cbb33836040518363ffffffff1660e01b8152600401610c73929190612220565b602060405180830381600087803b158015610c8d57600080fd5b505af1158015610ca1573d6000803e3d6000fd5b505050506040513d601f19601f82011682018060405250810190610cc59190612275565b610cce57600080fd5b6007600086815260200190815260200160002060003373ffffffffffffffffffffffffffffffffffffffff1673ffffffffffffffffffffffffffffffffffffffff168152602001908152602001600020600090553373ffffffffffffffffffffffffffffffffffffffff167faba4210cad11f1112f31ba136a61cdc0f6ab4c2b478da8c93eec1d9769e97a89868342604051610d6c93929190612509565b60405180910390a25050505050565b60035481565b6007602052816000526040600020602052806000526040600020600091509150505481565b600160009054906101000a900473ffffffffffffffffffffffffffffffffffffffff1681565b60025481565b81600081118015610de557506003548111155b610e24576040517f08c379a0000000000000000000000000000000000000000000000000000000008152600401610e1b90612333565b60405180910390fd5b826005600082815260200190815260200160002060009054906101000a900460ff1615610e86576040517f08c379a0000000000000000000000000000000000000000000000000000000008152600401610e7d90611fde565b60405180910390fd5b6005600085815260200190815260200160002060009054906101000a900460ff1615610ee7576040517f08c379a0000000000000000000000000000000000000000000000000000000008152600401610ede90611fde565b60405180910390fd5b6000600460008681526020019081526020016000206040518061014001604052908160008201548152602001600182018054610f2290611f60565b80601f0160208091040260200160405190810160405280929190818152602001828054610f4e90611f60565b8015610f9b5780601f10610f7057610100808354040283529160200191610f9b565b820191906000526020600020905b815481529060010190602001808311610f7e57829003601f168201915b50505050508152602001600282018054610fb490611f60565b80601f0160208091040260200160405190810160405280929190818152602001828054610fe090611f60565b801561102d5780601f106110025761010080835404028352916020019161102d565b820191906000526020600020905b81548152906001019060200180831161101057829003601f168201915b5050505050815260200160038201805461104690611f60565b80601f016020809104026020016040519081016040528092919081815260200182805461107290611f60565b80156110bf5780601f10611094576101008083540402835291602001916110bf565b820191906000526020600020905b8154815290600101906020018083116110a257829003601f168201915b505050505081526020016004820160009054906101000a900473ffffffffffffffffffffffffffffffffffffffff1673ffffffffffffffffffffffffffffffffffffffff1673ffffffffffffffffffffffffffffffffffffffff168152602001600582015481526020016006820154815260200160078201548152602001600882015481526020016009820154815250509050806080015173ffffffffffffffffffffffffffffffffffffffff163373ffffffffffffffffffffffffffffffffffffffff1614156111c5576040517f08c379a00000000000000000000000000000000000000000000000000000000081526004016111bc906125d8565b60405180910390fd5b6111d78160c001518260e001516118ea565b611216576040517f08c379a000000000000000000000000000000000000000000000000000000000815260040161120d9061239f565b60405180910390fd5b60008054906101000a900473ffffffffffffffffffffffffffffffffffffffff1673ffffffffffffffffffffffffffffffffffffffff166323b872dd3330876040518463ffffffff1660e01b8152600401611273939291906125f8565b602060405180830381600087803b15801561128d57600080fd5b505af11580156112a1573d6000803e3d6000fd5b505050506040513d601f19601f820116820180604052508101906112c59190612275565b6112ce57600080fd5b60006007600087815260200190815260200160002060003373ffffffffffffffffffffffffffffffffffffffff1673ffffffffffffffffffffffffffffffffffffffff16815260200190815260200160002054141561134b57611340600182610120015161194b90919063ffffffff16565b816101200181815250505b6113638482610100015161194b90919063ffffffff16565b816101000181815250506113d0846007600088815260200190815260200160002060003373ffffffffffffffffffffffffffffffffffffffff1673ffffffffffffffffffffffffffffffffffffffff1681526020019081526020016000205461194b90919063ffffffff16565b6007600087815260200190815260200160002060003373ffffffffffffffffffffffffffffffffffffffff1673ffffffffffffffffffffffffffffffffffffffff16815260200190815260200160002081905550806004600087815260200190815260200160002060008201518160000155602082015181600101908051906020019061145e929190611961565b50604082015181600201908051906020019061147b929190611961565b506060820151816003019080519060200190611498929190611961565b5060808201518160040160006101000a81548173ffffffffffffffffffffffffffffffffffffffff021916908373ffffffffffffffffffffffffffffffffffffffff16021790555060a0820151816005015560c0820151816006015560e08201518160070155610100820151816008015561012082015181600901559050503373ffffffffffffffffffffffffffffffffffffffff167f1d07f4996fa6104db13b09972924f4e243d9304b80685403cb743992bf174bda86836101200151846101000151884260405161156f95949392919061262f565b60405180910390a25050505050565b60056020528060005260406000206000915054906101000a900460ff1681565b600081116115e1576040517f08c379a00000000000000000000000000000000000000000000000000000000081526004016115d8906126f4565b60405180910390fd5b624f1a008110611626576040517f08c379a000000000000000000000000000000000000000000000000000000000815260040161161d90612786565b60405180910390fd5b600085511161166a576040517f08c379a0000000000000000000000000000000000000000000000000000000008152600401611661906127f2565b60405180910390fd5b60008451116116ae576040517f08c379a00000000000000000000000000000000000000000000000000000000081526004016116a59061285e565b60405180910390fd5b60008351116116f2576040517f08c379a00000000000000000000000000000000000000000000000000000000081526004016116e9906128ca565b60405180910390fd5b611708600160035461194b90919063ffffffff16565b60038190555060405180610140016040528060035481526020018681526020018581526020018481526020013373ffffffffffffffffffffffffffffffffffffffff1681526020018381526020018281526020014281526020016000815260200160008152506004600060035481526020019081526020016000206000820151816000015560208201518160010190805190602001906117a9929190611961565b5060408201518160020190805190602001906117c6929190611961565b5060608201518160030190805190602001906117e3929190611961565b5060808201518160040160006101000a81548173ffffffffffffffffffffffffffffffffffffffff021916908373ffffffffffffffffffffffffffffffffffffffff16021790555060a0820151816005015560c0820151816006015560e08201518160070155610100820151816008015561012082015181600901559050503373ffffffffffffffffffffffffffffffffffffffff167f10209b84a35ba76afaea6f0a51d3bf5da359f3446afa37f1e83dc73fd7a5f1bc6003548787878787426000806040516118bb9998979695949392919061292f565b60405180910390a25050505050565b60066020528060005260406000206000915054906101000a900460ff1681565b600042611900838561194b90919063ffffffff16565b11905092915050565b600081836119179190612a00565b905092915050565b6000818361192d9190612a89565b905092915050565b600081836119439190612aba565b905092915050565b600081836119599190612aee565b905092915050565b82805461196d90611f60565b90600052602060002090601f01602090048101928261198f57600085556119d6565b82601f106119a857805160ff19168380011785556119d6565b828001600101855582156119d6579182015b828111156119d55782518255916020019190600101906119ba565b5b5090506119e391906119e7565b5090565b5b80821115611a005760008160009055506001016119e8565b5090565b6000604051905090565b600080fd5b600080fd5b6000819050919050565b611a2b81611a18565b8114611a3657600080fd5b50565b600081359050611a4881611a22565b92915050565b600060208284031215611a6457611a63611a0e565b5b6000611a7284828501611a39565b91505092915050565b611a8481611a18565b82525050565b600081519050919050565b600082825260208201905092915050565b60005b83811015611ac4578082015181840152602081019050611aa9565b83811115611ad3576000848401525b50505050565b6000601f19601f8301169050919050565b6000611af582611a8a565b611aff8185611a95565b9350611b0f818560208601611aa6565b611b1881611ad9565b840191505092915050565b600073ffffffffffffffffffffffffffffffffffffffff82169050919050565b6000611b4e82611b23565b9050919050565b611b5e81611b43565b82525050565b600061014082019050611b7a600083018d611a7b565b8181036020830152611b8c818c611aea565b90508181036040830152611ba0818b611aea565b90508181036060830152611bb4818a611aea565b9050611bc36080830189611b55565b611bd060a0830188611a7b565b611bdd60c0830187611a7b565b611bea60e0830186611a7b565b611bf8610100830185611a7b565b611c06610120830184611a7b565b9b9a5050505050505050505050565b6000602082019050611c2a6000830184611a7b565b92915050565b611c3981611b43565b8114611c4457600080fd5b50565b600081359050611c5681611c30565b92915050565b60008060408385031215611c7357611c72611a0e565b5b6000611c8185828601611a39565b9250506020611c9285828601611c47565b9150509250929050565b6000602082019050611cb16000830184611b55565b92915050565b60008060408385031215611cce57611ccd611a0e565b5b6000611cdc85828601611a39565b9250506020611ced85828601611a39565b9150509250929050565b60008115159050919050565b611d0c81611cf7565b82525050565b6000602082019050611d276000830184611d03565b92915050565b600080fd5b600080fd5b7f4e487b7100000000000000000000000000000000000000000000000000000000600052604160045260246000fd5b611d6f82611ad9565b810181811067ffffffffffffffff82111715611d8e57611d8d611d37565b5b80604052505050565b6000611da1611a04565b9050611dad8282611d66565b919050565b600067ffffffffffffffff821115611dcd57611dcc611d37565b5b611dd682611ad9565b9050602081019050919050565b82818337600083830152505050565b6000611e05611e0084611db2565b611d97565b905082815260208101848484011115611e2157611e20611d32565b5b611e2c848285611de3565b509392505050565b600082601f830112611e4957611e48611d2d565b5b8135611e59848260208601611df2565b91505092915050565b600080600080600060a08688031215611e7e57611e7d611a0e565b5b600086013567ffffffffffffffff811115611e9c57611e9b611a13565b5b611ea888828901611e34565b955050602086013567ffffffffffffffff811115611ec957611ec8611a13565b5b611ed588828901611e34565b945050604086013567ffffffffffffffff811115611ef657611ef5611a13565b5b611f0288828901611e34565b9350506060611f1388828901611a39565b9250506080611f2488828901611a39565b9150509295509295909350565b7f4e487b7100000000000000000000000000000000000000000000000000000000600052602260045260246000fd5b60006002820490506001821680611f7857607f821691505b60208210811415611f8c57611f8b611f31565b5b50919050565b7f4572726f722c2070726f6a6563742069732063616e63656c6564000000000000600082015250565b6000611fc8601a83611a95565b9150611fd382611f92565b602082019050919050565b60006020820190508181036000830152611ff781611fbb565b9050919050565b7f4572726f722c20636f6c6c65637465642070726f6a6563742066756e6473206160008201527f6c7265616479207472616e736665726564000000000000000000000000000000602082015250565b600061205a603183611a95565b915061206582611ffe565b604082019050919050565b600060208201905081810360008301526120898161204d565b9050919050565b7f4572726f722c206f6e6c792063726561746f722063616e207472616e7366657260008201527f20636f6c6c65637465642070726f6a6563742066756e64730000000000000000602082015250565b60006120ec603883611a95565b91506120f782612090565b604082019050919050565b6000602082019050818103600083015261211b816120df565b9050919050565b7f4572726f722c2070726f6a656374207374696c6c206f70656e00000000000000600082015250565b6000612158601983611a95565b915061216382612122565b602082019050919050565b600060208201905081810360008301526121878161214b565b9050919050565b7f4572726f722c2070726f6a65637420646964206e6f74206d6565742066756e6460008201527f696e6720676f616c20696e2074696d6500000000000000000000000000000000602082015250565b60006121ea603083611a95565b91506121f58261218e565b604082019050919050565b60006020820190508181036000830152612219816121dd565b9050919050565b60006040820190506122356000830185611b55565b6122426020830184611a7b565b9392505050565b61225281611cf7565b811461225d57600080fd5b50565b60008151905061226f81612249565b92915050565b60006020828403121561228b5761228a611a0e565b5b600061229984828501612260565b91505092915050565b60006080820190506122b76000830187611a7b565b6122c46020830186611a7b565b6122d16040830185611a7b565b6122de6060830184611a7b565b95945050505050565b7f4572726f722c2077726f6e672069640000000000000000000000000000000000600082015250565b600061231d600f83611a95565b9150612328826122e7565b602082019050919050565b6000602082019050818103600083015261234c81612310565b9050919050565b7f4572726f722c2070726f6a656374206d757374206265206f70656e0000000000600082015250565b6000612389601b83611a95565b915061239482612353565b602082019050919050565b600060208201905081810360008301526123b88161237c565b9050919050565b7f4572726f722c206f6e6c792063726561746f722063616e2063616e63656c207460008201527f686569722070726f6a6563740000000000000000000000000000000000000000602082015250565b600061241b602c83611a95565b9150612426826123bf565b604082019050919050565b6000602082019050818103600083015261244a8161240e565b9050919050565b7f4572726f722c206e6f20726566756e647320756e6c6573732070726f6a65637460008201527f20686173206265656e2063616e63656c6564206f7220646f6573206e6f74206d60208201527f6565742066756e64696e6720676f616c20696e2074696d650000000000000000604082015250565b60006124d3605883611a95565b91506124de82612451565b606082019050919050565b60006020820190508181036000830152612502816124c6565b9050919050565b600060608201905061251e6000830186611a7b565b61252b6020830185611a7b565b6125386040830184611a7b565b949350505050565b7f4572726f722c2063726561746f727320617265206e6f7420616c6c6f7765642060008201527f746f206164642066756e647320746f207468656972206f776e2070726f6a656360208201527f7473000000000000000000000000000000000000000000000000000000000000604082015250565b60006125c2604283611a95565b91506125cd82612540565b606082019050919050565b600060208201905081810360008301526125f1816125b5565b9050919050565b600060608201905061260d6000830186611b55565b61261a6020830185611b55565b6126276040830184611a7b565b949350505050565b600060a0820190506126446000830188611a7b565b6126516020830187611a7b565b61265e6040830186611a7b565b61266b6060830185611a7b565b6126786080830184611a7b565b9695505050505050565b7f4572726f722c2074696d6520676f616c206d75737420657869737420696e207460008201527f6865206675747572650000000000000000000000000000000000000000000000602082015250565b60006126de602983611a95565b91506126e982612682565b604082019050919050565b6000602082019050818103600083015261270d816126d1565b9050919050565b7f4572726f722c2074696d6520676f616c206d757374206265206c65737320746860008201527f616e203630206461797300000000000000000000000000000000000000000000602082015250565b6000612770602a83611a95565b915061277b82612714565b604082019050919050565b6000602082019050818103600083015261279f81612763565b9050919050565b7f4572726f722c206e616d65206d75737420657869737400000000000000000000600082015250565b60006127dc601683611a95565b91506127e7826127a6565b602082019050919050565b6000602082019050818103600083015261280b816127cf565b9050919050565b7f4572726f722c206465736372697074696f6e206d757374206578697374000000600082015250565b6000612848601d83611a95565b915061285382612812565b602082019050919050565b600060208201905081810360008301526128778161283b565b9050919050565b7f4572726f722c20696d6167652068617368206d75737420657869737400000000600082015250565b60006128b4601c83611a95565b91506128bf8261287e565b602082019050919050565b600060208201905081810360008301526128e3816128a7565b9050919050565b6000819050919050565b6000819050919050565b600061291961291461290f846128ea565b6128f4565b611a18565b9050919050565b612929816128fe565b82525050565b600061012082019050612945600083018c611a7b565b8181036020830152612957818b611aea565b9050818103604083015261296b818a611aea565b9050818103606083015261297f8189611aea565b905061298e6080830188611a7b565b61299b60a0830187611a7b565b6129a860c0830186611a7b565b6129b560e0830185612920565b6129c3610100830184612920565b9a9950505050505050505050565b7f4e487b7100000000000000000000000000000000000000000000000000000000600052601160045260246000fd5b6000612a0b82611a18565b9150612a1683611a18565b9250817fffffffffffffffffffffffffffffffffffffffffffffffffffffffffffffffff0483118215151615612a4f57612a4e6129d1565b5b828202905092915050565b7f4e487b7100000000000000000000000000000000000000000000000000000000600052601260045260246000fd5b6000612a9482611a18565b9150612a9f83611a18565b925082612aaf57612aae612a5a565b5b828204905092915050565b6000612ac582611a18565b9150612ad083611a18565b925082821015612ae357612ae26129d1565b5b828203905092915050565b6000612af982611a18565b9150612b0483611a18565b9250827fffffffffffffffffffffffffffffffffffffffffffffffffffffffffffffffff03821115612b3957612b386129d1565b5b82820190509291505056fea2646970667358221220a16efd9f58f43d642578550c9655c806e13d82f855a567441335e4895013a25464736f6c63430008090033",
  "immutableReferences": {},
  "source": "//SPDX-License-Identifier: UNLICENSED\r\n\r\n\r\npragma solidity ^0.8.0;\r\n\r\nimport \"openzeppelin-solidity/contracts/utils/math/SafeMath.sol\";\r\nimport \"openzeppelin-solidity/contracts/token/ERC20/IERC20.sol\";\r\n\r\ncontract Crowdfunder {\r\n\r\n\tusing SafeMath for uint;\r\n\tIERC20 dai; \r\n\taddress public feeAccount; // the account that receives exchange fees\r\n\tuint256 public feePercent; // the fee percentage\r\n\tuint256 public projectCount;\r\n\tmapping(uint256 => _Project) public projects;\r\n\tmapping (uint256 => bool) public projectCancelled;\r\n\tmapping (uint256 => bool) public projectFundsTransfered;\r\n\tmapping(uint256 => mapping (address => uint256)) public supporterFunds;\r\n\tevent ProjectMade (\r\n\t\tuint256 id,\r\n\t\tstring name,\r\n\t\tstring description,\r\n\t\tstring imgHash,\r\n\t\taddress indexed creator,\r\n\t\tuint256 fundGoal,\r\n\t\tuint256 timeGoal,\r\n\t\tuint256 timestamp,\r\n\t\tuint256 totalFunds,\r\n\t\tuint256 supporterCount\t\r\n\t);\r\n\tevent Cancel (\r\n\t\tuint256 id,\r\n\t\taddress indexed creator,\r\n\t\tuint256 fundGoal,\r\n\t\tuint256 timeGoal,\r\n\t\tuint256 timestamp\t\r\n\t);\r\n\tevent Contribution (\r\n\t\tuint256 id,\r\n\t\taddress indexed supporter,\r\n\t\tuint256 supporterCount,\r\n\t\tuint256 totalFunds,\r\n\t\tuint256 fundAmount,\t\r\n\t\tuint256 timestamp\t\t\r\n\t);\r\n\tevent Transfer (\r\n\t\tuint256 id,\r\n\t\taddress indexed creator,\r\n\t\tuint256 fundAmount,\r\n\t\tuint256 feeAmount,\r\n\t\tuint256 timestamp\r\n\t);\r\n\tevent Refund (\r\n\t\tuint256 id,\r\n\t\taddress indexed supporter,\r\n\t\tuint256 refundAmount,\r\n\t\tuint256 timestamp\t\r\n\t);\r\n\tstruct _Project {\r\n\t\tuint256 id;\r\n\t\tstring name; \r\n\t\tstring description;\r\n\t\tstring imgHash;\r\n\t\taddress creator;\r\n\t\tuint256 fundGoal;\r\n\t\tuint256 timeGoal;\r\n\t\tuint256 timestamp;\r\n\t\tuint256 totalFunds;\r\n\t\tuint256 supporterCount;\r\n\t}\r\n\r\n\tconstructor (address daiAddress, address _feeAccount, uint256 _feePercent) {\r\n\t\tdai = IERC20(daiAddress);\r\n\t\tfeeAccount = _feeAccount;\r\n\t\tfeePercent = _feePercent;\r\n\t}\r\n\tmodifier onlyValidIds (uint256 _id) {\r\n\t\trequire(_id > 0 && _id <= projectCount, 'Error, wrong id');\r\n\t\t_;\r\n\t}\r\n\tmodifier onlyNoncancelled (uint256 _id) {\r\n\t\trequire(!projectCancelled[_id], 'Error, project is canceled');\r\n\t\t_;\r\n\t}\r\n\r\n\t// Fallback: reverts if Ether is sent to this smart contract by mistake\r\n    fallback () external { revert(); }\r\n\r\n\r\n\tfunction makeProject(string memory _name, string memory _description, string memory _imgHash, uint256 _fundGoal, uint256 _timeGoal) external {\r\n\t\trequire(_timeGoal > 0, 'Error, time goal must exist in the future');\r\n\t\trequire(_timeGoal < 5184000, 'Error, time goal must be less than 60 days');\r\n\t\trequire(bytes(_name).length > 0, 'Error, name must exist');\r\n\t\trequire(bytes(_description).length > 0, 'Error, description must exist');\r\n\t\trequire(bytes(_imgHash).length > 0, 'Error, image hash must exist');\r\n\t\tprojectCount = projectCount.add(1);\r\n\t\tprojects[projectCount] = _Project(projectCount, _name, _description, _imgHash, msg.sender, _fundGoal, _timeGoal, block.timestamp, 0, 0);\r\n\t\temit ProjectMade(projectCount, _name, _description, _imgHash, msg.sender, _fundGoal, _timeGoal, block.timestamp, 0, 0);\r\n\t}\r\n\r\n\tfunction IsOpen(uint256 _timeGoal, uint256 _timestamp) internal view returns(bool) {\r\n\t\treturn(_timeGoal.add(_timestamp) > block.timestamp);\r\n\t}\r\n\r\n\tfunction cancelProject(uint256 _id) onlyValidIds(_id) external {\r\n\t\t_Project storage _project = projects[_id];\r\n\t\trequire(IsOpen(_project.fundGoal, _project.timestamp), 'Error, project must be open');\r\n\t\trequire(address(_project.creator) == msg.sender, 'Error, only creator can cancel their project');\r\n\t\tprojectCancelled[_id] = true;\r\n\t\temit Cancel(_project.id, msg.sender, _project.fundGoal, _project.timeGoal, block.timestamp);\r\n\t}\r\n\r\n\tfunction contribute(uint256 _id, uint256 _amount) onlyValidIds(_id) onlyNoncancelled(_id) external {\r\n\t\trequire(!projectCancelled[_id], 'Error, project is canceled');\r\n\t\t_Project memory _project = projects[_id];\r\n\t\trequire(msg.sender != _project.creator, 'Error, creators are not allowed to add funds to their own projects');\r\n\t\trequire(IsOpen(_project.timeGoal, _project.timestamp), 'Error, project must be open');\r\n\t\trequire(dai.transferFrom(msg.sender, address(this), _amount));\r\n\t\tif(supporterFunds[_id][msg.sender] == 0) {\r\n\t\t\t_project.supporterCount = _project.supporterCount.add(1);\t\r\n\t\t}\r\n\t\t_project.totalFunds = _project.totalFunds.add(_amount);\r\n\t\tsupporterFunds[_id][msg.sender] = supporterFunds[_id][msg.sender].add(_amount);\r\n\t\tprojects[_id] = _project;\r\n\t\temit Contribution (_id, msg.sender, _project.supporterCount, _project.totalFunds, _amount, block.timestamp);\t\r\n\t}\r\n\r\n\tfunction transfer(uint256 _id) onlyNoncancelled(_id) external {\r\n\t\trequire(!projectFundsTransfered[_id], 'Error, collected project funds already transfered');\r\n\t\t_Project storage _project = projects[_id];\r\n\t\trequire(address(_project.creator) == msg.sender, 'Error, only creator can transfer collected project funds');\r\n\t\trequire(!IsOpen(_project.timeGoal, _project.timestamp), 'Error, project still open');\r\n\t\trequire(_project.totalFunds >= _project.fundGoal, 'Error, project did not meet funding goal in time');\r\n\t\tuint256 _totalFunds = _project.totalFunds;\r\n\t\tuint256 _feeAmount = _totalFunds.mul(feePercent).div(100);\r\n\t\trequire(dai.transfer(_project.creator, _totalFunds.sub(_feeAmount)));\r\n\t\trequire(dai.transfer(feeAccount, _feeAmount));\r\n\t\tprojectFundsTransfered[_id] = true;\r\n\t\temit Transfer(_id, _project.creator, _totalFunds.sub(_feeAmount), _feeAmount, block.timestamp);\r\n\t}\r\n\r\n\tfunction refund(uint256 _id) external {\r\n\t\t_Project storage _project = projects[_id];\r\n\t\tbool underFunded = _project.totalFunds < _project.fundGoal;\r\n\t\tbool _failed = !IsOpen(_project.timeGoal, _project.timestamp) && underFunded;\r\n\t\trequire(_failed || projectCancelled[_id], 'Error, no refunds unless project has been canceled or does not meet funding goal in time');\r\n\t\tuint256 _supporterFunds = supporterFunds[_id][msg.sender];\r\n\t\trequire(dai.transfer(msg.sender, _supporterFunds));\r\n\t\tdelete supporterFunds[_id][msg.sender];\r\n\t\temit Refund(_id, msg.sender, _supporterFunds, block.timestamp);\r\n\t}\r\n}\r\n\r\n// Place timeGoal and fundingGoal limits\r\n// timeGoal limit would depend on fundgoal\r\n// timeGoalLimit == fundGoal*C\r\n// timeGoalLimit would not depend on the fundGoal digit number\r\n// change _amount data type from uint256 to uint16\r\n",
  "sourcePath": "/mnt/c/pr0/make-it-happen/src/contracts/Crowdfunder.sol",
  "compiler": {
    "name": "solc",
    "version": "0.8.9+commit.e5eed63a.Emscripten.clang"
  },
  "schemaVersion": "3.4.1",
  "updatedAt": "2021-10-01T16:44:50.456Z",
  "networkType": "ethereum",
  "devdoc": {
    "kind": "dev",
    "methods": {},
    "version": 1
  },
  "userdoc": {
    "kind": "user",
    "methods": {},
    "version": 1
  }
}