{
  "contractName": "Crowdfunder",
  "abi": [
    {
      "inputs": [
        {
          "internalType": "address",
          "name": "_feeAccount",
          "type": "address"
        },
        {
          "internalType": "uint256",
          "name": "_feePercent",
          "type": "uint256"
        }
      ],
      "stateMutability": "nonpayable",
      "type": "constructor"
    },
    {
      "anonymous": false,
      "inputs": [
        {
          "indexed": false,
          "internalType": "uint256",
          "name": "id",
          "type": "uint256"
        },
        {
          "indexed": true,
          "internalType": "address",
          "name": "creator",
          "type": "address"
        },
        {
          "indexed": false,
          "internalType": "uint256",
          "name": "fundGoal",
          "type": "uint256"
        },
        {
          "indexed": false,
          "internalType": "uint256",
          "name": "timeGoal",
          "type": "uint256"
        },
        {
          "indexed": false,
          "internalType": "uint256",
          "name": "timestamp",
          "type": "uint256"
        }
      ],
      "name": "Cancel",
      "type": "event"
    },
    {
      "anonymous": false,
      "inputs": [
        {
          "indexed": false,
          "internalType": "uint256",
          "name": "id",
          "type": "uint256"
        },
        {
          "indexed": true,
          "internalType": "address",
          "name": "supporter",
          "type": "address"
        },
        {
          "indexed": false,
          "internalType": "uint256",
          "name": "supporterCount",
          "type": "uint256"
        },
        {
          "indexed": false,
          "internalType": "uint256",
          "name": "totalFunds",
          "type": "uint256"
        },
        {
          "indexed": false,
          "internalType": "uint256",
          "name": "fundAmount",
          "type": "uint256"
        },
        {
          "indexed": false,
          "internalType": "uint256",
          "name": "timestamp",
          "type": "uint256"
        }
      ],
      "name": "Contribution",
      "type": "event"
    },
    {
      "anonymous": false,
      "inputs": [
        {
          "indexed": false,
          "internalType": "uint256",
          "name": "id",
          "type": "uint256"
        },
        {
          "indexed": false,
          "internalType": "string",
          "name": "name",
          "type": "string"
        },
        {
          "indexed": false,
          "internalType": "string",
          "name": "description",
          "type": "string"
        },
        {
          "indexed": false,
          "internalType": "string",
          "name": "imgHash",
          "type": "string"
        },
        {
          "indexed": true,
          "internalType": "address",
          "name": "creator",
          "type": "address"
        },
        {
          "indexed": false,
          "internalType": "uint256",
          "name": "fundGoal",
          "type": "uint256"
        },
        {
          "indexed": false,
          "internalType": "uint256",
          "name": "timeGoal",
          "type": "uint256"
        },
        {
          "indexed": false,
          "internalType": "uint256",
          "name": "timestamp",
          "type": "uint256"
        },
        {
          "indexed": false,
          "internalType": "uint256",
          "name": "totalFunds",
          "type": "uint256"
        },
        {
          "indexed": false,
          "internalType": "uint256",
          "name": "supporterCount",
          "type": "uint256"
        }
      ],
      "name": "ProjectMade",
      "type": "event"
    },
    {
      "anonymous": false,
      "inputs": [
        {
          "indexed": false,
          "internalType": "uint256",
          "name": "id",
          "type": "uint256"
        },
        {
          "indexed": true,
          "internalType": "address",
          "name": "supporter",
          "type": "address"
        },
        {
          "indexed": false,
          "internalType": "uint256",
          "name": "refundAmount",
          "type": "uint256"
        },
        {
          "indexed": false,
          "internalType": "uint256",
          "name": "timestamp",
          "type": "uint256"
        }
      ],
      "name": "Refund",
      "type": "event"
    },
    {
      "anonymous": false,
      "inputs": [
        {
          "indexed": false,
          "internalType": "uint256",
          "name": "id",
          "type": "uint256"
        },
        {
          "indexed": true,
          "internalType": "address",
          "name": "creator",
          "type": "address"
        },
        {
          "indexed": false,
          "internalType": "uint256",
          "name": "transferAmount",
          "type": "uint256"
        },
        {
          "indexed": false,
          "internalType": "uint256",
          "name": "feeAmount",
          "type": "uint256"
        },
        {
          "indexed": false,
          "internalType": "uint256",
          "name": "timestamp",
          "type": "uint256"
        }
      ],
      "name": "Transfer",
      "type": "event"
    },
    {
      "stateMutability": "nonpayable",
      "type": "fallback"
    },
    {
      "inputs": [],
      "name": "feeAccount",
      "outputs": [
        {
          "internalType": "address",
          "name": "",
          "type": "address"
        }
      ],
      "stateMutability": "view",
      "type": "function",
      "constant": true
    },
    {
      "inputs": [],
      "name": "feePercent",
      "outputs": [
        {
          "internalType": "uint256",
          "name": "",
          "type": "uint256"
        }
      ],
      "stateMutability": "view",
      "type": "function",
      "constant": true
    },
    {
      "inputs": [
        {
          "internalType": "uint256",
          "name": "",
          "type": "uint256"
        }
      ],
      "name": "projectCancelled",
      "outputs": [
        {
          "internalType": "bool",
          "name": "",
          "type": "bool"
        }
      ],
      "stateMutability": "view",
      "type": "function",
      "constant": true
    },
    {
      "inputs": [],
      "name": "projectCount",
      "outputs": [
        {
          "internalType": "uint256",
          "name": "",
          "type": "uint256"
        }
      ],
      "stateMutability": "view",
      "type": "function",
      "constant": true
    },
    {
      "inputs": [
        {
          "internalType": "uint256",
          "name": "",
          "type": "uint256"
        }
      ],
      "name": "projectFundsTransfered",
      "outputs": [
        {
          "internalType": "bool",
          "name": "",
          "type": "bool"
        }
      ],
      "stateMutability": "view",
      "type": "function",
      "constant": true
    },
    {
      "inputs": [
        {
          "internalType": "uint256",
          "name": "",
          "type": "uint256"
        }
      ],
      "name": "projects",
      "outputs": [
        {
          "internalType": "uint256",
          "name": "id",
          "type": "uint256"
        },
        {
          "internalType": "string",
          "name": "name",
          "type": "string"
        },
        {
          "internalType": "string",
          "name": "description",
          "type": "string"
        },
        {
          "internalType": "string",
          "name": "imgHash",
          "type": "string"
        },
        {
          "internalType": "address",
          "name": "creator",
          "type": "address"
        },
        {
          "internalType": "uint256",
          "name": "fundGoal",
          "type": "uint256"
        },
        {
          "internalType": "uint256",
          "name": "timeGoal",
          "type": "uint256"
        },
        {
          "internalType": "uint256",
          "name": "timestamp",
          "type": "uint256"
        },
        {
          "internalType": "uint256",
          "name": "totalFunds",
          "type": "uint256"
        },
        {
          "internalType": "uint256",
          "name": "supporterCount",
          "type": "uint256"
        }
      ],
      "stateMutability": "view",
      "type": "function",
      "constant": true
    },
    {
      "inputs": [
        {
          "internalType": "uint256",
          "name": "",
          "type": "uint256"
        },
        {
          "internalType": "address",
          "name": "",
          "type": "address"
        }
      ],
      "name": "supporterFunds",
      "outputs": [
        {
          "internalType": "uint256",
          "name": "",
          "type": "uint256"
        }
      ],
      "stateMutability": "view",
      "type": "function",
      "constant": true
    },
    {
      "inputs": [
        {
          "internalType": "string",
          "name": "_name",
          "type": "string"
        },
        {
          "internalType": "string",
          "name": "_description",
          "type": "string"
        },
        {
          "internalType": "string",
          "name": "_imgHash",
          "type": "string"
        },
        {
          "internalType": "uint256",
          "name": "_fundGoal",
          "type": "uint256"
        },
        {
          "internalType": "uint256",
          "name": "_timeGoal",
          "type": "uint256"
        }
      ],
      "name": "makeProject",
      "outputs": [],
      "stateMutability": "nonpayable",
      "type": "function"
    },
    {
      "inputs": [
        {
          "internalType": "uint256",
          "name": "_id",
          "type": "uint256"
        }
      ],
      "name": "cancelProject",
      "outputs": [],
      "stateMutability": "nonpayable",
      "type": "function"
    },
    {
      "inputs": [
        {
          "internalType": "uint256",
          "name": "_id",
          "type": "uint256"
        },
        {
          "internalType": "uint256",
          "name": "_amount",
          "type": "uint256"
        }
      ],
      "name": "contribute",
      "outputs": [],
      "stateMutability": "nonpayable",
      "type": "function"
    },
    {
      "inputs": [
        {
          "internalType": "uint256[]",
          "name": "_ids",
          "type": "uint256[]"
        }
      ],
      "name": "transfer",
      "outputs": [],
      "stateMutability": "nonpayable",
      "type": "function"
    },
    {
      "inputs": [
        {
          "internalType": "uint256[]",
          "name": "_ids",
          "type": "uint256[]"
        }
      ],
      "name": "refund",
      "outputs": [],
      "stateMutability": "nonpayable",
      "type": "function"
    }
  ],
  "bytecode": "0x60806040523480156200001157600080fd5b5060405162002fba38038062002fba83398181016040528101906200003791906200012c565b81600160006101000a81548173ffffffffffffffffffffffffffffffffffffffff021916908373ffffffffffffffffffffffffffffffffffffffff16021790555080600281905550505062000173565b600080fd5b600073ffffffffffffffffffffffffffffffffffffffff82169050919050565b6000620000b9826200008c565b9050919050565b620000cb81620000ac565b8114620000d757600080fd5b50565b600081519050620000eb81620000c0565b92915050565b6000819050919050565b6200010681620000f1565b81146200011257600080fd5b50565b6000815190506200012681620000fb565b92915050565b6000806040838503121562000146576200014562000087565b5b60006200015685828601620000da565b9250506020620001698582860162000115565b9150509250929050565b612e3780620001836000396000f3fe608060405234801561001057600080fd5b50600436106100b85760003560e01c80638c590917116100715780638c5909171461019d578063aa613df5146101b9578063af9bdbe8146101d5578063b5e3641714610205578063ceb529dc14610221578063eeae24d01461023d576100b9565b8063107046bd146100be57806324941147146100f757806336fbad26146101135780636011bdec1461013157806365e17c9d146101615780637fd6f15c1461017f576100b9565b5b600080fd5b6100d860048036038101906100d39190611b7a565b61026d565b6040516100ee9a99989796959493929190611c90565b60405180910390f35b610111600480360381019061010c9190611b7a565b610479565b005b61011b610656565b6040516101289190611d41565b60405180910390f35b61014b60048036038101906101469190611d88565b61065c565b6040516101589190611d41565b60405180910390f35b610169610681565b6040516101769190611dc8565b60405180910390f35b6101876106a7565b6040516101949190611d41565b60405180910390f35b6101b760048036038101906101b29190611de3565b6106ad565b005b6101d360048036038101906101ce9190611e88565b610df6565b005b6101ef60048036038101906101ea9190611b7a565b611148565b6040516101fc9190611ef0565b60405180910390f35b61021f600480360381019061021a9190611e88565b611168565b005b61023b6004803603810190610236919061203b565b6116ca565b005b61025760048036038101906102529190611b7a565b6119f6565b6040516102649190611ef0565b60405180910390f35b600460205280600052604060002060009150905080600001549080600101805461029690612139565b80601f01602080910402602001604051908101604052809291908181526020018280546102c290612139565b801561030f5780601f106102e45761010080835404028352916020019161030f565b820191906000526020600020905b8154815290600101906020018083116102f257829003601f168201915b50505050509080600201805461032490612139565b80601f016020809104026020016040519081016040528092919081815260200182805461035090612139565b801561039d5780601f106103725761010080835404028352916020019161039d565b820191906000526020600020905b81548152906001019060200180831161038057829003601f168201915b5050505050908060030180546103b290612139565b80601f01602080910402602001604051908101604052809291908181526020018280546103de90612139565b801561042b5780601f106104005761010080835404028352916020019161042b565b820191906000526020600020905b81548152906001019060200180831161040e57829003601f168201915b5050505050908060040160009054906101000a900473ffffffffffffffffffffffffffffffffffffffff1690806005015490806006015490806007015490806008015490806009015490508a565b8060008111801561048c57506003548111155b6104cb576040517f08c379a00000000000000000000000000000000000000000000000000000000081526004016104c2906121b7565b60405180910390fd5b60006004600084815260200190815260200160002090506104f481600501548260070154611a16565b610533576040517f08c379a000000000000000000000000000000000000000000000000000000000815260040161052a90612223565b60405180910390fd5b3373ffffffffffffffffffffffffffffffffffffffff168160040160009054906101000a900473ffffffffffffffffffffffffffffffffffffffff1673ffffffffffffffffffffffffffffffffffffffff16146105c5576040517f08c379a00000000000000000000000000000000000000000000000000000000081526004016105bc906122b5565b60405180910390fd5b60016005600085815260200190815260200160002060006101000a81548160ff0219169083151502179055503373ffffffffffffffffffffffffffffffffffffffff167f7769bfc7786e1deefeb13e6106bf1f23574d6811046097ff1ef0234bc7de2b2c8260000154836005015484600601544260405161064994939291906122d5565b60405180910390a2505050565b60035481565b6007602052816000526040600020602052806000526040600020600091509150505481565b600160009054906101000a900473ffffffffffffffffffffffffffffffffffffffff1681565b60025481565b816000811180156106c057506003548111155b6106ff576040517f08c379a00000000000000000000000000000000000000000000000000000000081526004016106f6906121b7565b60405180910390fd5b6005600084815260200190815260200160002060009054906101000a900460ff1615610760576040517f08c379a000000000000000000000000000000000000000000000000000000000815260040161075790612366565b60405180910390fd5b600060046000858152602001908152602001600020604051806101400160405290816000820154815260200160018201805461079b90612139565b80601f01602080910402602001604051908101604052809291908181526020018280546107c790612139565b80156108145780601f106107e957610100808354040283529160200191610814565b820191906000526020600020905b8154815290600101906020018083116107f757829003601f168201915b5050505050815260200160028201805461082d90612139565b80601f016020809104026020016040519081016040528092919081815260200182805461085990612139565b80156108a65780601f1061087b576101008083540402835291602001916108a6565b820191906000526020600020905b81548152906001019060200180831161088957829003601f168201915b505050505081526020016003820180546108bf90612139565b80601f01602080910402602001604051908101604052809291908181526020018280546108eb90612139565b80156109385780601f1061090d57610100808354040283529160200191610938565b820191906000526020600020905b81548152906001019060200180831161091b57829003601f168201915b505050505081526020016004820160009054906101000a900473ffffffffffffffffffffffffffffffffffffffff1673ffffffffffffffffffffffffffffffffffffffff1673ffffffffffffffffffffffffffffffffffffffff168152602001600582015481526020016006820154815260200160078201548152602001600882015481526020016009820154815250509050806080015173ffffffffffffffffffffffffffffffffffffffff163373ffffffffffffffffffffffffffffffffffffffff161415610a3e576040517f08c379a0000000000000000000000000000000000000000000000000000000008152600401610a359061241e565b60405180910390fd5b610a508160c001518260e00151611a16565b610a8f576040517f08c379a0000000000000000000000000000000000000000000000000000000008152600401610a8690612223565b60405180910390fd5b60008054906101000a900473ffffffffffffffffffffffffffffffffffffffff1673ffffffffffffffffffffffffffffffffffffffff166323b872dd3330866040518463ffffffff1660e01b8152600401610aec9392919061243e565b602060405180830381600087803b158015610b0657600080fd5b505af1158015610b1a573d6000803e3d6000fd5b505050506040513d601f19601f82011682018060405250810190610b3e91906124a1565b610b4757600080fd5b60006007600086815260200190815260200160002060003373ffffffffffffffffffffffffffffffffffffffff1673ffffffffffffffffffffffffffffffffffffffff168152602001908152602001600020541415610bc457610bb96001826101200151611a3590919063ffffffff16565b816101200181815250505b610bdc83826101000151611a3590919063ffffffff16565b81610100018181525050610c49836007600087815260200190815260200160002060003373ffffffffffffffffffffffffffffffffffffffff1673ffffffffffffffffffffffffffffffffffffffff16815260200190815260200160002054611a3590919063ffffffff16565b6007600086815260200190815260200160002060003373ffffffffffffffffffffffffffffffffffffffff1673ffffffffffffffffffffffffffffffffffffffff168152602001908152602001600020819055508060046000868152602001908152602001600020600082015181600001556020820151816001019080519060200190610cd7929190611a8d565b506040820151816002019080519060200190610cf4929190611a8d565b506060820151816003019080519060200190610d11929190611a8d565b5060808201518160040160006101000a81548173ffffffffffffffffffffffffffffffffffffffff021916908373ffffffffffffffffffffffffffffffffffffffff16021790555060a0820151816005015560c0820151816006015560e08201518160070155610100820151816008015561012082015181600901559050503373ffffffffffffffffffffffffffffffffffffffff167f1d07f4996fa6104db13b09972924f4e243d9304b80685403cb743992bf174bda858361012001518461010001518742604051610de89594939291906124ce565b60405180910390a250505050565b818160008282905011610e3e576040517f08c379a0000000000000000000000000000000000000000000000000000000008152600401610e359061256d565b60405180910390fd5b600080600080600090505b8787905081101561113e576000600460008a8a85818110610e6d57610e6c61258d565b5b905060200201358152602001908152602001600020905080600501548160080154109450610ea381600601548260070154611a16565b158015610ead5750845b93508380610ef15750600560008a8a85818110610ecd57610ecc61258d565b5b90506020020135815260200190815260200160002060009054906101000a900460ff165b610f30576040517f08c379a0000000000000000000000000000000000000000000000000000000008152600401610f2790612654565b60405180910390fd5b600760008a8a85818110610f4757610f4661258d565b5b90506020020135815260200190815260200160002060003373ffffffffffffffffffffffffffffffffffffffff1673ffffffffffffffffffffffffffffffffffffffff16815260200190815260200160002054925060008054906101000a900473ffffffffffffffffffffffffffffffffffffffff1673ffffffffffffffffffffffffffffffffffffffff1663a9059cbb33856040518363ffffffff1660e01b8152600401610ff7929190612674565b602060405180830381600087803b15801561101157600080fd5b505af1158015611025573d6000803e3d6000fd5b505050506040513d601f19601f8201168201806040525081019061104991906124a1565b61105257600080fd5b600760008a8a858181106110695761106861258d565b5b90506020020135815260200190815260200160002060003373ffffffffffffffffffffffffffffffffffffffff1673ffffffffffffffffffffffffffffffffffffffff168152602001908152602001600020600090553373ffffffffffffffffffffffffffffffffffffffff167faba4210cad11f1112f31ba136a61cdc0f6ab4c2b478da8c93eec1d9769e97a898a8a8581811061110a5761110961258d565b5b9050602002013585426040516111229392919061269d565b60405180910390a250808061113690612703565b915050610e49565b5050505050505050565b60056020528060005260406000206000915054906101000a900460ff1681565b8181600082829050116111b0576040517f08c379a00000000000000000000000000000000000000000000000000000000081526004016111a79061256d565b60405180910390fd5b60008060005b868690508110156116c157600560008888848181106111d8576111d761258d565b5b90506020020135815260200190815260200160002060009054906101000a900460ff161561123b576040517f08c379a000000000000000000000000000000000000000000000000000000000815260040161123290612366565b60405180910390fd5b600660008888848181106112525761125161258d565b5b90506020020135815260200190815260200160002060009054906101000a900460ff16156112b5576040517f08c379a00000000000000000000000000000000000000000000000000000000081526004016112ac906127be565b60405180910390fd5b6000600460008989858181106112ce576112cd61258d565b5b90506020020135815260200190815260200160002090503373ffffffffffffffffffffffffffffffffffffffff168160040160009054906101000a900473ffffffffffffffffffffffffffffffffffffffff1673ffffffffffffffffffffffffffffffffffffffff1614611377576040517f08c379a000000000000000000000000000000000000000000000000000000000815260040161136e90612850565b60405180910390fd5b61138981600601548260070154611a16565b156113c9576040517f08c379a00000000000000000000000000000000000000000000000000000000081526004016113c0906128bc565b60405180910390fd5b806005015481600801541015611414576040517f08c379a000000000000000000000000000000000000000000000000000000000815260040161140b9061294e565b60405180910390fd5b8060080154935061144760646114396002548460080154611a4b90919063ffffffff16565b611a6190919063ffffffff16565b925060008054906101000a900473ffffffffffffffffffffffffffffffffffffffff1673ffffffffffffffffffffffffffffffffffffffff1663a9059cbb336114998688611a7790919063ffffffff16565b6040518363ffffffff1660e01b81526004016114b6929190612674565b602060405180830381600087803b1580156114d057600080fd5b505af11580156114e4573d6000803e3d6000fd5b505050506040513d601f19601f8201168201806040525081019061150891906124a1565b61151157600080fd5b60008054906101000a900473ffffffffffffffffffffffffffffffffffffffff1673ffffffffffffffffffffffffffffffffffffffff1663a9059cbb600160009054906101000a900473ffffffffffffffffffffffffffffffffffffffff16856040518363ffffffff1660e01b815260040161158e929190612674565b602060405180830381600087803b1580156115a857600080fd5b505af11580156115bc573d6000803e3d6000fd5b505050506040513d601f19601f820116820180604052508101906115e091906124a1565b6115e957600080fd5b6001600660008a8a868181106116025761160161258d565b5b90506020020135815260200190815260200160002060006101000a81548160ff0219169083151502179055503373ffffffffffffffffffffffffffffffffffffffff167fa284acea865988df8511069bd7a13cb66e046cb28712800b8099e2c9c011a2568989858181106116795761167861258d565b5b905060200201356116938688611a7790919063ffffffff16565b86426040516116a594939291906122d5565b60405180910390a25080806116b990612703565b9150506111b6565b50505050505050565b6000811161170d576040517f08c379a0000000000000000000000000000000000000000000000000000000008152600401611704906129e0565b60405180910390fd5b624f1a008110611752576040517f08c379a000000000000000000000000000000000000000000000000000000000815260040161174990612a72565b60405180910390fd5b6000855111611796576040517f08c379a000000000000000000000000000000000000000000000000000000000815260040161178d90612ade565b60405180910390fd5b60008451116117da576040517f08c379a00000000000000000000000000000000000000000000000000000000081526004016117d190612b4a565b60405180910390fd5b600083511161181e576040517f08c379a000000000000000000000000000000000000000000000000000000000815260040161181590612bb6565b60405180910390fd5b6118346001600354611a3590919063ffffffff16565b60038190555060405180610140016040528060035481526020018681526020018581526020018481526020013373ffffffffffffffffffffffffffffffffffffffff1681526020018381526020018281526020014281526020016000815260200160008152506004600060035481526020019081526020016000206000820151816000015560208201518160010190805190602001906118d5929190611a8d565b5060408201518160020190805190602001906118f2929190611a8d565b50606082015181600301908051906020019061190f929190611a8d565b5060808201518160040160006101000a81548173ffffffffffffffffffffffffffffffffffffffff021916908373ffffffffffffffffffffffffffffffffffffffff16021790555060a0820151816005015560c0820151816006015560e08201518160070155610100820151816008015561012082015181600901559050503373ffffffffffffffffffffffffffffffffffffffff167f10209b84a35ba76afaea6f0a51d3bf5da359f3446afa37f1e83dc73fd7a5f1bc6003548787878787426000806040516119e799989796959493929190612c1b565b60405180910390a25050505050565b60066020528060005260406000206000915054906101000a900460ff1681565b600042611a2c8385611a3590919063ffffffff16565b11905092915050565b60008183611a439190612cbd565b905092915050565b60008183611a599190612d13565b905092915050565b60008183611a6f9190612d9c565b905092915050565b60008183611a859190612dcd565b905092915050565b828054611a9990612139565b90600052602060002090601f016020900481019282611abb5760008555611b02565b82601f10611ad457805160ff1916838001178555611b02565b82800160010185558215611b02579182015b82811115611b01578251825591602001919060010190611ae6565b5b509050611b0f9190611b13565b5090565b5b80821115611b2c576000816000905550600101611b14565b5090565b6000604051905090565b600080fd5b600080fd5b6000819050919050565b611b5781611b44565b8114611b6257600080fd5b50565b600081359050611b7481611b4e565b92915050565b600060208284031215611b9057611b8f611b3a565b5b6000611b9e84828501611b65565b91505092915050565b611bb081611b44565b82525050565b600081519050919050565b600082825260208201905092915050565b60005b83811015611bf0578082015181840152602081019050611bd5565b83811115611bff576000848401525b50505050565b6000601f19601f8301169050919050565b6000611c2182611bb6565b611c2b8185611bc1565b9350611c3b818560208601611bd2565b611c4481611c05565b840191505092915050565b600073ffffffffffffffffffffffffffffffffffffffff82169050919050565b6000611c7a82611c4f565b9050919050565b611c8a81611c6f565b82525050565b600061014082019050611ca6600083018d611ba7565b8181036020830152611cb8818c611c16565b90508181036040830152611ccc818b611c16565b90508181036060830152611ce0818a611c16565b9050611cef6080830189611c81565b611cfc60a0830188611ba7565b611d0960c0830187611ba7565b611d1660e0830186611ba7565b611d24610100830185611ba7565b611d32610120830184611ba7565b9b9a5050505050505050505050565b6000602082019050611d566000830184611ba7565b92915050565b611d6581611c6f565b8114611d7057600080fd5b50565b600081359050611d8281611d5c565b92915050565b60008060408385031215611d9f57611d9e611b3a565b5b6000611dad85828601611b65565b9250506020611dbe85828601611d73565b9150509250929050565b6000602082019050611ddd6000830184611c81565b92915050565b60008060408385031215611dfa57611df9611b3a565b5b6000611e0885828601611b65565b9250506020611e1985828601611b65565b9150509250929050565b600080fd5b600080fd5b600080fd5b60008083601f840112611e4857611e47611e23565b5b8235905067ffffffffffffffff811115611e6557611e64611e28565b5b602083019150836020820283011115611e8157611e80611e2d565b5b9250929050565b60008060208385031215611e9f57611e9e611b3a565b5b600083013567ffffffffffffffff811115611ebd57611ebc611b3f565b5b611ec985828601611e32565b92509250509250929050565b60008115159050919050565b611eea81611ed5565b82525050565b6000602082019050611f056000830184611ee1565b92915050565b600080fd5b7f4e487b7100000000000000000000000000000000000000000000000000000000600052604160045260246000fd5b611f4882611c05565b810181811067ffffffffffffffff82111715611f6757611f66611f10565b5b80604052505050565b6000611f7a611b30565b9050611f868282611f3f565b919050565b600067ffffffffffffffff821115611fa657611fa5611f10565b5b611faf82611c05565b9050602081019050919050565b82818337600083830152505050565b6000611fde611fd984611f8b565b611f70565b905082815260208101848484011115611ffa57611ff9611f0b565b5b612005848285611fbc565b509392505050565b600082601f83011261202257612021611e23565b5b8135612032848260208601611fcb565b91505092915050565b600080600080600060a0868803121561205757612056611b3a565b5b600086013567ffffffffffffffff81111561207557612074611b3f565b5b6120818882890161200d565b955050602086013567ffffffffffffffff8111156120a2576120a1611b3f565b5b6120ae8882890161200d565b945050604086013567ffffffffffffffff8111156120cf576120ce611b3f565b5b6120db8882890161200d565b93505060606120ec88828901611b65565b92505060806120fd88828901611b65565b9150509295509295909350565b7f4e487b7100000000000000000000000000000000000000000000000000000000600052602260045260246000fd5b6000600282049050600182168061215157607f821691505b602082108114156121655761216461210a565b5b50919050565b7f4572726f722c2077726f6e672069640000000000000000000000000000000000600082015250565b60006121a1600f83611bc1565b91506121ac8261216b565b602082019050919050565b600060208201905081810360008301526121d081612194565b9050919050565b7f4572726f722c2070726f6a656374206d757374206265206f70656e0000000000600082015250565b600061220d601b83611bc1565b9150612218826121d7565b602082019050919050565b6000602082019050818103600083015261223c81612200565b9050919050565b7f4572726f722c206f6e6c792063726561746f722063616e2063616e63656c207460008201527f686569722070726f6a6563740000000000000000000000000000000000000000602082015250565b600061229f602c83611bc1565b91506122aa82612243565b604082019050919050565b600060208201905081810360008301526122ce81612292565b9050919050565b60006080820190506122ea6000830187611ba7565b6122f76020830186611ba7565b6123046040830185611ba7565b6123116060830184611ba7565b95945050505050565b7f4572726f722c2070726f6a6563742069732063616e63656c6564000000000000600082015250565b6000612350601a83611bc1565b915061235b8261231a565b602082019050919050565b6000602082019050818103600083015261237f81612343565b9050919050565b7f4572726f722c2063726561746f727320617265206e6f7420616c6c6f7765642060008201527f746f206164642066756e647320746f207468656972206f776e2070726f6a656360208201527f7473000000000000000000000000000000000000000000000000000000000000604082015250565b6000612408604283611bc1565b915061241382612386565b606082019050919050565b60006020820190508181036000830152612437816123fb565b9050919050565b60006060820190506124536000830186611c81565b6124606020830185611c81565b61246d6040830184611ba7565b949350505050565b61247e81611ed5565b811461248957600080fd5b50565b60008151905061249b81612475565b92915050565b6000602082840312156124b7576124b6611b3a565b5b60006124c58482850161248c565b91505092915050565b600060a0820190506124e36000830188611ba7565b6124f06020830187611ba7565b6124fd6040830186611ba7565b61250a6060830185611ba7565b6125176080830184611ba7565b9695505050505050565b7f4572726f722c206964732061727261792063616e6e6f7420626520656d707479600082015250565b6000612557602083611bc1565b915061256282612521565b602082019050919050565b600060208201905081810360008301526125868161254a565b9050919050565b7f4e487b7100000000000000000000000000000000000000000000000000000000600052603260045260246000fd5b7f4572726f722c206e6f20726566756e647320756e6c6573732070726f6a65637460008201527f20686173206265656e2063616e63656c6564206f7220646964206e6f74206d6560208201527f65742066756e64696e6720676f616c0000000000000000000000000000000000604082015250565b600061263e604f83611bc1565b9150612649826125bc565b606082019050919050565b6000602082019050818103600083015261266d81612631565b9050919050565b60006040820190506126896000830185611c81565b6126966020830184611ba7565b9392505050565b60006060820190506126b26000830186611ba7565b6126bf6020830185611ba7565b6126cc6040830184611ba7565b949350505050565b7f4e487b7100000000000000000000000000000000000000000000000000000000600052601160045260246000fd5b600061270e82611b44565b91507fffffffffffffffffffffffffffffffffffffffffffffffffffffffffffffffff821415612741576127406126d4565b5b600182019050919050565b7f4572726f722c20636f6c6c65637465642070726f6a6563742066756e6473206160008201527f6c7265616479207472616e736665726564000000000000000000000000000000602082015250565b60006127a8603183611bc1565b91506127b38261274c565b604082019050919050565b600060208201905081810360008301526127d78161279b565b9050919050565b7f4572726f722c206f6e6c792063726561746f722063616e207472616e7366657260008201527f20636f6c6c65637465642070726f6a6563742066756e64730000000000000000602082015250565b600061283a603883611bc1565b9150612845826127de565b604082019050919050565b600060208201905081810360008301526128698161282d565b9050919050565b7f4572726f722c2070726f6a656374207374696c6c206f70656e00000000000000600082015250565b60006128a6601983611bc1565b91506128b182612870565b602082019050919050565b600060208201905081810360008301526128d581612899565b9050919050565b7f4572726f722c2070726f6a65637420646964206e6f74206d6565742066756e6460008201527f696e6720676f616c20696e2074696d6500000000000000000000000000000000602082015250565b6000612938603083611bc1565b9150612943826128dc565b604082019050919050565b600060208201905081810360008301526129678161292b565b9050919050565b7f4572726f722c2074696d6520676f616c206d75737420657869737420696e207460008201527f6865206675747572650000000000000000000000000000000000000000000000602082015250565b60006129ca602983611bc1565b91506129d58261296e565b604082019050919050565b600060208201905081810360008301526129f9816129bd565b9050919050565b7f4572726f722c2074696d6520676f616c206d757374206265206c65737320746860008201527f616e203630206461797300000000000000000000000000000000000000000000602082015250565b6000612a5c602a83611bc1565b9150612a6782612a00565b604082019050919050565b60006020820190508181036000830152612a8b81612a4f565b9050919050565b7f4572726f722c206e616d65206d75737420657869737400000000000000000000600082015250565b6000612ac8601683611bc1565b9150612ad382612a92565b602082019050919050565b60006020820190508181036000830152612af781612abb565b9050919050565b7f4572726f722c206465736372697074696f6e206d757374206578697374000000600082015250565b6000612b34601d83611bc1565b9150612b3f82612afe565b602082019050919050565b60006020820190508181036000830152612b6381612b27565b9050919050565b7f4572726f722c20696d6167652068617368206d75737420657869737400000000600082015250565b6000612ba0601c83611bc1565b9150612bab82612b6a565b602082019050919050565b60006020820190508181036000830152612bcf81612b93565b9050919050565b6000819050919050565b6000819050919050565b6000612c05612c00612bfb84612bd6565b612be0565b611b44565b9050919050565b612c1581612bea565b82525050565b600061012082019050612c31600083018c611ba7565b8181036020830152612c43818b611c16565b90508181036040830152612c57818a611c16565b90508181036060830152612c6b8189611c16565b9050612c7a6080830188611ba7565b612c8760a0830187611ba7565b612c9460c0830186611ba7565b612ca160e0830185612c0c565b612caf610100830184612c0c565b9a9950505050505050505050565b6000612cc882611b44565b9150612cd383611b44565b9250827fffffffffffffffffffffffffffffffffffffffffffffffffffffffffffffffff03821115612d0857612d076126d4565b5b828201905092915050565b6000612d1e82611b44565b9150612d2983611b44565b9250817fffffffffffffffffffffffffffffffffffffffffffffffffffffffffffffffff0483118215151615612d6257612d616126d4565b5b828202905092915050565b7f4e487b7100000000000000000000000000000000000000000000000000000000600052601260045260246000fd5b6000612da782611b44565b9150612db283611b44565b925082612dc257612dc1612d6d565b5b828204905092915050565b6000612dd882611b44565b9150612de383611b44565b925082821015612df657612df56126d4565b5b82820390509291505056fea26469706673582212203226660481f35ad6232bf775dbb31e0c04a606954940d8c8559edb4de17a1b8b64736f6c63430008090033",
  "immutableReferences": {},
  "source": "//SPDX-License-Identifier: UNLICENSED\r\n\r\npragma solidity ^0.8.0;\r\n\r\nimport \"./Dai.sol\";\r\nimport \"openzeppelin-solidity/contracts/utils/math/SafeMath.sol\";\r\nimport \"openzeppelin-solidity/contracts/token/ERC20/IERC20.sol\";\r\n\r\ncontract Crowdfunder {\r\n\r\n\tusing SafeMath for uint;\r\n\tIERC20 dai; \r\n\taddress public feeAccount; // the account that receives transfer fees\r\n\tuint256 public feePercent; // the fee percentage\r\n\tuint256 public projectCount;\r\n\tmapping(uint256 => _Project) public projects;\r\n\tmapping (uint256 => bool) public projectCancelled;\r\n\tmapping (uint256 => bool) public projectFundsTransfered;\r\n\tmapping(uint256 => mapping (address => uint256)) public supporterFunds;\r\n\tevent ProjectMade (\r\n\t\tuint256 id,\r\n\t\tstring name,\r\n\t\tstring description,\r\n\t\tstring imgHash,\r\n\t\taddress indexed creator,\r\n\t\tuint256 fundGoal,\r\n\t\tuint256 timeGoal,\r\n\t\tuint256 timestamp,\r\n\t\tuint256 totalFunds,\r\n\t\tuint256 supporterCount\t\r\n\t);\r\n\tevent Cancel (\r\n\t\tuint256 id,\r\n\t\taddress indexed creator,\r\n\t\tuint256 fundGoal,\r\n\t\tuint256 timeGoal,\r\n\t\tuint256 timestamp\t\r\n\t);\r\n\tevent Contribution (\r\n\t\tuint256 id,\r\n\t\taddress indexed supporter,\r\n\t\tuint256 supporterCount,\r\n\t\tuint256 totalFunds,\r\n\t\tuint256 fundAmount,\t\r\n\t\tuint256 timestamp\t\t\r\n\t);\r\n\tevent Transfer (\r\n\t\tuint256 id,\r\n\t\taddress indexed creator,\r\n\t\tuint256 transferAmount,\r\n\t\tuint256 feeAmount,\r\n\t\tuint256 timestamp\r\n\t);\r\n\tevent Refund (\r\n\t\tuint256 id,\r\n\t\taddress indexed supporter,\r\n\t\tuint256 refundAmount,\r\n\t\tuint256 timestamp\t\r\n\t);\r\n\tstruct _Project {\r\n\t\tuint256 id;\r\n\t\tstring name; \r\n\t\tstring description;\r\n\t\tstring imgHash;\r\n\t\taddress creator;\r\n\t\tuint256 fundGoal;\r\n\t\tuint256 timeGoal;\r\n\t\tuint256 timestamp;\r\n\t\tuint256 totalFunds;\r\n\t\tuint256 supporterCount;\r\n\t}\r\n\r\n\tconstructor (address _feeAccount, uint256 _feePercent) {\r\n\t\tfeeAccount = _feeAccount;\r\n\t\tfeePercent = _feePercent;\r\n\t}\r\n\tmodifier onlyValidIds (uint256 _id) {\r\n\t\trequire(_id > 0 && _id <= projectCount, 'Error, wrong id');\r\n\t\t_;\r\n\t}\r\n\tmodifier onlyNonEmptyArrays (uint256[] calldata _ids) {\r\n\t\trequire(_ids.length > 0, 'Error, ids array cannot be empty');\r\n\t\t_;\r\n\t}\r\n\r\n\t// Fallback: reverts if Ether is sent to this smart contract by mistake\r\n    fallback () external { revert(); }\r\n\r\n\r\n\tfunction makeProject(string memory _name, string memory _description, string memory _imgHash, uint256 _fundGoal, uint256 _timeGoal) external {\r\n\t\trequire(_timeGoal > 0, 'Error, time goal must exist in the future');\r\n\t\trequire(_timeGoal < 5184000, 'Error, time goal must be less than 60 days');\r\n\t\trequire(bytes(_name).length > 0, 'Error, name must exist');\r\n\t\trequire(bytes(_description).length > 0, 'Error, description must exist');\r\n\t\trequire(bytes(_imgHash).length > 0, 'Error, image hash must exist');\r\n\t\tprojectCount = projectCount.add(1);\r\n\t\tprojects[projectCount] = _Project(projectCount, _name, _description, _imgHash, msg.sender, _fundGoal, _timeGoal, block.timestamp, 0, 0);\r\n\t\temit ProjectMade(projectCount, _name, _description, _imgHash, msg.sender, _fundGoal, _timeGoal, block.timestamp, 0, 0);\r\n\t}\r\n\r\n\tfunction IsOpen(uint256 _timeGoal, uint256 _timestamp) internal view returns(bool) {\r\n\t\treturn(_timeGoal.add(_timestamp) > block.timestamp);\r\n\t}\r\n\r\n\tfunction cancelProject(uint256 _id) onlyValidIds(_id) external {\r\n\t\t_Project storage _project = projects[_id];\r\n\t\trequire(IsOpen(_project.fundGoal, _project.timestamp), 'Error, project must be open');\r\n\t\trequire(address(_project.creator) == msg.sender, 'Error, only creator can cancel their project');\r\n\t\tprojectCancelled[_id] = true;\r\n\t\temit Cancel(_project.id, msg.sender, _project.fundGoal, _project.timeGoal, block.timestamp);\r\n\t}\r\n\r\n\tfunction contribute(uint256 _id, uint256 _amount) onlyValidIds(_id) external {\r\n\t\trequire(!projectCancelled[_id], 'Error, project is canceled');\r\n\t\t_Project memory _project = projects[_id];\r\n\t\trequire(msg.sender != _project.creator, 'Error, creators are not allowed to add funds to their own projects');\r\n\t\trequire(IsOpen(_project.timeGoal, _project.timestamp), 'Error, project must be open');\r\n\t\trequire(dai.transferFrom(msg.sender, address(this), _amount));\r\n\t\tif(supporterFunds[_id][msg.sender] == 0) {\r\n\t\t\t_project.supporterCount = _project.supporterCount.add(1);\t\r\n\t\t}\r\n\t\t_project.totalFunds = _project.totalFunds.add(_amount);\r\n\t\tsupporterFunds[_id][msg.sender] = supporterFunds[_id][msg.sender].add(_amount);\r\n\t\tprojects[_id] = _project;\r\n\t\temit Contribution (_id, msg.sender, _project.supporterCount, _project.totalFunds, _amount, block.timestamp);\t\r\n\t}\r\n\r\n\tfunction transfer(uint256[] calldata _ids) onlyNonEmptyArrays(_ids) external {\r\n\t\tuint256 _totalFunds;\r\n\t\tuint256 _feeAmount;\r\n\t\tfor(uint256 i = 0; i < _ids.length; i++) {\r\n\t\t\trequire(!projectCancelled[_ids[i]], 'Error, project is canceled');\r\n\t\t\trequire(!projectFundsTransfered[_ids[i]], 'Error, collected project funds already transfered');\r\n\t\t\t_Project storage _project = projects[_ids[i]];\r\n\t\t\trequire(address(_project.creator) == msg.sender, 'Error, only creator can transfer collected project funds');\r\n\t\t\trequire(!IsOpen(_project.timeGoal, _project.timestamp), 'Error, project still open');\r\n\t\t\trequire(_project.totalFunds >= _project.fundGoal, 'Error, project did not meet funding goal in time');\r\n\t\t\t_totalFunds = _project.totalFunds;\r\n\t\t\t_feeAmount = _project.totalFunds.mul(feePercent).div(100);\r\n\t\t\trequire(dai.transfer(msg.sender, _totalFunds.sub(_feeAmount)));\r\n\t\t\trequire(dai.transfer(feeAccount, _feeAmount));\r\n\t\t\tprojectFundsTransfered[_ids[i]] = true;\r\n\t\t\temit Transfer(_ids[i], msg.sender, _totalFunds.sub(_feeAmount), _feeAmount, block.timestamp);\r\n\t\t}\r\n\t}\r\n\r\n\tfunction refund(uint256[] calldata _ids) onlyNonEmptyArrays(_ids) external {\r\n\t\tbool _underFunded;\r\n\t\tbool _failed;\r\n\t\tuint256 _supporterFunds;\r\n\t\tfor(uint256 i = 0; i < _ids.length; i++) {\r\n\t\t\t_Project storage _project = projects[_ids[i]];\r\n\t\t\t_underFunded = _project.totalFunds < _project.fundGoal;\r\n\t\t\t_failed = !IsOpen(_project.timeGoal, _project.timestamp) && _underFunded;\r\n\t\t\trequire(_failed || projectCancelled[_ids[i]], 'Error, no refunds unless project has been canceled or did not meet funding goal');\r\n\t\t\t_supporterFunds = supporterFunds[_ids[i]][msg.sender];\r\n\t\t\trequire(dai.transfer(msg.sender, _supporterFunds));\r\n\t\t\tdelete supporterFunds[_ids[i]][msg.sender];\r\n\t\t\temit Refund(_ids[i], msg.sender, _supporterFunds, block.timestamp);\r\n\t\t}\t\r\n\t}\r\n}\r\n\r\n// Place timeGoal and fundingGoal limits\r\n// timeGoal limit would depend on fundgoal\r\n// timeGoalLimit == fundGoal*C\r\n// timeGoalLimit would not depend on the fundGoal digit number\r\n// change _amount data type from uint256 to uint16\r\n",
  "sourcePath": "/mnt/c/pr0/make-it-happen/src/contracts/Crowdfunder.sol",
  "compiler": {
    "name": "solc",
    "version": "0.8.9+commit.e5eed63a.Emscripten.clang"
  },
  "schemaVersion": "3.4.1",
  "updatedAt": "2021-10-27T19:37:59.862Z",
  "networkType": "ethereum",
  "devdoc": {
    "kind": "dev",
    "methods": {},
    "version": 1
  },
  "userdoc": {
    "kind": "user",
    "methods": {},
    "version": 1
  }
}