{
  "contractName": "Crowdfunder",
  "abi": [
    {
      "inputs": [
        {
          "internalType": "address",
          "name": "daiAddress",
          "type": "address"
        },
        {
          "internalType": "address",
          "name": "_feeAccount",
          "type": "address"
        },
        {
          "internalType": "uint256",
          "name": "_feePercent",
          "type": "uint256"
        }
      ],
      "stateMutability": "nonpayable",
      "type": "constructor"
    },
    {
      "anonymous": false,
      "inputs": [
        {
          "indexed": false,
          "internalType": "uint256",
          "name": "id",
          "type": "uint256"
        },
        {
          "indexed": true,
          "internalType": "address",
          "name": "creator",
          "type": "address"
        },
        {
          "indexed": false,
          "internalType": "uint256",
          "name": "fundGoal",
          "type": "uint256"
        },
        {
          "indexed": false,
          "internalType": "uint256",
          "name": "timeGoal",
          "type": "uint256"
        },
        {
          "indexed": false,
          "internalType": "uint256",
          "name": "timestamp",
          "type": "uint256"
        }
      ],
      "name": "Cancel",
      "type": "event"
    },
    {
      "anonymous": false,
      "inputs": [
        {
          "indexed": false,
          "internalType": "uint256",
          "name": "id",
          "type": "uint256"
        },
        {
          "indexed": true,
          "internalType": "address",
          "name": "supporter",
          "type": "address"
        },
        {
          "indexed": false,
          "internalType": "uint256",
          "name": "supporterCount",
          "type": "uint256"
        },
        {
          "indexed": false,
          "internalType": "uint256",
          "name": "totalFunds",
          "type": "uint256"
        },
        {
          "indexed": false,
          "internalType": "uint256",
          "name": "fundAmount",
          "type": "uint256"
        },
        {
          "indexed": false,
          "internalType": "uint256",
          "name": "timestamp",
          "type": "uint256"
        }
      ],
      "name": "Contribution",
      "type": "event"
    },
    {
      "anonymous": false,
      "inputs": [
        {
          "indexed": false,
          "internalType": "uint256",
          "name": "id",
          "type": "uint256"
        },
        {
          "indexed": false,
          "internalType": "string",
          "name": "name",
          "type": "string"
        },
        {
          "indexed": false,
          "internalType": "string",
          "name": "description",
          "type": "string"
        },
        {
          "indexed": false,
          "internalType": "string",
          "name": "imgHash",
          "type": "string"
        },
        {
          "indexed": true,
          "internalType": "address",
          "name": "creator",
          "type": "address"
        },
        {
          "indexed": false,
          "internalType": "uint256",
          "name": "fundGoal",
          "type": "uint256"
        },
        {
          "indexed": false,
          "internalType": "uint256",
          "name": "timeGoal",
          "type": "uint256"
        },
        {
          "indexed": false,
          "internalType": "uint256",
          "name": "timestamp",
          "type": "uint256"
        }
      ],
      "name": "ProjectMade",
      "type": "event"
    },
    {
      "anonymous": false,
      "inputs": [
        {
          "indexed": false,
          "internalType": "uint256",
          "name": "id",
          "type": "uint256"
        },
        {
          "indexed": true,
          "internalType": "address",
          "name": "supporter",
          "type": "address"
        },
        {
          "indexed": false,
          "internalType": "uint256",
          "name": "refundAmount",
          "type": "uint256"
        },
        {
          "indexed": false,
          "internalType": "uint256",
          "name": "timestamp",
          "type": "uint256"
        }
      ],
      "name": "Refund",
      "type": "event"
    },
    {
      "anonymous": false,
      "inputs": [
        {
          "indexed": false,
          "internalType": "uint256",
          "name": "id",
          "type": "uint256"
        },
        {
          "indexed": true,
          "internalType": "address",
          "name": "creator",
          "type": "address"
        },
        {
          "indexed": false,
          "internalType": "uint256",
          "name": "fundAmount",
          "type": "uint256"
        },
        {
          "indexed": false,
          "internalType": "uint256",
          "name": "feeAmount",
          "type": "uint256"
        },
        {
          "indexed": false,
          "internalType": "uint256",
          "name": "timestamp",
          "type": "uint256"
        }
      ],
      "name": "Transfer",
      "type": "event"
    },
    {
      "stateMutability": "nonpayable",
      "type": "fallback"
    },
    {
      "inputs": [],
      "name": "feeAccount",
      "outputs": [
        {
          "internalType": "address",
          "name": "",
          "type": "address"
        }
      ],
      "stateMutability": "view",
      "type": "function",
      "constant": true
    },
    {
      "inputs": [],
      "name": "feePercent",
      "outputs": [
        {
          "internalType": "uint256",
          "name": "",
          "type": "uint256"
        }
      ],
      "stateMutability": "view",
      "type": "function",
      "constant": true
    },
    {
      "inputs": [
        {
          "internalType": "uint256",
          "name": "",
          "type": "uint256"
        }
      ],
      "name": "projectCancelled",
      "outputs": [
        {
          "internalType": "bool",
          "name": "",
          "type": "bool"
        }
      ],
      "stateMutability": "view",
      "type": "function",
      "constant": true
    },
    {
      "inputs": [],
      "name": "projectCount",
      "outputs": [
        {
          "internalType": "uint256",
          "name": "",
          "type": "uint256"
        }
      ],
      "stateMutability": "view",
      "type": "function",
      "constant": true
    },
    {
      "inputs": [
        {
          "internalType": "uint256",
          "name": "",
          "type": "uint256"
        }
      ],
      "name": "projectFundsTransfered",
      "outputs": [
        {
          "internalType": "bool",
          "name": "",
          "type": "bool"
        }
      ],
      "stateMutability": "view",
      "type": "function",
      "constant": true
    },
    {
      "inputs": [
        {
          "internalType": "uint256",
          "name": "",
          "type": "uint256"
        }
      ],
      "name": "projects",
      "outputs": [
        {
          "internalType": "uint256",
          "name": "id",
          "type": "uint256"
        },
        {
          "internalType": "string",
          "name": "name",
          "type": "string"
        },
        {
          "internalType": "string",
          "name": "description",
          "type": "string"
        },
        {
          "internalType": "string",
          "name": "imgHash",
          "type": "string"
        },
        {
          "internalType": "address",
          "name": "creator",
          "type": "address"
        },
        {
          "internalType": "uint256",
          "name": "fundGoal",
          "type": "uint256"
        },
        {
          "internalType": "uint256",
          "name": "timeGoal",
          "type": "uint256"
        },
        {
          "internalType": "uint256",
          "name": "timestamp",
          "type": "uint256"
        },
        {
          "internalType": "uint256",
          "name": "totalFunds",
          "type": "uint256"
        },
        {
          "internalType": "uint256",
          "name": "supporterCount",
          "type": "uint256"
        }
      ],
      "stateMutability": "view",
      "type": "function",
      "constant": true
    },
    {
      "inputs": [
        {
          "internalType": "uint256",
          "name": "",
          "type": "uint256"
        },
        {
          "internalType": "address",
          "name": "",
          "type": "address"
        }
      ],
      "name": "supporterFunds",
      "outputs": [
        {
          "internalType": "uint256",
          "name": "",
          "type": "uint256"
        }
      ],
      "stateMutability": "view",
      "type": "function",
      "constant": true
    },
    {
      "inputs": [
        {
          "internalType": "string",
          "name": "_name",
          "type": "string"
        },
        {
          "internalType": "string",
          "name": "_description",
          "type": "string"
        },
        {
          "internalType": "string",
          "name": "_imgHash",
          "type": "string"
        },
        {
          "internalType": "uint256",
          "name": "_fundGoal",
          "type": "uint256"
        },
        {
          "internalType": "uint256",
          "name": "_timeGoal",
          "type": "uint256"
        }
      ],
      "name": "makeProject",
      "outputs": [],
      "stateMutability": "nonpayable",
      "type": "function"
    },
    {
      "inputs": [
        {
          "internalType": "uint256",
          "name": "_id",
          "type": "uint256"
        }
      ],
      "name": "cancelProject",
      "outputs": [],
      "stateMutability": "nonpayable",
      "type": "function"
    },
    {
      "inputs": [
        {
          "internalType": "uint256",
          "name": "_id",
          "type": "uint256"
        },
        {
          "internalType": "uint256",
          "name": "_amount",
          "type": "uint256"
        }
      ],
      "name": "contribute",
      "outputs": [],
      "stateMutability": "nonpayable",
      "type": "function"
    },
    {
      "inputs": [
        {
          "internalType": "uint256",
          "name": "_id",
          "type": "uint256"
        }
      ],
      "name": "transfer",
      "outputs": [],
      "stateMutability": "nonpayable",
      "type": "function"
    },
    {
      "inputs": [
        {
          "internalType": "uint256",
          "name": "_id",
          "type": "uint256"
        }
      ],
      "name": "refund",
      "outputs": [],
      "stateMutability": "nonpayable",
      "type": "function"
    }
  ],
  "bytecode": "0x60806040523480156200001157600080fd5b5060405162002ceb38038062002ceb83398181016040528101906200003791906200016d565b826000806101000a81548173ffffffffffffffffffffffffffffffffffffffff021916908373ffffffffffffffffffffffffffffffffffffffff16021790555081600160006101000a81548173ffffffffffffffffffffffffffffffffffffffff021916908373ffffffffffffffffffffffffffffffffffffffff16021790555080600281905550505050620001c9565b600080fd5b600073ffffffffffffffffffffffffffffffffffffffff82169050919050565b6000620000fa82620000cd565b9050919050565b6200010c81620000ed565b81146200011857600080fd5b50565b6000815190506200012c8162000101565b92915050565b6000819050919050565b620001478162000132565b81146200015357600080fd5b50565b60008151905062000167816200013c565b92915050565b600080600060608486031215620001895762000188620000c8565b5b600062000199868287016200011b565b9350506020620001ac868287016200011b565b9250506040620001bf8682870162000156565b9150509250925092565b612b1280620001d96000396000f3fe608060405234801561001057600080fd5b50600436106100b85760003560e01c806365e17c9d1161007157806365e17c9d146101995780637fd6f15c146101b75780638c590917146101d5578063af9bdbe8146101f1578063ceb529dc14610221578063eeae24d01461023d576100b9565b8063107046bd146100be57806312514bba146100f75780632494114714610113578063278ecde11461012f57806336fbad261461014b5780636011bdec14610169576100b9565b5b600080fd5b6100d860048036038101906100d39190611a49565b61026d565b6040516100ee9a99989796959493929190611b5f565b60405180910390f35b610111600480360381019061010c9190611a49565b610479565b005b61012d60048036038101906101289190611a49565b610938565b005b61014960048036038101906101449190611a49565b610b15565b005b610153610d7b565b6040516101609190611c10565b60405180910390f35b610183600480360381019061017e9190611c57565b610d81565b6040516101909190611c10565b60405180910390f35b6101a1610da6565b6040516101ae9190611c97565b60405180910390f35b6101bf610dcc565b6040516101cc9190611c10565b60405180910390f35b6101ef60048036038101906101ea9190611cb2565b610dd2565b005b61020b60048036038101906102069190611a49565b61157e565b6040516102189190611d0d565b60405180910390f35b61023b60048036038101906102369190611e5d565b61159e565b005b61025760048036038101906102529190611a49565b6118c5565b6040516102649190611d0d565b60405180910390f35b600460205280600052604060002060009150905080600001549080600101805461029690611f5b565b80601f01602080910402602001604051908101604052809291908181526020018280546102c290611f5b565b801561030f5780601f106102e45761010080835404028352916020019161030f565b820191906000526020600020905b8154815290600101906020018083116102f257829003601f168201915b50505050509080600201805461032490611f5b565b80601f016020809104026020016040519081016040528092919081815260200182805461035090611f5b565b801561039d5780601f106103725761010080835404028352916020019161039d565b820191906000526020600020905b81548152906001019060200180831161038057829003601f168201915b5050505050908060030180546103b290611f5b565b80601f01602080910402602001604051908101604052809291908181526020018280546103de90611f5b565b801561042b5780601f106104005761010080835404028352916020019161042b565b820191906000526020600020905b81548152906001019060200180831161040e57829003601f168201915b5050505050908060040160009054906101000a900473ffffffffffffffffffffffffffffffffffffffff1690806005015490806006015490806007015490806008015490806009015490508a565b806005600082815260200190815260200160002060009054906101000a900460ff16156104db576040517f08c379a00000000000000000000000000000000000000000000000000000000081526004016104d290611fd9565b60405180910390fd5b6006600083815260200190815260200160002060009054906101000a900460ff161561053c576040517f08c379a00000000000000000000000000000000000000000000000000000000081526004016105339061206b565b60405180910390fd5b60006004600084815260200190815260200160002090503373ffffffffffffffffffffffffffffffffffffffff168160040160009054906101000a900473ffffffffffffffffffffffffffffffffffffffff1673ffffffffffffffffffffffffffffffffffffffff16146105e5576040517f08c379a00000000000000000000000000000000000000000000000000000000081526004016105dc906120fd565b60405180910390fd5b6105f7816006015482600701546118e5565b15610637576040517f08c379a000000000000000000000000000000000000000000000000000000000815260040161062e90612169565b60405180910390fd5b806005015481600801541015610682576040517f08c379a0000000000000000000000000000000000000000000000000000000008152600401610679906121fb565b60405180910390fd5b60008160080154905060006106b560646106a76002548561190490919063ffffffff16565b61191a90919063ffffffff16565b905060008054906101000a900473ffffffffffffffffffffffffffffffffffffffff1673ffffffffffffffffffffffffffffffffffffffff1663a9059cbb8460040160009054906101000a900473ffffffffffffffffffffffffffffffffffffffff1661072b848661193090919063ffffffff16565b6040518363ffffffff1660e01b815260040161074892919061221b565b602060405180830381600087803b15801561076257600080fd5b505af1158015610776573d6000803e3d6000fd5b505050506040513d601f19601f8201168201806040525081019061079a9190612270565b6107a357600080fd5b60008054906101000a900473ffffffffffffffffffffffffffffffffffffffff1673ffffffffffffffffffffffffffffffffffffffff1663a9059cbb600160009054906101000a900473ffffffffffffffffffffffffffffffffffffffff16836040518363ffffffff1660e01b815260040161082092919061221b565b602060405180830381600087803b15801561083a57600080fd5b505af115801561084e573d6000803e3d6000fd5b505050506040513d601f19601f820116820180604052508101906108729190612270565b61087b57600080fd5b60016006600087815260200190815260200160002060006101000a81548160ff0219169083151502179055508260040160009054906101000a900473ffffffffffffffffffffffffffffffffffffffff1673ffffffffffffffffffffffffffffffffffffffff167fa284acea865988df8511069bd7a13cb66e046cb28712800b8099e2c9c011a25686610917848661193090919063ffffffff16565b8442604051610929949392919061229d565b60405180910390a25050505050565b8060008111801561094b57506003548111155b61098a576040517f08c379a00000000000000000000000000000000000000000000000000000000081526004016109819061232e565b60405180910390fd5b60006004600084815260200190815260200160002090506109b3816005015482600701546118e5565b6109f2576040517f08c379a00000000000000000000000000000000000000000000000000000000081526004016109e99061239a565b60405180910390fd5b3373ffffffffffffffffffffffffffffffffffffffff168160040160009054906101000a900473ffffffffffffffffffffffffffffffffffffffff1673ffffffffffffffffffffffffffffffffffffffff1614610a84576040517f08c379a0000000000000000000000000000000000000000000000000000000008152600401610a7b9061242c565b60405180910390fd5b60016005600085815260200190815260200160002060006101000a81548160ff0219169083151502179055503373ffffffffffffffffffffffffffffffffffffffff167f7769bfc7786e1deefeb13e6106bf1f23574d6811046097ff1ef0234bc7de2b2c82600001548360050154846006015442604051610b08949392919061229d565b60405180910390a2505050565b60006004600083815260200190815260200160002090506000816005015482600801541090506000610b4f836006015484600701546118e5565b158015610b595750815b90508080610b8457506005600085815260200190815260200160002060009054906101000a900460ff165b610bc3576040517f08c379a0000000000000000000000000000000000000000000000000000000008152600401610bba906124e4565b60405180910390fd5b60006007600086815260200190815260200160002060003373ffffffffffffffffffffffffffffffffffffffff1673ffffffffffffffffffffffffffffffffffffffff16815260200190815260200160002054905060008054906101000a900473ffffffffffffffffffffffffffffffffffffffff1673ffffffffffffffffffffffffffffffffffffffff1663a9059cbb33836040518363ffffffff1660e01b8152600401610c7392919061221b565b602060405180830381600087803b158015610c8d57600080fd5b505af1158015610ca1573d6000803e3d6000fd5b505050506040513d601f19601f82011682018060405250810190610cc59190612270565b610cce57600080fd5b6007600086815260200190815260200160002060003373ffffffffffffffffffffffffffffffffffffffff1673ffffffffffffffffffffffffffffffffffffffff168152602001908152602001600020600090553373ffffffffffffffffffffffffffffffffffffffff167faba4210cad11f1112f31ba136a61cdc0f6ab4c2b478da8c93eec1d9769e97a89868342604051610d6c93929190612504565b60405180910390a25050505050565b60035481565b6007602052816000526040600020602052806000526040600020600091509150505481565b600160009054906101000a900473ffffffffffffffffffffffffffffffffffffffff1681565b60025481565b81600081118015610de557506003548111155b610e24576040517f08c379a0000000000000000000000000000000000000000000000000000000008152600401610e1b9061232e565b60405180910390fd5b826005600082815260200190815260200160002060009054906101000a900460ff1615610e86576040517f08c379a0000000000000000000000000000000000000000000000000000000008152600401610e7d90611fd9565b60405180910390fd5b6005600085815260200190815260200160002060009054906101000a900460ff1615610ee7576040517f08c379a0000000000000000000000000000000000000000000000000000000008152600401610ede90611fd9565b60405180910390fd5b6000600460008681526020019081526020016000206040518061014001604052908160008201548152602001600182018054610f2290611f5b565b80601f0160208091040260200160405190810160405280929190818152602001828054610f4e90611f5b565b8015610f9b5780601f10610f7057610100808354040283529160200191610f9b565b820191906000526020600020905b815481529060010190602001808311610f7e57829003601f168201915b50505050508152602001600282018054610fb490611f5b565b80601f0160208091040260200160405190810160405280929190818152602001828054610fe090611f5b565b801561102d5780601f106110025761010080835404028352916020019161102d565b820191906000526020600020905b81548152906001019060200180831161101057829003601f168201915b5050505050815260200160038201805461104690611f5b565b80601f016020809104026020016040519081016040528092919081815260200182805461107290611f5b565b80156110bf5780601f10611094576101008083540402835291602001916110bf565b820191906000526020600020905b8154815290600101906020018083116110a257829003601f168201915b505050505081526020016004820160009054906101000a900473ffffffffffffffffffffffffffffffffffffffff1673ffffffffffffffffffffffffffffffffffffffff1673ffffffffffffffffffffffffffffffffffffffff168152602001600582015481526020016006820154815260200160078201548152602001600882015481526020016009820154815250509050806080015173ffffffffffffffffffffffffffffffffffffffff163373ffffffffffffffffffffffffffffffffffffffff1614156111c5576040517f08c379a00000000000000000000000000000000000000000000000000000000081526004016111bc906125d3565b60405180910390fd5b6111d78160c001518260e001516118e5565b611216576040517f08c379a000000000000000000000000000000000000000000000000000000000815260040161120d9061239a565b60405180910390fd5b60008054906101000a900473ffffffffffffffffffffffffffffffffffffffff1673ffffffffffffffffffffffffffffffffffffffff166323b872dd3330876040518463ffffffff1660e01b8152600401611273939291906125f3565b602060405180830381600087803b15801561128d57600080fd5b505af11580156112a1573d6000803e3d6000fd5b505050506040513d601f19601f820116820180604052508101906112c59190612270565b6112ce57600080fd5b60006007600087815260200190815260200160002060003373ffffffffffffffffffffffffffffffffffffffff1673ffffffffffffffffffffffffffffffffffffffff16815260200190815260200160002054141561134b57611340600182610120015161194690919063ffffffff16565b816101200181815250505b6113638482610100015161194690919063ffffffff16565b816101000181815250506113d0846007600088815260200190815260200160002060003373ffffffffffffffffffffffffffffffffffffffff1673ffffffffffffffffffffffffffffffffffffffff1681526020019081526020016000205461194690919063ffffffff16565b6007600087815260200190815260200160002060003373ffffffffffffffffffffffffffffffffffffffff1673ffffffffffffffffffffffffffffffffffffffff16815260200190815260200160002081905550806004600087815260200190815260200160002060008201518160000155602082015181600101908051906020019061145e92919061195c565b50604082015181600201908051906020019061147b92919061195c565b50606082015181600301908051906020019061149892919061195c565b5060808201518160040160006101000a81548173ffffffffffffffffffffffffffffffffffffffff021916908373ffffffffffffffffffffffffffffffffffffffff16021790555060a0820151816005015560c0820151816006015560e08201518160070155610100820151816008015561012082015181600901559050503373ffffffffffffffffffffffffffffffffffffffff167f1d07f4996fa6104db13b09972924f4e243d9304b80685403cb743992bf174bda86836101200151846101000151884260405161156f95949392919061262a565b60405180910390a25050505050565b60056020528060005260406000206000915054906101000a900460ff1681565b600081116115e1576040517f08c379a00000000000000000000000000000000000000000000000000000000081526004016115d8906126ef565b60405180910390fd5b624f1a008110611626576040517f08c379a000000000000000000000000000000000000000000000000000000000815260040161161d90612781565b60405180910390fd5b600085511161166a576040517f08c379a0000000000000000000000000000000000000000000000000000000008152600401611661906127ed565b60405180910390fd5b60008451116116ae576040517f08c379a00000000000000000000000000000000000000000000000000000000081526004016116a590612859565b60405180910390fd5b60008351116116f2576040517f08c379a00000000000000000000000000000000000000000000000000000000081526004016116e9906128c5565b60405180910390fd5b611708600160035461194690919063ffffffff16565b60038190555060405180610140016040528060035481526020018681526020018581526020018481526020013373ffffffffffffffffffffffffffffffffffffffff1681526020018381526020018281526020014281526020016000815260200160008152506004600060035481526020019081526020016000206000820151816000015560208201518160010190805190602001906117a992919061195c565b5060408201518160020190805190602001906117c692919061195c565b5060608201518160030190805190602001906117e392919061195c565b5060808201518160040160006101000a81548173ffffffffffffffffffffffffffffffffffffffff021916908373ffffffffffffffffffffffffffffffffffffffff16021790555060a0820151816005015560c0820151816006015560e08201518160070155610100820151816008015561012082015181600901559050503373ffffffffffffffffffffffffffffffffffffffff167fec9855581b0348e5c86478107f0b8e1341c8e0347ccd0beedda1f43fa7c0bf8d6003548787878787426040516118b697969594939291906128e5565b60405180910390a25050505050565b60066020528060005260406000206000915054906101000a900460ff1681565b6000426118fb838561194690919063ffffffff16565b11905092915050565b600081836119129190612998565b905092915050565b600081836119289190612a21565b905092915050565b6000818361193e9190612a52565b905092915050565b600081836119549190612a86565b905092915050565b82805461196890611f5b565b90600052602060002090601f01602090048101928261198a57600085556119d1565b82601f106119a357805160ff19168380011785556119d1565b828001600101855582156119d1579182015b828111156119d05782518255916020019190600101906119b5565b5b5090506119de91906119e2565b5090565b5b808211156119fb5760008160009055506001016119e3565b5090565b6000604051905090565b600080fd5b600080fd5b6000819050919050565b611a2681611a13565b8114611a3157600080fd5b50565b600081359050611a4381611a1d565b92915050565b600060208284031215611a5f57611a5e611a09565b5b6000611a6d84828501611a34565b91505092915050565b611a7f81611a13565b82525050565b600081519050919050565b600082825260208201905092915050565b60005b83811015611abf578082015181840152602081019050611aa4565b83811115611ace576000848401525b50505050565b6000601f19601f8301169050919050565b6000611af082611a85565b611afa8185611a90565b9350611b0a818560208601611aa1565b611b1381611ad4565b840191505092915050565b600073ffffffffffffffffffffffffffffffffffffffff82169050919050565b6000611b4982611b1e565b9050919050565b611b5981611b3e565b82525050565b600061014082019050611b75600083018d611a76565b8181036020830152611b87818c611ae5565b90508181036040830152611b9b818b611ae5565b90508181036060830152611baf818a611ae5565b9050611bbe6080830189611b50565b611bcb60a0830188611a76565b611bd860c0830187611a76565b611be560e0830186611a76565b611bf3610100830185611a76565b611c01610120830184611a76565b9b9a5050505050505050505050565b6000602082019050611c256000830184611a76565b92915050565b611c3481611b3e565b8114611c3f57600080fd5b50565b600081359050611c5181611c2b565b92915050565b60008060408385031215611c6e57611c6d611a09565b5b6000611c7c85828601611a34565b9250506020611c8d85828601611c42565b9150509250929050565b6000602082019050611cac6000830184611b50565b92915050565b60008060408385031215611cc957611cc8611a09565b5b6000611cd785828601611a34565b9250506020611ce885828601611a34565b9150509250929050565b60008115159050919050565b611d0781611cf2565b82525050565b6000602082019050611d226000830184611cfe565b92915050565b600080fd5b600080fd5b7f4e487b7100000000000000000000000000000000000000000000000000000000600052604160045260246000fd5b611d6a82611ad4565b810181811067ffffffffffffffff82111715611d8957611d88611d32565b5b80604052505050565b6000611d9c6119ff565b9050611da88282611d61565b919050565b600067ffffffffffffffff821115611dc857611dc7611d32565b5b611dd182611ad4565b9050602081019050919050565b82818337600083830152505050565b6000611e00611dfb84611dad565b611d92565b905082815260208101848484011115611e1c57611e1b611d2d565b5b611e27848285611dde565b509392505050565b600082601f830112611e4457611e43611d28565b5b8135611e54848260208601611ded565b91505092915050565b600080600080600060a08688031215611e7957611e78611a09565b5b600086013567ffffffffffffffff811115611e9757611e96611a0e565b5b611ea388828901611e2f565b955050602086013567ffffffffffffffff811115611ec457611ec3611a0e565b5b611ed088828901611e2f565b945050604086013567ffffffffffffffff811115611ef157611ef0611a0e565b5b611efd88828901611e2f565b9350506060611f0e88828901611a34565b9250506080611f1f88828901611a34565b9150509295509295909350565b7f4e487b7100000000000000000000000000000000000000000000000000000000600052602260045260246000fd5b60006002820490506001821680611f7357607f821691505b60208210811415611f8757611f86611f2c565b5b50919050565b7f4572726f722c2070726f6a6563742069732063616e63656c6564000000000000600082015250565b6000611fc3601a83611a90565b9150611fce82611f8d565b602082019050919050565b60006020820190508181036000830152611ff281611fb6565b9050919050565b7f4572726f722c20636f6c6c65637465642070726f6a6563742066756e6473206160008201527f6c7265616479207472616e736665726564000000000000000000000000000000602082015250565b6000612055603183611a90565b915061206082611ff9565b604082019050919050565b6000602082019050818103600083015261208481612048565b9050919050565b7f4572726f722c206f6e6c792063726561746f722063616e207472616e7366657260008201527f20636f6c6c65637465642070726f6a6563742066756e64730000000000000000602082015250565b60006120e7603883611a90565b91506120f28261208b565b604082019050919050565b60006020820190508181036000830152612116816120da565b9050919050565b7f4572726f722c2070726f6a656374207374696c6c206f70656e00000000000000600082015250565b6000612153601983611a90565b915061215e8261211d565b602082019050919050565b6000602082019050818103600083015261218281612146565b9050919050565b7f4572726f722c2070726f6a65637420646964206e6f74206d6565742066756e6460008201527f696e6720676f616c20696e2074696d6500000000000000000000000000000000602082015250565b60006121e5603083611a90565b91506121f082612189565b604082019050919050565b60006020820190508181036000830152612214816121d8565b9050919050565b60006040820190506122306000830185611b50565b61223d6020830184611a76565b9392505050565b61224d81611cf2565b811461225857600080fd5b50565b60008151905061226a81612244565b92915050565b60006020828403121561228657612285611a09565b5b60006122948482850161225b565b91505092915050565b60006080820190506122b26000830187611a76565b6122bf6020830186611a76565b6122cc6040830185611a76565b6122d96060830184611a76565b95945050505050565b7f4572726f722c2077726f6e672069640000000000000000000000000000000000600082015250565b6000612318600f83611a90565b9150612323826122e2565b602082019050919050565b600060208201905081810360008301526123478161230b565b9050919050565b7f4572726f722c2070726f6a656374206d757374206265206f70656e0000000000600082015250565b6000612384601b83611a90565b915061238f8261234e565b602082019050919050565b600060208201905081810360008301526123b381612377565b9050919050565b7f4572726f722c206f6e6c792063726561746f722063616e2063616e63656c207460008201527f686569722070726f6a6563740000000000000000000000000000000000000000602082015250565b6000612416602c83611a90565b9150612421826123ba565b604082019050919050565b6000602082019050818103600083015261244581612409565b9050919050565b7f4572726f722c206e6f20726566756e647320756e6c6573732070726f6a65637460008201527f20686173206265656e2063616e63656c6564206f7220646f6573206e6f74206d60208201527f6565742066756e64696e6720676f616c20696e2074696d650000000000000000604082015250565b60006124ce605883611a90565b91506124d98261244c565b606082019050919050565b600060208201905081810360008301526124fd816124c1565b9050919050565b60006060820190506125196000830186611a76565b6125266020830185611a76565b6125336040830184611a76565b949350505050565b7f4572726f722c2063726561746f727320617265206e6f7420616c6c6f7765642060008201527f746f206164642066756e647320746f207468656972206f776e2070726f6a656360208201527f7473000000000000000000000000000000000000000000000000000000000000604082015250565b60006125bd604283611a90565b91506125c88261253b565b606082019050919050565b600060208201905081810360008301526125ec816125b0565b9050919050565b60006060820190506126086000830186611b50565b6126156020830185611b50565b6126226040830184611a76565b949350505050565b600060a08201905061263f6000830188611a76565b61264c6020830187611a76565b6126596040830186611a76565b6126666060830185611a76565b6126736080830184611a76565b9695505050505050565b7f4572726f722c2074696d6520676f616c206d75737420657869737420696e207460008201527f6865206675747572650000000000000000000000000000000000000000000000602082015250565b60006126d9602983611a90565b91506126e48261267d565b604082019050919050565b60006020820190508181036000830152612708816126cc565b9050919050565b7f4572726f722c2074696d6520676f616c206d757374206265206c65737320746860008201527f616e203630206461797300000000000000000000000000000000000000000000602082015250565b600061276b602a83611a90565b91506127768261270f565b604082019050919050565b6000602082019050818103600083015261279a8161275e565b9050919050565b7f4572726f722c206e616d65206d75737420657869737400000000000000000000600082015250565b60006127d7601683611a90565b91506127e2826127a1565b602082019050919050565b60006020820190508181036000830152612806816127ca565b9050919050565b7f4572726f722c206465736372697074696f6e206d757374206578697374000000600082015250565b6000612843601d83611a90565b915061284e8261280d565b602082019050919050565b6000602082019050818103600083015261287281612836565b9050919050565b7f4572726f722c20696d6167652068617368206d75737420657869737400000000600082015250565b60006128af601c83611a90565b91506128ba82612879565b602082019050919050565b600060208201905081810360008301526128de816128a2565b9050919050565b600060e0820190506128fa600083018a611a76565b818103602083015261290c8189611ae5565b905081810360408301526129208188611ae5565b905081810360608301526129348187611ae5565b90506129436080830186611a76565b61295060a0830185611a76565b61295d60c0830184611a76565b98975050505050505050565b7f4e487b7100000000000000000000000000000000000000000000000000000000600052601160045260246000fd5b60006129a382611a13565b91506129ae83611a13565b9250817fffffffffffffffffffffffffffffffffffffffffffffffffffffffffffffffff04831182151516156129e7576129e6612969565b5b828202905092915050565b7f4e487b7100000000000000000000000000000000000000000000000000000000600052601260045260246000fd5b6000612a2c82611a13565b9150612a3783611a13565b925082612a4757612a466129f2565b5b828204905092915050565b6000612a5d82611a13565b9150612a6883611a13565b925082821015612a7b57612a7a612969565b5b828203905092915050565b6000612a9182611a13565b9150612a9c83611a13565b9250827fffffffffffffffffffffffffffffffffffffffffffffffffffffffffffffffff03821115612ad157612ad0612969565b5b82820190509291505056fea26469706673582212204844139bd7a8d6fd53a5459b8b49895271678184920bf9ce43235c487edfce7d64736f6c63430008090033",
  "immutableReferences": {},
  "source": "//SPDX-License-Identifier: UNLICENSED\r\n\r\n\r\npragma solidity ^0.8.0;\r\n\r\nimport \"openzeppelin-solidity/contracts/utils/math/SafeMath.sol\";\r\nimport \"openzeppelin-solidity/contracts/token/ERC20/IERC20.sol\";\r\n\r\ncontract Crowdfunder {\r\n\r\n\tusing SafeMath for uint;\r\n\tIERC20 dai; \r\n\taddress public feeAccount; // the account that receives exchange fees\r\n\tuint256 public feePercent; // the fee percentage\r\n\tuint256 public projectCount;\r\n\tmapping(uint256 => _Project) public projects;\r\n\tmapping (uint256 => bool) public projectCancelled;\r\n\tmapping (uint256 => bool) public projectFundsTransfered;\r\n\tmapping(uint256 => mapping (address => uint256)) public supporterFunds;\r\n\tevent ProjectMade (\r\n\t\tuint256 id,\r\n\t\tstring name,\r\n\t\tstring description,\r\n\t\tstring imgHash,\r\n\t\taddress indexed creator,\r\n\t\tuint256 fundGoal,\r\n\t\tuint256 timeGoal,\r\n\t\tuint256 timestamp\t\r\n\t);\r\n\tevent Cancel (\r\n\t\tuint256 id,\r\n\t\taddress indexed creator,\r\n\t\tuint256 fundGoal,\r\n\t\tuint256 timeGoal,\r\n\t\tuint256 timestamp\t\r\n\t);\r\n\tevent Contribution (\r\n\t\tuint256 id,\r\n\t\taddress indexed supporter,\r\n\t\tuint256 supporterCount,\r\n\t\tuint256 totalFunds,\r\n\t\tuint256 fundAmount,\t\r\n\t\tuint256 timestamp\t\t\r\n\t);\r\n\tevent Transfer (\r\n\t\tuint256 id,\r\n\t\taddress indexed creator,\r\n\t\tuint256 fundAmount,\r\n\t\tuint256 feeAmount,\r\n\t\tuint256 timestamp\r\n\t);\r\n\tevent Refund (\r\n\t\tuint256 id,\r\n\t\taddress indexed supporter,\r\n\t\tuint256 refundAmount,\r\n\t\tuint256 timestamp\t\r\n\t);\r\n\tstruct _Project {\r\n\t\tuint256 id;\r\n\t\tstring name; \r\n\t\tstring description;\r\n\t\tstring imgHash;\r\n\t\taddress creator;\r\n\t\tuint256 fundGoal;\r\n\t\tuint256 timeGoal;\r\n\t\tuint256 timestamp;\r\n\t\tuint256 totalFunds;\r\n\t\tuint256 supporterCount;\r\n\t}\r\n\r\n\tconstructor (address daiAddress, address _feeAccount, uint256 _feePercent) {\r\n\t\tdai = IERC20(daiAddress);\r\n\t\tfeeAccount = _feeAccount;\r\n\t\tfeePercent = _feePercent;\r\n\t}\r\n\tmodifier onlyValidIds (uint256 _id) {\r\n\t\trequire(_id > 0 && _id <= projectCount, 'Error, wrong id');\r\n\t\t_;\r\n\t}\r\n\tmodifier onlyNoncancelled (uint256 _id) {\r\n\t\trequire(!projectCancelled[_id], 'Error, project is canceled');\r\n\t\t_;\r\n\t}\r\n\r\n\t// Fallback: reverts if Ether is sent to this smart contract by mistake\r\n    fallback () external { revert(); }\r\n\r\n\r\n\tfunction makeProject(string memory _name, string memory _description, string memory _imgHash, uint256 _fundGoal, uint256 _timeGoal) external {\r\n\t\trequire(_timeGoal > 0, 'Error, time goal must exist in the future');\r\n\t\trequire(_timeGoal < 5184000, 'Error, time goal must be less than 60 days');\r\n\t\trequire(bytes(_name).length > 0, 'Error, name must exist');\r\n\t\trequire(bytes(_description).length > 0, 'Error, description must exist');\r\n\t\trequire(bytes(_imgHash).length > 0, 'Error, image hash must exist');\r\n\t\tprojectCount = projectCount.add(1);\r\n\t\tprojects[projectCount] = _Project(projectCount, _name, _description, _imgHash, msg.sender, _fundGoal, _timeGoal, block.timestamp, 0, 0);\r\n\t\temit ProjectMade(projectCount, _name, _description, _imgHash, msg.sender, _fundGoal, _timeGoal, block.timestamp);\r\n\t}\r\n\r\n\tfunction IsOpen(uint256 _timeGoal, uint256 _timestamp) internal view returns(bool) {\r\n\t\treturn(_timeGoal.add(_timestamp) > block.timestamp);\r\n\t}\r\n\r\n\tfunction cancelProject(uint256 _id) onlyValidIds(_id) external {\r\n\t\t_Project storage _project = projects[_id];\r\n\t\trequire(IsOpen(_project.fundGoal, _project.timestamp), 'Error, project must be open');\r\n\t\trequire(address(_project.creator) == msg.sender, 'Error, only creator can cancel their project');\r\n\t\tprojectCancelled[_id] = true;\r\n\t\temit Cancel(_project.id, msg.sender, _project.fundGoal, _project.timeGoal, block.timestamp);\r\n\t}\r\n\r\n\tfunction contribute(uint256 _id, uint256 _amount) onlyValidIds(_id) onlyNoncancelled(_id) external {\r\n\t\trequire(!projectCancelled[_id], 'Error, project is canceled');\r\n\t\t_Project memory _project = projects[_id];\r\n\t\trequire(msg.sender != _project.creator, 'Error, creators are not allowed to add funds to their own projects');\r\n\t\trequire(IsOpen(_project.timeGoal, _project.timestamp), 'Error, project must be open');\r\n\t\trequire(dai.transferFrom(msg.sender, address(this), _amount));\r\n\t\tif(supporterFunds[_id][msg.sender] == 0) {\r\n\t\t\t_project.supporterCount = _project.supporterCount.add(1);\t\r\n\t\t}\r\n\t\t_project.totalFunds = _project.totalFunds.add(_amount);\r\n\t\tsupporterFunds[_id][msg.sender] = supporterFunds[_id][msg.sender].add(_amount);\r\n\t\tprojects[_id] = _project;\r\n\t\temit Contribution (_id, msg.sender, _project.supporterCount, _project.totalFunds, _amount, block.timestamp);\t\r\n\t}\r\n\r\n\tfunction transfer(uint256 _id) onlyNoncancelled(_id) external {\r\n\t\trequire(!projectFundsTransfered[_id], 'Error, collected project funds already transfered');\r\n\t\t_Project storage _project = projects[_id];\r\n\t\trequire(address(_project.creator) == msg.sender, 'Error, only creator can transfer collected project funds');\r\n\t\trequire(!IsOpen(_project.timeGoal, _project.timestamp), 'Error, project still open');\r\n\t\trequire(_project.totalFunds >= _project.fundGoal, 'Error, project did not meet funding goal in time');\r\n\t\tuint256 _totalFunds = _project.totalFunds;\r\n\t\tuint256 _feeAmount = _totalFunds.mul(feePercent).div(100);\r\n\t\trequire(dai.transfer(_project.creator, _totalFunds.sub(_feeAmount)));\r\n\t\trequire(dai.transfer(feeAccount, _feeAmount));\r\n\t\tprojectFundsTransfered[_id] = true;\r\n\t\temit Transfer(_id, _project.creator, _totalFunds.sub(_feeAmount), _feeAmount, block.timestamp);\r\n\t}\r\n\r\n\tfunction refund(uint256 _id) external {\r\n\t\t_Project storage _project = projects[_id];\r\n\t\tbool underFunded = _project.totalFunds < _project.fundGoal;\r\n\t\tbool _failed = !IsOpen(_project.timeGoal, _project.timestamp) && underFunded;\r\n\t\trequire(_failed || projectCancelled[_id], 'Error, no refunds unless project has been canceled or does not meet funding goal in time');\r\n\t\tuint256 _supporterFunds = supporterFunds[_id][msg.sender];\r\n\t\trequire(dai.transfer(msg.sender, _supporterFunds));\r\n\t\tdelete supporterFunds[_id][msg.sender];\r\n\t\temit Refund(_id, msg.sender, _supporterFunds, block.timestamp);\r\n\t}\r\n}\r\n\r\n// Place timeGoal and fundingGoal limits\r\n// timeGoal limit would depend on fundgoal\r\n// timeGoalLimit == fundGoal*C\r\n// timeGoalLimit would not depend on the fundGoal digit number\r\n// change _amount data type from uint256 to uint16\r\n",
  "sourcePath": "/mnt/c/pr0/make-it-happen/src/contracts/Crowdfunder.sol",
  "compiler": {
    "name": "solc",
    "version": "0.8.9+commit.e5eed63a.Emscripten.clang"
  },
  "schemaVersion": "3.4.1",
  "updatedAt": "2021-09-29T17:46:51.617Z",
  "networkType": "ethereum",
  "devdoc": {
    "kind": "dev",
    "methods": {},
    "version": 1
  },
  "userdoc": {
    "kind": "user",
    "methods": {},
    "version": 1
  }
}