{
  "contractName": "Project",
  "abi": [
    {
      "inputs": [
        {
          "internalType": "string",
          "name": "_name",
          "type": "string"
        },
        {
          "internalType": "string",
          "name": "_description",
          "type": "string"
        },
        {
          "internalType": "string",
          "name": "_imgHash",
          "type": "string"
        },
        {
          "internalType": "address",
          "name": "_creator",
          "type": "address"
        },
        {
          "internalType": "uint256",
          "name": "_fundGoal",
          "type": "uint256"
        },
        {
          "internalType": "uint256",
          "name": "_timeGoal",
          "type": "uint256"
        },
        {
          "internalType": "uint256",
          "name": "_timestamp",
          "type": "uint256"
        },
        {
          "internalType": "address",
          "name": "_dai",
          "type": "address"
        }
      ],
      "stateMutability": "nonpayable",
      "type": "constructor"
    },
    {
      "anonymous": false,
      "inputs": [
        {
          "indexed": true,
          "internalType": "address",
          "name": "creator",
          "type": "address"
        },
        {
          "indexed": false,
          "internalType": "uint256",
          "name": "fundGoal",
          "type": "uint256"
        },
        {
          "indexed": false,
          "internalType": "uint256",
          "name": "timeGoal",
          "type": "uint256"
        },
        {
          "indexed": false,
          "internalType": "uint256",
          "name": "timestamp",
          "type": "uint256"
        }
      ],
      "name": "Cancel",
      "type": "event"
    },
    {
      "anonymous": false,
      "inputs": [
        {
          "indexed": true,
          "internalType": "address",
          "name": "supporter",
          "type": "address"
        },
        {
          "indexed": true,
          "internalType": "bool",
          "name": "newSupporter",
          "type": "bool"
        },
        {
          "indexed": false,
          "internalType": "uint256",
          "name": "raisedFunds",
          "type": "uint256"
        },
        {
          "indexed": false,
          "internalType": "uint256",
          "name": "fundAmount",
          "type": "uint256"
        },
        {
          "indexed": false,
          "internalType": "uint256",
          "name": "timestamp",
          "type": "uint256"
        }
      ],
      "name": "Contribution",
      "type": "event"
    },
    {
      "anonymous": false,
      "inputs": [
        {
          "indexed": true,
          "internalType": "address",
          "name": "creator",
          "type": "address"
        },
        {
          "indexed": false,
          "internalType": "uint256",
          "name": "disburseAmount",
          "type": "uint256"
        },
        {
          "indexed": false,
          "internalType": "uint256",
          "name": "feeAmount",
          "type": "uint256"
        },
        {
          "indexed": false,
          "internalType": "uint256",
          "name": "timestamp",
          "type": "uint256"
        }
      ],
      "name": "Disburse",
      "type": "event"
    },
    {
      "anonymous": false,
      "inputs": [
        {
          "indexed": true,
          "internalType": "address",
          "name": "supporter",
          "type": "address"
        },
        {
          "indexed": false,
          "internalType": "uint256",
          "name": "raisedFunds",
          "type": "uint256"
        },
        {
          "indexed": false,
          "internalType": "uint256",
          "name": "refundAmount",
          "type": "uint256"
        },
        {
          "indexed": false,
          "internalType": "uint256",
          "name": "timestamp",
          "type": "uint256"
        }
      ],
      "name": "Refund",
      "type": "event"
    },
    {
      "stateMutability": "nonpayable",
      "type": "fallback"
    },
    {
      "inputs": [],
      "name": "cancelled",
      "outputs": [
        {
          "internalType": "bool",
          "name": "",
          "type": "bool"
        }
      ],
      "stateMutability": "view",
      "type": "function"
    },
    {
      "inputs": [],
      "name": "creator",
      "outputs": [
        {
          "internalType": "address",
          "name": "",
          "type": "address"
        }
      ],
      "stateMutability": "view",
      "type": "function"
    },
    {
      "inputs": [],
      "name": "dai",
      "outputs": [
        {
          "internalType": "contract IERC20",
          "name": "",
          "type": "address"
        }
      ],
      "stateMutability": "view",
      "type": "function"
    },
    {
      "inputs": [],
      "name": "description",
      "outputs": [
        {
          "internalType": "string",
          "name": "",
          "type": "string"
        }
      ],
      "stateMutability": "view",
      "type": "function"
    },
    {
      "inputs": [],
      "name": "fundGoal",
      "outputs": [
        {
          "internalType": "uint256",
          "name": "",
          "type": "uint256"
        }
      ],
      "stateMutability": "view",
      "type": "function"
    },
    {
      "inputs": [],
      "name": "imgHash",
      "outputs": [
        {
          "internalType": "string",
          "name": "",
          "type": "string"
        }
      ],
      "stateMutability": "view",
      "type": "function"
    },
    {
      "inputs": [],
      "name": "name",
      "outputs": [
        {
          "internalType": "string",
          "name": "",
          "type": "string"
        }
      ],
      "stateMutability": "view",
      "type": "function"
    },
    {
      "inputs": [],
      "name": "parentAddress",
      "outputs": [
        {
          "internalType": "address",
          "name": "",
          "type": "address"
        }
      ],
      "stateMutability": "view",
      "type": "function"
    },
    {
      "inputs": [],
      "name": "raisedFunds",
      "outputs": [
        {
          "internalType": "uint256",
          "name": "",
          "type": "uint256"
        }
      ],
      "stateMutability": "view",
      "type": "function"
    },
    {
      "inputs": [
        {
          "internalType": "address",
          "name": "",
          "type": "address"
        }
      ],
      "name": "supporterFunds",
      "outputs": [
        {
          "internalType": "uint256",
          "name": "",
          "type": "uint256"
        }
      ],
      "stateMutability": "view",
      "type": "function"
    },
    {
      "inputs": [],
      "name": "timeGoal",
      "outputs": [
        {
          "internalType": "uint256",
          "name": "",
          "type": "uint256"
        }
      ],
      "stateMutability": "view",
      "type": "function"
    },
    {
      "inputs": [],
      "name": "timestamp",
      "outputs": [
        {
          "internalType": "uint256",
          "name": "",
          "type": "uint256"
        }
      ],
      "stateMutability": "view",
      "type": "function"
    },
    {
      "inputs": [
        {
          "internalType": "address",
          "name": "_user",
          "type": "address"
        }
      ],
      "name": "cancel",
      "outputs": [
        {
          "internalType": "uint256",
          "name": "",
          "type": "uint256"
        },
        {
          "internalType": "uint256",
          "name": "",
          "type": "uint256"
        },
        {
          "internalType": "uint256",
          "name": "",
          "type": "uint256"
        }
      ],
      "stateMutability": "nonpayable",
      "type": "function"
    },
    {
      "inputs": [
        {
          "internalType": "uint256",
          "name": "_amount",
          "type": "uint256"
        },
        {
          "internalType": "address",
          "name": "_user",
          "type": "address"
        },
        {
          "internalType": "bool",
          "name": "_swapped",
          "type": "bool"
        }
      ],
      "name": "contribute",
      "outputs": [
        {
          "internalType": "bool",
          "name": "",
          "type": "bool"
        },
        {
          "internalType": "uint256",
          "name": "",
          "type": "uint256"
        },
        {
          "internalType": "uint256",
          "name": "",
          "type": "uint256"
        }
      ],
      "stateMutability": "nonpayable",
      "type": "function"
    },
    {
      "inputs": [
        {
          "internalType": "uint256",
          "name": "_feePercent",
          "type": "uint256"
        },
        {
          "internalType": "address",
          "name": "_feeAccount",
          "type": "address"
        },
        {
          "internalType": "address",
          "name": "_user",
          "type": "address"
        }
      ],
      "name": "disburse",
      "outputs": [
        {
          "internalType": "uint256",
          "name": "",
          "type": "uint256"
        },
        {
          "internalType": "uint256",
          "name": "",
          "type": "uint256"
        },
        {
          "internalType": "uint256",
          "name": "",
          "type": "uint256"
        }
      ],
      "stateMutability": "nonpayable",
      "type": "function"
    },
    {
      "inputs": [
        {
          "internalType": "address",
          "name": "_user",
          "type": "address"
        }
      ],
      "name": "claimRefund",
      "outputs": [
        {
          "internalType": "uint256",
          "name": "",
          "type": "uint256"
        },
        {
          "internalType": "uint256",
          "name": "",
          "type": "uint256"
        },
        {
          "internalType": "uint256",
          "name": "",
          "type": "uint256"
        }
      ],
      "stateMutability": "nonpayable",
      "type": "function"
    }
  ],
  "bytecode": "0x60806040523480156200001157600080fd5b50604051620022a9380380620022a9833981810160405281019062000037919062000454565b87600290805190602001906200004f92919062000167565b5086600390805190602001906200006892919062000167565b5085600490805190602001906200008192919062000167565b5084600560006101000a81548173ffffffffffffffffffffffffffffffffffffffff021916908373ffffffffffffffffffffffffffffffffffffffff160217905550836006819055508260078190555081600981905550806000806101000a81548173ffffffffffffffffffffffffffffffffffffffff021916908373ffffffffffffffffffffffffffffffffffffffff16021790555033600160006101000a81548173ffffffffffffffffffffffffffffffffffffffff021916908373ffffffffffffffffffffffffffffffffffffffff1602179055505050505050505050620005df565b8280546200017590620005a9565b90600052602060002090601f016020900481019282620001995760008555620001e5565b82601f10620001b457805160ff1916838001178555620001e5565b82800160010185558215620001e5579182015b82811115620001e4578251825591602001919060010190620001c7565b5b509050620001f49190620001f8565b5090565b5b8082111562000213576000816000905550600101620001f9565b5090565b6000604051905090565b600080fd5b600080fd5b600080fd5b600080fd5b6000601f19601f8301169050919050565b7f4e487b7100000000000000000000000000000000000000000000000000000000600052604160045260246000fd5b620002808262000235565b810181811067ffffffffffffffff82111715620002a257620002a162000246565b5b80604052505050565b6000620002b762000217565b9050620002c5828262000275565b919050565b600067ffffffffffffffff821115620002e857620002e762000246565b5b620002f38262000235565b9050602081019050919050565b60005b838110156200032057808201518184015260208101905062000303565b8381111562000330576000848401525b50505050565b60006200034d6200034784620002ca565b620002ab565b9050828152602081018484840111156200036c576200036b62000230565b5b6200037984828562000300565b509392505050565b600082601f8301126200039957620003986200022b565b5b8151620003ab84826020860162000336565b91505092915050565b600073ffffffffffffffffffffffffffffffffffffffff82169050919050565b6000620003e182620003b4565b9050919050565b620003f381620003d4565b8114620003ff57600080fd5b50565b6000815190506200041381620003e8565b92915050565b6000819050919050565b6200042e8162000419565b81146200043a57600080fd5b50565b6000815190506200044e8162000423565b92915050565b600080600080600080600080610100898b03121562000478576200047762000221565b5b600089015167ffffffffffffffff81111562000499576200049862000226565b5b620004a78b828c0162000381565b985050602089015167ffffffffffffffff811115620004cb57620004ca62000226565b5b620004d98b828c0162000381565b975050604089015167ffffffffffffffff811115620004fd57620004fc62000226565b5b6200050b8b828c0162000381565b96505060606200051e8b828c0162000402565b9550506080620005318b828c016200043d565b94505060a0620005448b828c016200043d565b93505060c0620005578b828c016200043d565b92505060e06200056a8b828c0162000402565b9150509295985092959890939650565b7f4e487b7100000000000000000000000000000000000000000000000000000000600052602260045260246000fd5b60006002820490506001821680620005c257607f821691505b60208210811415620005d957620005d86200057a565b5b50919050565b611cba80620005ef6000396000f3fe608060405234801561001057600080fd5b50600436106101035760003560e01c80638d41c1e511610097578063cc5bfd2311610066578063cc5bfd23146102bf578063dfb8dca9146102f1578063e15fa5b21461030f578063f4b9fa751461032d57610104565b80638d41c1e5146102215780639a82a09a14610251578063b80777ea1461026f578063bffa55d51461028d57610104565b80634c33fe94116100d35780634c33fe94146101815780635a41c855146101b35780637284e416146101d15780638ae37aa9146101ef57610104565b8062821de31461010957806302d05d3f1461012757806306fdde0314610145578063309561d91461016357610104565b5b600080fd5b61011161034b565b60405161011e91906111b4565b60405180910390f35b61012f610371565b60405161013c91906111b4565b60405180910390f35b61014d610397565b60405161015a9190611268565b60405180910390f35b61016b610425565b60405161017891906112a3565b60405180910390f35b61019b600480360381019061019691906112ef565b61042b565b6040516101aa9392919061131c565b60405180910390f35b6101bb6105d4565b6040516101c89190611268565b60405180910390f35b6101d9610662565b6040516101e69190611268565b60405180910390f35b6102096004803603810190610204919061137f565b6106f0565b6040516102189392919061131c565b60405180910390f35b61023b600480360381019061023691906112ef565b610a96565b60405161024891906112a3565b60405180910390f35b610259610aae565b60405161026691906113ed565b60405180910390f35b610277610ac1565b60405161028491906112a3565b60405180910390f35b6102a760048036038101906102a291906112ef565b610ac7565b6040516102b69392919061131c565b60405180910390f35b6102d960048036038101906102d49190611434565b610d80565b6040516102e893929190611487565b60405180910390f35b6102f96110ce565b60405161030691906112a3565b60405180910390f35b6103176110d4565b60405161032491906112a3565b60405180910390f35b6103356110da565b604051610342919061151d565b60405180910390f35b600160009054906101000a900473ffffffffffffffffffffffffffffffffffffffff1681565b600560009054906101000a900473ffffffffffffffffffffffffffffffffffffffff1681565b600280546103a490611567565b80601f01602080910402602001604051908101604052809291908181526020018280546103d090611567565b801561041d5780601f106103f25761010080835404028352916020019161041d565b820191906000526020600020905b81548152906001019060200180831161040057829003601f168201915b505050505081565b60075481565b60008060003373ffffffffffffffffffffffffffffffffffffffff16600160009054906101000a900473ffffffffffffffffffffffffffffffffffffffff1673ffffffffffffffffffffffffffffffffffffffff16146104c0576040517f08c379a00000000000000000000000000000000000000000000000000000000081526004016104b79061160b565b60405180910390fd5b6104c86110fe565b610507576040517f08c379a00000000000000000000000000000000000000000000000000000000081526004016104fe90611677565b60405180910390fd5b6105108461110a565b61054f576040517f08c379a000000000000000000000000000000000000000000000000000000000815260040161054690611709565b60405180910390fd5b6001600a60006101000a81548160ff0219169083151502179055508373ffffffffffffffffffffffffffffffffffffffff167f49f50fca4a590bc780b00eea7d6be105e57280946507e6075bc777b9645d6d03600654600754426040516105b89392919061131c565b60405180910390a2600654600754429250925092509193909250565b600480546105e190611567565b80601f016020809104026020016040519081016040528092919081815260200182805461060d90611567565b801561065a5780601f1061062f5761010080835404028352916020019161065a565b820191906000526020600020905b81548152906001019060200180831161063d57829003601f168201915b505050505081565b6003805461066f90611567565b80601f016020809104026020016040519081016040528092919081815260200182805461069b90611567565b80156106e85780601f106106bd576101008083540402835291602001916106e8565b820191906000526020600020905b8154815290600101906020018083116106cb57829003601f168201915b505050505081565b60008060003373ffffffffffffffffffffffffffffffffffffffff16600160009054906101000a900473ffffffffffffffffffffffffffffffffffffffff1673ffffffffffffffffffffffffffffffffffffffff1614610785576040517f08c379a000000000000000000000000000000000000000000000000000000000815260040161077c9061160b565b60405180910390fd5b600a60009054906101000a900460ff16156107d5576040517f08c379a00000000000000000000000000000000000000000000000000000000081526004016107cc90611775565b60405180910390fd5b6107de8461110a565b61081d576040517f08c379a000000000000000000000000000000000000000000000000000000000815260040161081490611807565b60405180910390fd5b6108256110fe565b15610865576040517f08c379a000000000000000000000000000000000000000000000000000000000815260040161085c90611873565b60405180910390fd5b61086d611164565b6108ac576040517f08c379a00000000000000000000000000000000000000000000000000000000081526004016108a3906118df565b60405180910390fd5b60006064876008546108be919061192e565b6108c891906119b7565b90506000816008546108da91906119e8565b905060086000905560008054906101000a900473ffffffffffffffffffffffffffffffffffffffff1673ffffffffffffffffffffffffffffffffffffffff1663a9059cbb88846040518363ffffffff1660e01b815260040161093d929190611a1c565b6020604051808303816000875af115801561095c573d6000803e3d6000fd5b505050506040513d601f19601f820116820180604052508101906109809190611a5a565b61098957600080fd5b60008054906101000a900473ffffffffffffffffffffffffffffffffffffffff1673ffffffffffffffffffffffffffffffffffffffff1663a9059cbb87836040518363ffffffff1660e01b81526004016109e4929190611a1c565b6020604051808303816000875af1158015610a03573d6000803e3d6000fd5b505050506040513d601f19601f82011682018060405250810190610a279190611a5a565b610a3057600080fd5b8573ffffffffffffffffffffffffffffffffffffffff167f52948de0cc413a7d554dc2b2a5896a37041208572e8a0b0dbf938e6ec8ea376e828442604051610a7a9392919061131c565b60405180910390a2808242945094509450505093509350939050565b600b6020528060005260406000206000915090505481565b600a60009054906101000a900460ff1681565b60095481565b60008060003373ffffffffffffffffffffffffffffffffffffffff16600160009054906101000a900473ffffffffffffffffffffffffffffffffffffffff1673ffffffffffffffffffffffffffffffffffffffff1614610b5c576040517f08c379a0000000000000000000000000000000000000000000000000000000008152600401610b539061160b565b60405180910390fd5b6000610b666110fe565b158015610b785750610b76611164565b155b90508080610b925750600a60009054906101000a900460ff165b610bd1576040517f08c379a0000000000000000000000000000000000000000000000000000000008152600401610bc890611b1f565b60405180910390fd5b6000600b60008773ffffffffffffffffffffffffffffffffffffffff1673ffffffffffffffffffffffffffffffffffffffff168152602001908152602001600020549050600b60008773ffffffffffffffffffffffffffffffffffffffff1673ffffffffffffffffffffffffffffffffffffffff168152602001908152602001600020600090558060086000828254610c6a91906119e8565b9250508190555060008054906101000a900473ffffffffffffffffffffffffffffffffffffffff1673ffffffffffffffffffffffffffffffffffffffff1663a9059cbb87836040518363ffffffff1660e01b8152600401610ccc929190611a1c565b6020604051808303816000875af1158015610ceb573d6000803e3d6000fd5b505050506040513d601f19601f82011682018060405250810190610d0f9190611a5a565b610d1857600080fd5b8573ffffffffffffffffffffffffffffffffffffffff167fb7048c2ad36aadee977bb16b4543a18866044d27a2ca753e1c7dbcfa7d7a69626008548342604051610d649392919061131c565b60405180910390a2600854814294509450945050509193909250565b60008060003373ffffffffffffffffffffffffffffffffffffffff16600160009054906101000a900473ffffffffffffffffffffffffffffffffffffffff1673ffffffffffffffffffffffffffffffffffffffff1614610e15576040517f08c379a0000000000000000000000000000000000000000000000000000000008152600401610e0c9061160b565b60405180910390fd5b6000600a60009054906101000a900460ff1615610e67576040517f08c379a0000000000000000000000000000000000000000000000000000000008152600401610e5e90611775565b60405180910390fd5b610e708661110a565b15610eb0576040517f08c379a0000000000000000000000000000000000000000000000000000000008152600401610ea790611bd7565b60405180910390fd5b610eb86110fe565b610ef7576040517f08c379a0000000000000000000000000000000000000000000000000000000008152600401610eee90611677565b60405180910390fd5b6000600b60008873ffffffffffffffffffffffffffffffffffffffff1673ffffffffffffffffffffffffffffffffffffffff168152602001908152602001600020541415610f4457600190505b8660086000828254610f569190611bf7565b9250508190555086600b60008873ffffffffffffffffffffffffffffffffffffffff1673ffffffffffffffffffffffffffffffffffffffff1681526020019081526020016000206000828254610fac9190611bf7565b92505081905550846110625760008054906101000a900473ffffffffffffffffffffffffffffffffffffffff1673ffffffffffffffffffffffffffffffffffffffff166323b872dd87308a6040518463ffffffff1660e01b815260040161101593929190611c4d565b6020604051808303816000875af1158015611034573d6000803e3d6000fd5b505050506040513d601f19601f820116820180604052508101906110589190611a5a565b61106157600080fd5b5b8015158673ffffffffffffffffffffffffffffffffffffffff167fe34dca9f0d19574214d3cdef65ff6c81ac02be4a10541ca76d2b3b05902626406008548a426040516110b19392919061131c565b60405180910390a380600854429350935093505093509350939050565b60085481565b60065481565b60008054906101000a900473ffffffffffffffffffffffffffffffffffffffff1681565b60004260075411905090565b6000600560009054906101000a900473ffffffffffffffffffffffffffffffffffffffff1673ffffffffffffffffffffffffffffffffffffffff168273ffffffffffffffffffffffffffffffffffffffff16149050919050565b60006006546008541015905090565b600073ffffffffffffffffffffffffffffffffffffffff82169050919050565b600061119e82611173565b9050919050565b6111ae81611193565b82525050565b60006020820190506111c960008301846111a5565b92915050565b600081519050919050565b600082825260208201905092915050565b60005b838110156112095780820151818401526020810190506111ee565b83811115611218576000848401525b50505050565b6000601f19601f8301169050919050565b600061123a826111cf565b61124481856111da565b93506112548185602086016111eb565b61125d8161121e565b840191505092915050565b60006020820190508181036000830152611282818461122f565b905092915050565b6000819050919050565b61129d8161128a565b82525050565b60006020820190506112b86000830184611294565b92915050565b600080fd5b6112cc81611193565b81146112d757600080fd5b50565b6000813590506112e9816112c3565b92915050565b600060208284031215611305576113046112be565b5b6000611313848285016112da565b91505092915050565b60006060820190506113316000830186611294565b61133e6020830185611294565b61134b6040830184611294565b949350505050565b61135c8161128a565b811461136757600080fd5b50565b60008135905061137981611353565b92915050565b600080600060608486031215611398576113976112be565b5b60006113a68682870161136a565b93505060206113b7868287016112da565b92505060406113c8868287016112da565b9150509250925092565b60008115159050919050565b6113e7816113d2565b82525050565b600060208201905061140260008301846113de565b92915050565b611411816113d2565b811461141c57600080fd5b50565b60008135905061142e81611408565b92915050565b60008060006060848603121561144d5761144c6112be565b5b600061145b8682870161136a565b935050602061146c868287016112da565b925050604061147d8682870161141f565b9150509250925092565b600060608201905061149c60008301866113de565b6114a96020830185611294565b6114b66040830184611294565b949350505050565b6000819050919050565b60006114e36114de6114d984611173565b6114be565b611173565b9050919050565b60006114f5826114c8565b9050919050565b6000611507826114ea565b9050919050565b611517816114fc565b82525050565b6000602082019050611532600083018461150e565b92915050565b7f4e487b7100000000000000000000000000000000000000000000000000000000600052602260045260246000fd5b6000600282049050600182168061157f57607f821691505b6020821081141561159357611592611538565b5b50919050565b7f4572726f722c206f6e6c7920706172656e7420636f6e74726163742063616e2060008201527f696e7465726163742077697468207468697320636f6e74726163740000000000602082015250565b60006115f5603b836111da565b915061160082611599565b604082019050919050565b60006020820190508181036000830152611624816115e8565b9050919050565b7f4572726f722c2070726f6a656374206d757374206265206f70656e0000000000600082015250565b6000611661601b836111da565b915061166c8261162b565b602082019050919050565b6000602082019050818103600083015261169081611654565b9050919050565b7f4572726f722c206f6e6c792063726561746f722063616e2063616e63656c207460008201527f686569722070726f6a6563740000000000000000000000000000000000000000602082015250565b60006116f3602c836111da565b91506116fe82611697565b604082019050919050565b60006020820190508181036000830152611722816116e6565b9050919050565b7f4572726f722c2070726f6a6563742063616e63656c6c65640000000000000000600082015250565b600061175f6018836111da565b915061176a82611729565b602082019050919050565b6000602082019050818103600083015261178e81611752565b9050919050565b7f4572726f722c206f6e6c792063726561746f722063616e20646973627572736560008201527f20636f6c6c65637465642070726f6a6563742066756e64730000000000000000602082015250565b60006117f16038836111da565b91506117fc82611795565b604082019050919050565b60006020820190508181036000830152611820816117e4565b9050919050565b7f4572726f722c2070726f6a656374207374696c6c206f70656e00000000000000600082015250565b600061185d6019836111da565b915061186882611827565b602082019050919050565b6000602082019050818103600083015261188c81611850565b9050919050565b7f4572726f722c2070726f6a656374206e6f742066756c6c7946756e6465640000600082015250565b60006118c9601e836111da565b91506118d482611893565b602082019050919050565b600060208201905081810360008301526118f8816118bc565b9050919050565b7f4e487b7100000000000000000000000000000000000000000000000000000000600052601160045260246000fd5b60006119398261128a565b91506119448361128a565b9250817fffffffffffffffffffffffffffffffffffffffffffffffffffffffffffffffff048311821515161561197d5761197c6118ff565b5b828202905092915050565b7f4e487b7100000000000000000000000000000000000000000000000000000000600052601260045260246000fd5b60006119c28261128a565b91506119cd8361128a565b9250826119dd576119dc611988565b5b828204905092915050565b60006119f38261128a565b91506119fe8361128a565b925082821015611a1157611a106118ff565b5b828203905092915050565b6000604082019050611a3160008301856111a5565b611a3e6020830184611294565b9392505050565b600081519050611a5481611408565b92915050565b600060208284031215611a7057611a6f6112be565b5b6000611a7e84828501611a45565b91505092915050565b7f4572726f722c206e6f20726566756e647320756e6c6573732070726f6a65637460008201527f20686173206265656e2063616e63656c6c6564206f7220646964206e6f74206d60208201527f6565742066756e64696e6720676f616c00000000000000000000000000000000604082015250565b6000611b096050836111da565b9150611b1482611a87565b606082019050919050565b60006020820190508181036000830152611b3881611afc565b9050919050565b7f4572726f722c2063726561746f727320617265206e6f7420616c6c6f7765642060008201527f746f206164642066756e647320746f207468656972206f776e2070726f6a656360208201527f7473000000000000000000000000000000000000000000000000000000000000604082015250565b6000611bc16042836111da565b9150611bcc82611b3f565b606082019050919050565b60006020820190508181036000830152611bf081611bb4565b9050919050565b6000611c028261128a565b9150611c0d8361128a565b9250827fffffffffffffffffffffffffffffffffffffffffffffffffffffffffffffffff03821115611c4257611c416118ff565b5b828201905092915050565b6000606082019050611c6260008301866111a5565b611c6f60208301856111a5565b611c7c6040830184611294565b94935050505056fea2646970667358221220715ef951d9fa7e2a63c70f1bc41df485009dc5e407a41d5bad9a36ed04d5e02f64736f6c634300080a0033",
  "immutableReferences": {},
  "source": "// SPDX-License-Identifier: MIT\npragma solidity ^0.8.1;\n\nimport \"@openzeppelin/contracts/token/ERC20/IERC20.sol\";\n\ncontract Project {\n    IERC20 public dai;\n    address public parentAddress;\n\tstring public name; \n\tstring public description;\n\tstring public imgHash;\n\taddress public creator;\n\tuint256 public fundGoal;\n\tuint256 public timeGoal;\n\tuint256 public raisedFunds;\n\tuint256 public timestamp;\n\tbool public cancelled;\n\tmapping (address => uint256) public supporterFunds;\n\t\n\tevent Cancel (\n\t\taddress indexed creator,\n\t\tuint256 fundGoal,\n\t\tuint256 timeGoal,\n\t\tuint256 timestamp\t\n\t);\n\tevent Contribution (\n\t\taddress indexed supporter,\n\t\tbool indexed newSupporter,\n\t\tuint256 raisedFunds,\n\t\tuint256 fundAmount,\t\n\t\tuint256 timestamp\t\t\n\t);\n\tevent Disburse (\n\t\taddress indexed creator,\n\t\tuint256 disburseAmount,\n\t\tuint256 feeAmount,\n\t\tuint256 timestamp\n\t);\n\tevent Refund (\n\t\taddress indexed supporter,\n\t\tuint256 raisedFunds,\n\t\tuint256 refundAmount,\n\t\tuint256 timestamp\t\n\t);\t\n\tconstructor(\n    \tstring memory _name,\n    \tstring memory _description,\n    \tstring memory _imgHash,\n    \taddress _creator,\n    \tuint256 _fundGoal,\n    \tuint256 _timeGoal,\n    \tuint256 _timestamp,\n    \taddress _dai\n\t ) \n\t{\n        name = _name;\n        description = _description;\n        imgHash = _imgHash;\n        creator = _creator;\n        fundGoal = _fundGoal;\n        timeGoal = _timeGoal;\n        timestamp = _timestamp;\n        dai = IERC20(_dai);\n        parentAddress = msg.sender;\n\t}\n\t\n\t// Fallback: reverts if Ether is sent to this smart contract by mistake\n    fallback () external { revert(); }\n\t\n\tmodifier onlyParentContract () {\n\t\trequire(parentAddress == msg.sender, 'Error, only parent contract can interact with this contract');\n\t\t_;\n\t}\n\t\n\tfunction isOpen() internal view returns(bool) {\n\t\treturn(timeGoal > block.timestamp);\n\t}\n\t\n\tfunction callerIsCreator(address _user) internal view returns(bool) {\n\t    return(_user == creator);\n\t}\n\t\n\tfunction fullyFunded() internal view returns(bool) {\n\t    return(raisedFunds >= fundGoal);\n\t}\n\n\tfunction cancel(address _user) onlyParentContract external returns(uint256, uint256, uint256) {\n\t\trequire(isOpen(), 'Error, project must be open');\n\t\trequire(callerIsCreator(_user), 'Error, only creator can cancel their project');\n\t\tcancelled = true;\n\t\temit Cancel(_user, fundGoal, timeGoal, block.timestamp);\n\t\treturn(fundGoal, timeGoal, block.timestamp);    \n\t}\n\n\tfunction contribute(uint256 _amount, address _user,bool _swapped) onlyParentContract external returns(bool, uint256, uint256) {\n\t    bool _newSupporter;\n\t\trequire(!cancelled, 'Error, project cancelled');\n\t\trequire(!callerIsCreator(_user), 'Error, creators are not allowed to add funds to their own projects');\n\t\trequire(isOpen(), 'Error, project must be open');\n\t\tif(supporterFunds[_user] == 0) {\n\t\t\t_newSupporter = true;\t\n\t\t}\n\t\traisedFunds += _amount;\n\t\tsupporterFunds[_user] += _amount;\n\t\tif(!_swapped)require(dai.transferFrom(_user, address(this), _amount));\n\t\temit Contribution (_user, _newSupporter, raisedFunds , _amount, block.timestamp);\t\n\t\treturn(_newSupporter, raisedFunds, block.timestamp);\n\t}\n\t\n\tfunction disburse(uint256 _feePercent, address _feeAccount, address _user) onlyParentContract external returns(uint256, uint256, uint256) {\n\t\trequire(!cancelled, 'Error, project cancelled');\n\t\trequire(callerIsCreator(_user), 'Error, only creator can disburse collected project funds');\n\t\trequire(!isOpen(), 'Error, project still open');\n\t\trequire(fullyFunded(), 'Error, project not fullyFunded');\n\t\tuint256 _feeAmount = (raisedFunds * _feePercent)/100;\n\t\tuint256 _disburseAmount = raisedFunds - _feeAmount; \n\t\tdelete raisedFunds;\n\t\trequire(dai.transfer(_feeAccount, _feeAmount));\n\t\trequire(dai.transfer(_user, _disburseAmount));\n\t\temit Disburse(_user, _disburseAmount, _feeAmount, block.timestamp);\n\t\treturn(_disburseAmount, _feeAmount, block.timestamp);\n\t}\n\n\tfunction claimRefund(address _user) onlyParentContract external returns (uint256, uint256, uint256) {\n\t\tbool _failed = !isOpen() && !fullyFunded();\n\t\trequire(_failed || cancelled, 'Error, no refunds unless project has been cancelled or did not meet funding goal');\n\t\tuint256 _supporterFunds = supporterFunds[_user];\n\t\tdelete supporterFunds[_user];\n\t\traisedFunds -= _supporterFunds;\n\t\trequire(dai.transfer(_user, _supporterFunds));\n\t\temit Refund(_user, raisedFunds, _supporterFunds, block.timestamp);\n\t\treturn(raisedFunds,_supporterFunds, block.timestamp);\n\t}\n}",
  "sourcePath": "/Users/ethancemer/Documents/make-it-happen/src/contracts/Project.sol",
  "compiler": {
    "name": "solc",
    "version": "0.8.10+commit.fc410830.Emscripten.clang"
  },
  "schemaVersion": "3.4.3",
  "updatedAt": "2021-12-01T16:14:24.223Z",
  "devdoc": {
    "kind": "dev",
    "methods": {},
    "version": 1
  },
  "userdoc": {
    "kind": "user",
    "methods": {},
    "version": 1
  }
}