{
  "contractName": "Project",
  "abi": [
    {
      "inputs": [
        {
          "internalType": "string",
          "name": "_name",
          "type": "string"
        },
        {
          "internalType": "string",
          "name": "_description",
          "type": "string"
        },
        {
          "internalType": "string",
          "name": "_imgHash",
          "type": "string"
        },
        {
          "internalType": "address",
          "name": "_creator",
          "type": "address"
        },
        {
          "internalType": "uint256",
          "name": "_fundGoal",
          "type": "uint256"
        },
        {
          "internalType": "uint256",
          "name": "_timeGoal",
          "type": "uint256"
        },
        {
          "internalType": "uint256",
          "name": "_timestamp",
          "type": "uint256"
        },
        {
          "internalType": "address",
          "name": "_dai",
          "type": "address"
        }
      ],
      "stateMutability": "nonpayable",
      "type": "constructor"
    },
    {
      "anonymous": false,
      "inputs": [
        {
          "indexed": true,
          "internalType": "address",
          "name": "creator",
          "type": "address"
        },
        {
          "indexed": false,
          "internalType": "uint256",
          "name": "fundGoal",
          "type": "uint256"
        },
        {
          "indexed": false,
          "internalType": "uint256",
          "name": "timeGoal",
          "type": "uint256"
        },
        {
          "indexed": false,
          "internalType": "uint256",
          "name": "timestamp",
          "type": "uint256"
        }
      ],
      "name": "Cancel",
      "type": "event"
    },
    {
      "anonymous": false,
      "inputs": [
        {
          "indexed": true,
          "internalType": "address",
          "name": "supporter",
          "type": "address"
        },
        {
          "indexed": true,
          "internalType": "bool",
          "name": "newSupporter",
          "type": "bool"
        },
        {
          "indexed": false,
          "internalType": "uint256",
          "name": "raisedFunds",
          "type": "uint256"
        },
        {
          "indexed": false,
          "internalType": "uint256",
          "name": "fundAmount",
          "type": "uint256"
        },
        {
          "indexed": false,
          "internalType": "uint256",
          "name": "timestamp",
          "type": "uint256"
        }
      ],
      "name": "Contribution",
      "type": "event"
    },
    {
      "anonymous": false,
      "inputs": [
        {
          "indexed": true,
          "internalType": "address",
          "name": "creator",
          "type": "address"
        },
        {
          "indexed": false,
          "internalType": "uint256",
          "name": "disburseAmount",
          "type": "uint256"
        },
        {
          "indexed": false,
          "internalType": "uint256",
          "name": "feeAmount",
          "type": "uint256"
        },
        {
          "indexed": false,
          "internalType": "uint256",
          "name": "timestamp",
          "type": "uint256"
        }
      ],
      "name": "Disburse",
      "type": "event"
    },
    {
      "anonymous": false,
      "inputs": [
        {
          "indexed": true,
          "internalType": "address",
          "name": "supporter",
          "type": "address"
        },
        {
          "indexed": false,
          "internalType": "uint256",
          "name": "raisedFunds",
          "type": "uint256"
        },
        {
          "indexed": false,
          "internalType": "uint256",
          "name": "refundAmount",
          "type": "uint256"
        },
        {
          "indexed": false,
          "internalType": "uint256",
          "name": "timestamp",
          "type": "uint256"
        }
      ],
      "name": "Refund",
      "type": "event"
    },
    {
      "stateMutability": "nonpayable",
      "type": "fallback"
    },
    {
      "inputs": [],
      "name": "cancelled",
      "outputs": [
        {
          "internalType": "bool",
          "name": "",
          "type": "bool"
        }
      ],
      "stateMutability": "view",
      "type": "function"
    },
    {
      "inputs": [],
      "name": "creator",
      "outputs": [
        {
          "internalType": "address",
          "name": "",
          "type": "address"
        }
      ],
      "stateMutability": "view",
      "type": "function"
    },
    {
      "inputs": [],
      "name": "dai",
      "outputs": [
        {
          "internalType": "contract IERC20",
          "name": "",
          "type": "address"
        }
      ],
      "stateMutability": "view",
      "type": "function"
    },
    {
      "inputs": [],
      "name": "description",
      "outputs": [
        {
          "internalType": "string",
          "name": "",
          "type": "string"
        }
      ],
      "stateMutability": "view",
      "type": "function"
    },
    {
      "inputs": [],
      "name": "fundGoal",
      "outputs": [
        {
          "internalType": "uint256",
          "name": "",
          "type": "uint256"
        }
      ],
      "stateMutability": "view",
      "type": "function"
    },
    {
      "inputs": [],
      "name": "imgHash",
      "outputs": [
        {
          "internalType": "string",
          "name": "",
          "type": "string"
        }
      ],
      "stateMutability": "view",
      "type": "function"
    },
    {
      "inputs": [],
      "name": "name",
      "outputs": [
        {
          "internalType": "string",
          "name": "",
          "type": "string"
        }
      ],
      "stateMutability": "view",
      "type": "function"
    },
    {
      "inputs": [],
      "name": "parentAddress",
      "outputs": [
        {
          "internalType": "address",
          "name": "",
          "type": "address"
        }
      ],
      "stateMutability": "view",
      "type": "function"
    },
    {
      "inputs": [],
      "name": "raisedFunds",
      "outputs": [
        {
          "internalType": "uint256",
          "name": "",
          "type": "uint256"
        }
      ],
      "stateMutability": "view",
      "type": "function"
    },
    {
      "inputs": [
        {
          "internalType": "address",
          "name": "",
          "type": "address"
        }
      ],
      "name": "supporterFunds",
      "outputs": [
        {
          "internalType": "uint256",
          "name": "",
          "type": "uint256"
        }
      ],
      "stateMutability": "view",
      "type": "function"
    },
    {
      "inputs": [],
      "name": "timeGoal",
      "outputs": [
        {
          "internalType": "uint256",
          "name": "",
          "type": "uint256"
        }
      ],
      "stateMutability": "view",
      "type": "function"
    },
    {
      "inputs": [],
      "name": "timestamp",
      "outputs": [
        {
          "internalType": "uint256",
          "name": "",
          "type": "uint256"
        }
      ],
      "stateMutability": "view",
      "type": "function"
    },
    {
      "inputs": [
        {
          "internalType": "address",
          "name": "_user",
          "type": "address"
        }
      ],
      "name": "cancel",
      "outputs": [
        {
          "internalType": "uint256",
          "name": "",
          "type": "uint256"
        },
        {
          "internalType": "uint256",
          "name": "",
          "type": "uint256"
        },
        {
          "internalType": "uint256",
          "name": "",
          "type": "uint256"
        }
      ],
      "stateMutability": "nonpayable",
      "type": "function"
    },
    {
      "inputs": [
        {
          "internalType": "uint256",
          "name": "_amount",
          "type": "uint256"
        },
        {
          "internalType": "address",
          "name": "_user",
          "type": "address"
        }
      ],
      "name": "contribute",
      "outputs": [
        {
          "internalType": "bool",
          "name": "",
          "type": "bool"
        },
        {
          "internalType": "uint256",
          "name": "",
          "type": "uint256"
        },
        {
          "internalType": "uint256",
          "name": "",
          "type": "uint256"
        }
      ],
      "stateMutability": "nonpayable",
      "type": "function"
    },
    {
      "inputs": [
        {
          "internalType": "uint256",
          "name": "_feePercent",
          "type": "uint256"
        },
        {
          "internalType": "address",
          "name": "_feeAccount",
          "type": "address"
        },
        {
          "internalType": "address",
          "name": "_user",
          "type": "address"
        }
      ],
      "name": "disburse",
      "outputs": [
        {
          "internalType": "uint256",
          "name": "",
          "type": "uint256"
        },
        {
          "internalType": "uint256",
          "name": "",
          "type": "uint256"
        },
        {
          "internalType": "uint256",
          "name": "",
          "type": "uint256"
        }
      ],
      "stateMutability": "nonpayable",
      "type": "function"
    },
    {
      "inputs": [
        {
          "internalType": "address",
          "name": "_user",
          "type": "address"
        }
      ],
      "name": "claimRefund",
      "outputs": [
        {
          "internalType": "uint256",
          "name": "",
          "type": "uint256"
        },
        {
          "internalType": "uint256",
          "name": "",
          "type": "uint256"
        },
        {
          "internalType": "uint256",
          "name": "",
          "type": "uint256"
        }
      ],
      "stateMutability": "nonpayable",
      "type": "function"
    }
  ],
  "bytecode": "0x60806040523480156200001157600080fd5b506040516200232138038062002321833981810160405281019062000037919062000454565b87600290805190602001906200004f92919062000167565b5086600390805190602001906200006892919062000167565b5085600490805190602001906200008192919062000167565b5084600560006101000a81548173ffffffffffffffffffffffffffffffffffffffff021916908373ffffffffffffffffffffffffffffffffffffffff160217905550836006819055508260078190555081600981905550806000806101000a81548173ffffffffffffffffffffffffffffffffffffffff021916908373ffffffffffffffffffffffffffffffffffffffff16021790555033600160006101000a81548173ffffffffffffffffffffffffffffffffffffffff021916908373ffffffffffffffffffffffffffffffffffffffff1602179055505050505050505050620005df565b8280546200017590620005a9565b90600052602060002090601f016020900481019282620001995760008555620001e5565b82601f10620001b457805160ff1916838001178555620001e5565b82800160010185558215620001e5579182015b82811115620001e4578251825591602001919060010190620001c7565b5b509050620001f49190620001f8565b5090565b5b8082111562000213576000816000905550600101620001f9565b5090565b6000604051905090565b600080fd5b600080fd5b600080fd5b600080fd5b6000601f19601f8301169050919050565b7f4e487b7100000000000000000000000000000000000000000000000000000000600052604160045260246000fd5b620002808262000235565b810181811067ffffffffffffffff82111715620002a257620002a162000246565b5b80604052505050565b6000620002b762000217565b9050620002c5828262000275565b919050565b600067ffffffffffffffff821115620002e857620002e762000246565b5b620002f38262000235565b9050602081019050919050565b60005b838110156200032057808201518184015260208101905062000303565b8381111562000330576000848401525b50505050565b60006200034d6200034784620002ca565b620002ab565b9050828152602081018484840111156200036c576200036b62000230565b5b6200037984828562000300565b509392505050565b600082601f8301126200039957620003986200022b565b5b8151620003ab84826020860162000336565b91505092915050565b600073ffffffffffffffffffffffffffffffffffffffff82169050919050565b6000620003e182620003b4565b9050919050565b620003f381620003d4565b8114620003ff57600080fd5b50565b6000815190506200041381620003e8565b92915050565b6000819050919050565b6200042e8162000419565b81146200043a57600080fd5b50565b6000815190506200044e8162000423565b92915050565b600080600080600080600080610100898b03121562000478576200047762000221565b5b600089015167ffffffffffffffff81111562000499576200049862000226565b5b620004a78b828c0162000381565b985050602089015167ffffffffffffffff811115620004cb57620004ca62000226565b5b620004d98b828c0162000381565b975050604089015167ffffffffffffffff811115620004fd57620004fc62000226565b5b6200050b8b828c0162000381565b96505060606200051e8b828c0162000402565b9550506080620005318b828c016200043d565b94505060a0620005448b828c016200043d565b93505060c0620005578b828c016200043d565b92505060e06200056a8b828c0162000402565b9150509295985092959890939650565b7f4e487b7100000000000000000000000000000000000000000000000000000000600052602260045260246000fd5b60006002820490506001821680620005c257607f821691505b60208210811415620005d957620005d86200057a565b5b50919050565b611d3280620005ef6000396000f3fe608060405234801561001057600080fd5b50600436106101035760003560e01c80638ae37aa911610097578063bffa55d511610066578063bffa55d5146102bf578063dfb8dca9146102f1578063e15fa5b21461030f578063f4b9fa751461032d57610104565b80638ae37aa9146102215780638d41c1e5146102535780639a82a09a14610283578063b80777ea146102a157610104565b80634c33fe94116100d35780634c33fe94146101815780635a41c855146101b357806360b0b0f0146101d15780637284e4161461020357610104565b8062821de31461010957806302d05d3f1461012757806306fdde0314610145578063309561d91461016357610104565b5b600080fd5b61011161034b565b60405161011e91906111e8565b60405180910390f35b61012f610371565b60405161013c91906111e8565b60405180910390f35b61014d610397565b60405161015a919061129c565b60405180910390f35b61016b610425565b60405161017891906112d7565b60405180910390f35b61019b60048036038101906101969190611323565b61042b565b6040516101aa93929190611350565b60405180910390f35b6101bb6105d4565b6040516101c8919061129c565b60405180910390f35b6101eb60048036038101906101e691906113b3565b610662565b6040516101fa9392919061140e565b60405180910390f35b61020b6109b7565b604051610218919061129c565b60405180910390f35b61023b60048036038101906102369190611445565b610a45565b60405161024a93929190611350565b60405180910390f35b61026d60048036038101906102689190611323565b610e09565b60405161027a91906112d7565b60405180910390f35b61028b610e21565b6040516102989190611498565b60405180910390f35b6102a9610e34565b6040516102b691906112d7565b60405180910390f35b6102d960048036038101906102d49190611323565b610e3a565b6040516102e893929190611350565b60405180910390f35b6102f9611102565b60405161030691906112d7565b60405180910390f35b610317611108565b60405161032491906112d7565b60405180910390f35b61033561110e565b6040516103429190611512565b60405180910390f35b600160009054906101000a900473ffffffffffffffffffffffffffffffffffffffff1681565b600560009054906101000a900473ffffffffffffffffffffffffffffffffffffffff1681565b600280546103a49061155c565b80601f01602080910402602001604051908101604052809291908181526020018280546103d09061155c565b801561041d5780601f106103f25761010080835404028352916020019161041d565b820191906000526020600020905b81548152906001019060200180831161040057829003601f168201915b505050505081565b60075481565b60008060003373ffffffffffffffffffffffffffffffffffffffff16600160009054906101000a900473ffffffffffffffffffffffffffffffffffffffff1673ffffffffffffffffffffffffffffffffffffffff16146104c0576040517f08c379a00000000000000000000000000000000000000000000000000000000081526004016104b790611600565b60405180910390fd5b6104c8611132565b610507576040517f08c379a00000000000000000000000000000000000000000000000000000000081526004016104fe9061166c565b60405180910390fd5b6105108461113e565b61054f576040517f08c379a0000000000000000000000000000000000000000000000000000000008152600401610546906116fe565b60405180910390fd5b6001600a60006101000a81548160ff0219169083151502179055508373ffffffffffffffffffffffffffffffffffffffff167f49f50fca4a590bc780b00eea7d6be105e57280946507e6075bc777b9645d6d03600654600754426040516105b893929190611350565b60405180910390a2600654600754429250925092509193909250565b600480546105e19061155c565b80601f016020809104026020016040519081016040528092919081815260200182805461060d9061155c565b801561065a5780601f1061062f5761010080835404028352916020019161065a565b820191906000526020600020905b81548152906001019060200180831161063d57829003601f168201915b505050505081565b60008060003373ffffffffffffffffffffffffffffffffffffffff16600160009054906101000a900473ffffffffffffffffffffffffffffffffffffffff1673ffffffffffffffffffffffffffffffffffffffff16146106f7576040517f08c379a00000000000000000000000000000000000000000000000000000000081526004016106ee90611600565b60405180910390fd5b6000600a60009054906101000a900460ff1615610749576040517f08c379a00000000000000000000000000000000000000000000000000000000081526004016107409061176a565b60405180910390fd5b6107528561113e565b15610792576040517f08c379a000000000000000000000000000000000000000000000000000000000815260040161078990611822565b60405180910390fd5b61079a611132565b6107d9576040517f08c379a00000000000000000000000000000000000000000000000000000000081526004016107d09061188e565b60405180910390fd5b6000600b60008773ffffffffffffffffffffffffffffffffffffffff1673ffffffffffffffffffffffffffffffffffffffff16815260200190815260200160002054141561082657600190505b856008600082825461083891906118dd565b9250508190555085600b60008773ffffffffffffffffffffffffffffffffffffffff1673ffffffffffffffffffffffffffffffffffffffff168152602001908152602001600020600082825461088e91906118dd565b9250508190555060008054906101000a900473ffffffffffffffffffffffffffffffffffffffff1673ffffffffffffffffffffffffffffffffffffffff166323b872dd8630896040518463ffffffff1660e01b81526004016108f293929190611933565b602060405180830381600087803b15801561090c57600080fd5b505af1158015610920573d6000803e3d6000fd5b505050506040513d601f19601f820116820180604052508101906109449190611996565b61094d57600080fd5b8015158573ffffffffffffffffffffffffffffffffffffffff167fe34dca9f0d19574214d3cdef65ff6c81ac02be4a10541ca76d2b3b0590262640600854894260405161099c93929190611350565b60405180910390a38060085442935093509350509250925092565b600380546109c49061155c565b80601f01602080910402602001604051908101604052809291908181526020018280546109f09061155c565b8015610a3d5780601f10610a1257610100808354040283529160200191610a3d565b820191906000526020600020905b815481529060010190602001808311610a2057829003601f168201915b505050505081565b60008060003373ffffffffffffffffffffffffffffffffffffffff16600160009054906101000a900473ffffffffffffffffffffffffffffffffffffffff1673ffffffffffffffffffffffffffffffffffffffff1614610ada576040517f08c379a0000000000000000000000000000000000000000000000000000000008152600401610ad190611600565b60405180910390fd5b600a60009054906101000a900460ff1615610b2a576040517f08c379a0000000000000000000000000000000000000000000000000000000008152600401610b219061176a565b60405180910390fd5b610b338461113e565b610b72576040517f08c379a0000000000000000000000000000000000000000000000000000000008152600401610b6990611a35565b60405180910390fd5b610b7a611132565b15610bba576040517f08c379a0000000000000000000000000000000000000000000000000000000008152600401610bb190611aa1565b60405180910390fd5b610bc2611198565b610c01576040517f08c379a0000000000000000000000000000000000000000000000000000000008152600401610bf890611b0d565b60405180910390fd5b6000606487600854610c139190611b2d565b610c1d9190611bb6565b9050600081600854610c2f9190611be7565b905060086000905560008054906101000a900473ffffffffffffffffffffffffffffffffffffffff1673ffffffffffffffffffffffffffffffffffffffff1663a9059cbb88846040518363ffffffff1660e01b8152600401610c92929190611c1b565b602060405180830381600087803b158015610cac57600080fd5b505af1158015610cc0573d6000803e3d6000fd5b505050506040513d601f19601f82011682018060405250810190610ce49190611996565b610ced57600080fd5b60008054906101000a900473ffffffffffffffffffffffffffffffffffffffff1673ffffffffffffffffffffffffffffffffffffffff1663a9059cbb87836040518363ffffffff1660e01b8152600401610d48929190611c1b565b602060405180830381600087803b158015610d6257600080fd5b505af1158015610d76573d6000803e3d6000fd5b505050506040513d601f19601f82011682018060405250810190610d9a9190611996565b610da357600080fd5b8573ffffffffffffffffffffffffffffffffffffffff167f52948de0cc413a7d554dc2b2a5896a37041208572e8a0b0dbf938e6ec8ea376e828442604051610ded93929190611350565b60405180910390a2808242945094509450505093509350939050565b600b6020528060005260406000206000915090505481565b600a60009054906101000a900460ff1681565b60095481565b60008060003373ffffffffffffffffffffffffffffffffffffffff16600160009054906101000a900473ffffffffffffffffffffffffffffffffffffffff1673ffffffffffffffffffffffffffffffffffffffff1614610ecf576040517f08c379a0000000000000000000000000000000000000000000000000000000008152600401610ec690611600565b60405180910390fd5b6000610ed9611132565b158015610eeb5750610ee9611198565b155b90508080610f055750600a60009054906101000a900460ff165b610f44576040517f08c379a0000000000000000000000000000000000000000000000000000000008152600401610f3b90611cdc565b60405180910390fd5b6000600b60008773ffffffffffffffffffffffffffffffffffffffff1673ffffffffffffffffffffffffffffffffffffffff168152602001908152602001600020549050600b60008773ffffffffffffffffffffffffffffffffffffffff1673ffffffffffffffffffffffffffffffffffffffff168152602001908152602001600020600090558060086000828254610fdd9190611be7565b9250508190555060008054906101000a900473ffffffffffffffffffffffffffffffffffffffff1673ffffffffffffffffffffffffffffffffffffffff1663a9059cbb87836040518363ffffffff1660e01b815260040161103f929190611c1b565b602060405180830381600087803b15801561105957600080fd5b505af115801561106d573d6000803e3d6000fd5b505050506040513d601f19601f820116820180604052508101906110919190611996565b61109a57600080fd5b8573ffffffffffffffffffffffffffffffffffffffff167fb7048c2ad36aadee977bb16b4543a18866044d27a2ca753e1c7dbcfa7d7a696260085483426040516110e693929190611350565b60405180910390a2600854814294509450945050509193909250565b60085481565b60065481565b60008054906101000a900473ffffffffffffffffffffffffffffffffffffffff1681565b60004260075411905090565b6000600560009054906101000a900473ffffffffffffffffffffffffffffffffffffffff1673ffffffffffffffffffffffffffffffffffffffff168273ffffffffffffffffffffffffffffffffffffffff16149050919050565b60006006546008541015905090565b600073ffffffffffffffffffffffffffffffffffffffff82169050919050565b60006111d2826111a7565b9050919050565b6111e2816111c7565b82525050565b60006020820190506111fd60008301846111d9565b92915050565b600081519050919050565b600082825260208201905092915050565b60005b8381101561123d578082015181840152602081019050611222565b8381111561124c576000848401525b50505050565b6000601f19601f8301169050919050565b600061126e82611203565b611278818561120e565b935061128881856020860161121f565b61129181611252565b840191505092915050565b600060208201905081810360008301526112b68184611263565b905092915050565b6000819050919050565b6112d1816112be565b82525050565b60006020820190506112ec60008301846112c8565b92915050565b600080fd5b611300816111c7565b811461130b57600080fd5b50565b60008135905061131d816112f7565b92915050565b600060208284031215611339576113386112f2565b5b60006113478482850161130e565b91505092915050565b600060608201905061136560008301866112c8565b61137260208301856112c8565b61137f60408301846112c8565b949350505050565b611390816112be565b811461139b57600080fd5b50565b6000813590506113ad81611387565b92915050565b600080604083850312156113ca576113c96112f2565b5b60006113d88582860161139e565b92505060206113e98582860161130e565b9150509250929050565b60008115159050919050565b611408816113f3565b82525050565b600060608201905061142360008301866113ff565b61143060208301856112c8565b61143d60408301846112c8565b949350505050565b60008060006060848603121561145e5761145d6112f2565b5b600061146c8682870161139e565b935050602061147d8682870161130e565b925050604061148e8682870161130e565b9150509250925092565b60006020820190506114ad60008301846113ff565b92915050565b6000819050919050565b60006114d86114d36114ce846111a7565b6114b3565b6111a7565b9050919050565b60006114ea826114bd565b9050919050565b60006114fc826114df565b9050919050565b61150c816114f1565b82525050565b60006020820190506115276000830184611503565b92915050565b7f4e487b7100000000000000000000000000000000000000000000000000000000600052602260045260246000fd5b6000600282049050600182168061157457607f821691505b602082108114156115885761158761152d565b5b50919050565b7f4572726f722c206f6e6c7920706172656e7420636f6e74726163742063616e2060008201527f696e7465726163742077697468207468697320636f6e74726163740000000000602082015250565b60006115ea603b8361120e565b91506115f58261158e565b604082019050919050565b60006020820190508181036000830152611619816115dd565b9050919050565b7f4572726f722c2063726f776466756e64206d757374206265206f70656e000000600082015250565b6000611656601d8361120e565b915061166182611620565b602082019050919050565b6000602082019050818103600083015261168581611649565b9050919050565b7f4572726f722c206f6e6c792063726561746f722063616e2063616e63656c207460008201527f686569722070726f6a6563740000000000000000000000000000000000000000602082015250565b60006116e8602c8361120e565b91506116f38261168c565b604082019050919050565b60006020820190508181036000830152611717816116db565b9050919050565b7f4572726f722c2070726f6a6563742063616e63656c6c65640000000000000000600082015250565b600061175460188361120e565b915061175f8261171e565b602082019050919050565b6000602082019050818103600083015261178381611747565b9050919050565b7f4572726f722c2063726561746f727320617265206e6f7420616c6c6f7765642060008201527f746f206164642066756e647320746f207468656972206f776e2070726f6a656360208201527f7473000000000000000000000000000000000000000000000000000000000000604082015250565b600061180c60428361120e565b91506118178261178a565b606082019050919050565b6000602082019050818103600083015261183b816117ff565b9050919050565b7f4572726f722c2070726f6a656374206d757374206265206f70656e0000000000600082015250565b6000611878601b8361120e565b915061188382611842565b602082019050919050565b600060208201905081810360008301526118a78161186b565b9050919050565b7f4e487b7100000000000000000000000000000000000000000000000000000000600052601160045260246000fd5b60006118e8826112be565b91506118f3836112be565b9250827fffffffffffffffffffffffffffffffffffffffffffffffffffffffffffffffff03821115611928576119276118ae565b5b828201905092915050565b600060608201905061194860008301866111d9565b61195560208301856111d9565b61196260408301846112c8565b949350505050565b611973816113f3565b811461197e57600080fd5b50565b6000815190506119908161196a565b92915050565b6000602082840312156119ac576119ab6112f2565b5b60006119ba84828501611981565b91505092915050565b7f4572726f722c206f6e6c792063726561746f722063616e20646973627572736560008201527f20636f6c6c65637465642070726f6a6563742066756e64730000000000000000602082015250565b6000611a1f60388361120e565b9150611a2a826119c3565b604082019050919050565b60006020820190508181036000830152611a4e81611a12565b9050919050565b7f4572726f722c2070726f6a656374207374696c6c206f70656e00000000000000600082015250565b6000611a8b60198361120e565b9150611a9682611a55565b602082019050919050565b60006020820190508181036000830152611aba81611a7e565b9050919050565b7f4572726f722c2070726f6a656374206e6f742066756c6c7946756e6465640000600082015250565b6000611af7601e8361120e565b9150611b0282611ac1565b602082019050919050565b60006020820190508181036000830152611b2681611aea565b9050919050565b6000611b38826112be565b9150611b43836112be565b9250817fffffffffffffffffffffffffffffffffffffffffffffffffffffffffffffffff0483118215151615611b7c57611b7b6118ae565b5b828202905092915050565b7f4e487b7100000000000000000000000000000000000000000000000000000000600052601260045260246000fd5b6000611bc1826112be565b9150611bcc836112be565b925082611bdc57611bdb611b87565b5b828204905092915050565b6000611bf2826112be565b9150611bfd836112be565b925082821015611c1057611c0f6118ae565b5b828203905092915050565b6000604082019050611c3060008301856111d9565b611c3d60208301846112c8565b9392505050565b7f4572726f722c206e6f20726566756e647320756e6c6573732070726f6a65637460008201527f20686173206265656e2063616e63656c6c6564206f7220646964206e6f74206d60208201527f6565742066756e64696e6720676f616c00000000000000000000000000000000604082015250565b6000611cc660508361120e565b9150611cd182611c44565b606082019050919050565b60006020820190508181036000830152611cf581611cb9565b905091905056fea26469706673582212209f99b25a59baa4e61c6b38881ae822a515202da8fbc93d553b51206b3c1d1ca164736f6c63430008090033",
  "immutableReferences": {},
  "source": "//SPDX-License-Identifier: UNLICENSED\r\npragma solidity ^0.8.9;\r\n\r\nimport \"openzeppelin-solidity/contracts/token/ERC20/IERC20.sol\";\r\n\r\ncontract Project {\r\n    IERC20 public dai;\r\n    address public parentAddress;\r\n\tstring public name; \r\n\tstring public description;\r\n\tstring public imgHash;\r\n\taddress public creator;\r\n\tuint256 public fundGoal;\r\n\tuint256 public timeGoal;\r\n\tuint256 public raisedFunds;\r\n\tuint256 public timestamp;\r\n\tbool public cancelled;\r\n\tmapping (address => uint256) public supporterFunds;\r\n\t\r\n\tevent Cancel (\r\n\t\taddress indexed creator,\r\n\t\tuint256 fundGoal,\r\n\t\tuint256 timeGoal,\r\n\t\tuint256 timestamp\t\r\n\t);\r\n\tevent Contribution (\r\n\t\taddress indexed supporter,\r\n\t\tbool indexed newSupporter,\r\n\t\tuint256 raisedFunds,\r\n\t\tuint256 fundAmount,\t\r\n\t\tuint256 timestamp\t\t\r\n\t);\r\n\tevent Disburse (\r\n\t\taddress indexed creator,\r\n\t\tuint256 disburseAmount,\r\n\t\tuint256 feeAmount,\r\n\t\tuint256 timestamp\r\n\t);\r\n\tevent Refund (\r\n\t\taddress indexed supporter,\r\n\t\tuint256 raisedFunds,\r\n\t\tuint256 refundAmount,\r\n\t\tuint256 timestamp\t\r\n\t);\t\r\n\tconstructor(\r\n    \tstring memory _name,\r\n    \tstring memory _description,\r\n    \tstring memory _imgHash,\r\n    \taddress _creator,\r\n    \tuint256 _fundGoal,\r\n    \tuint256 _timeGoal,\r\n    \tuint256 _timestamp,\r\n    \taddress _dai\r\n\t ) \r\n\t{\r\n        name = _name;\r\n        description = _description;\r\n        imgHash = _imgHash;\r\n        creator = _creator;\r\n        fundGoal = _fundGoal;\r\n        timeGoal = _timeGoal;\r\n        timestamp = _timestamp;\r\n        dai = IERC20(_dai);\r\n        parentAddress = msg.sender;\r\n\t}\r\n\t\r\n\t// Fallback: reverts if Ether is sent to this smart contract by mistake\r\n    fallback () external { revert(); }\r\n\t\r\n\tmodifier onlyParentContract () {\r\n\t\trequire(parentAddress == msg.sender, 'Error, only parent contract can interact with this contract');\r\n\t\t_;\r\n\t}\r\n\t\r\n\tfunction isOpen() internal view returns(bool) {\r\n\t\treturn(timeGoal > block.timestamp);\r\n\t}\r\n\t\r\n\tfunction callerIsCreator(address _user) internal view returns(bool) {\r\n\t    return(_user == creator);\r\n\t}\r\n\t\r\n\tfunction fullyFunded() internal view returns(bool) {\r\n\t    return(raisedFunds >= fundGoal);\r\n\t}\r\n\r\n\tfunction cancel(address _user) onlyParentContract external returns(uint256, uint256, uint256) {\r\n\t\trequire(isOpen(), 'Error, crowdfund must be open');\r\n\t\trequire(callerIsCreator(_user), 'Error, only creator can cancel their project');\r\n\t\tcancelled = true;\r\n\t\temit Cancel(_user, fundGoal, timeGoal, block.timestamp);\r\n\t\treturn(fundGoal, timeGoal, block.timestamp);    \r\n\t}\r\n\r\n\tfunction contribute(uint256 _amount, address _user) onlyParentContract external returns(bool, uint256, uint256) {\r\n\t    bool _newSupporter;\r\n\t\trequire(!cancelled, 'Error, project cancelled');\r\n\t\trequire(!callerIsCreator(_user), 'Error, creators are not allowed to add funds to their own projects');\r\n\t\trequire(isOpen(), 'Error, project must be open');\r\n\t\tif(supporterFunds[_user] == 0) {\r\n\t\t\t_newSupporter = true;\t\r\n\t\t}\r\n\t\traisedFunds += _amount;\r\n\t\tsupporterFunds[_user] += _amount;\r\n\t\trequire(dai.transferFrom(_user, address(this), _amount));\r\n\t\temit Contribution (_user, _newSupporter, raisedFunds , _amount, block.timestamp);\t\r\n\t\treturn(_newSupporter, raisedFunds, block.timestamp);\r\n\t}\r\n\t\r\n\tfunction disburse(uint256 _feePercent, address _feeAccount, address _user) onlyParentContract external returns(uint256, uint256, uint256) {\r\n\t\trequire(!cancelled, 'Error, project cancelled');\r\n\t\trequire(callerIsCreator(_user), 'Error, only creator can disburse collected project funds');\r\n\t\trequire(!isOpen(), 'Error, project still open');\r\n\t\trequire(fullyFunded(), 'Error, project not fullyFunded');\r\n\t\tuint256 _feeAmount = (raisedFunds * _feePercent)/100;\r\n\t\tuint256 _disburseAmount = raisedFunds - _feeAmount; \r\n\t\tdelete raisedFunds;\r\n\t\trequire(dai.transfer(_feeAccount, _feeAmount));\r\n\t\trequire(dai.transfer(_user, _disburseAmount));\r\n\t\temit Disburse(_user, _disburseAmount, _feeAmount, block.timestamp);\r\n\t\treturn(_disburseAmount, _feeAmount, block.timestamp);\r\n\t}\r\n\r\n\tfunction claimRefund(address _user) onlyParentContract external returns (uint256, uint256, uint256) {\r\n\t\tbool _failed = !isOpen() && !fullyFunded();\r\n\t\trequire(_failed || cancelled, 'Error, no refunds unless project has been cancelled or did not meet funding goal');\r\n\t\tuint256 _supporterFunds = supporterFunds[_user];\r\n\t\tdelete supporterFunds[_user];\r\n\t\traisedFunds -= _supporterFunds;\r\n\t\trequire(dai.transfer(_user, _supporterFunds));\r\n\t\temit Refund(_user, raisedFunds, _supporterFunds, block.timestamp);\r\n\t\treturn(raisedFunds,_supporterFunds, block.timestamp);\r\n\t}\r\n}",
  "sourcePath": "/mnt/c/pr0/make-it-happen/src/contracts/Project.sol",
  "compiler": {
    "name": "solc",
    "version": "0.8.9+commit.e5eed63a.Emscripten.clang"
  },
  "schemaVersion": "3.4.1",
  "updatedAt": "2021-11-13T18:24:39.859Z",
  "devdoc": {
    "kind": "dev",
    "methods": {},
    "version": 1
  },
  "userdoc": {
    "kind": "user",
    "methods": {},
    "version": 1
  }
}