{
  "contractName": "Swap",
  "abi": [
    {
      "inputs": [
        {
          "internalType": "address",
          "name": "_dai",
          "type": "address"
        },
        {
          "internalType": "address",
          "name": "_weth",
          "type": "address"
        }
      ],
      "stateMutability": "nonpayable",
      "type": "constructor"
    },
    {
      "inputs": [],
      "name": "dai",
      "outputs": [
        {
          "internalType": "address",
          "name": "",
          "type": "address"
        }
      ],
      "stateMutability": "view",
      "type": "function"
    },
    {
      "inputs": [],
      "name": "poolFee",
      "outputs": [
        {
          "internalType": "uint24",
          "name": "",
          "type": "uint24"
        }
      ],
      "stateMutability": "view",
      "type": "function"
    },
    {
      "inputs": [],
      "name": "quoter",
      "outputs": [
        {
          "internalType": "contract IQuoter",
          "name": "",
          "type": "address"
        }
      ],
      "stateMutability": "view",
      "type": "function"
    },
    {
      "inputs": [],
      "name": "swapRouter",
      "outputs": [
        {
          "internalType": "contract IUniSwapRouter",
          "name": "",
          "type": "address"
        }
      ],
      "stateMutability": "view",
      "type": "function"
    },
    {
      "inputs": [],
      "name": "weth9",
      "outputs": [
        {
          "internalType": "address",
          "name": "",
          "type": "address"
        }
      ],
      "stateMutability": "view",
      "type": "function"
    },
    {
      "stateMutability": "payable",
      "type": "receive"
    },
    {
      "inputs": [
        {
          "internalType": "uint256",
          "name": "_amountOut",
          "type": "uint256"
        }
      ],
      "name": "convertEthToExactDai",
      "outputs": [
        {
          "internalType": "uint256",
          "name": "_amountIn",
          "type": "uint256"
        }
      ],
      "stateMutability": "payable",
      "type": "function"
    }
  ],
  "bytecode": "0x608060405234801561001057600080fd5b50604051610a13380380610a138339818101604052810190610032919061011d565b816000806101000a81548173ffffffffffffffffffffffffffffffffffffffff021916908373ffffffffffffffffffffffffffffffffffffffff16021790555080600160006101000a81548173ffffffffffffffffffffffffffffffffffffffff021916908373ffffffffffffffffffffffffffffffffffffffff160217905550505061015d565b600080fd5b600073ffffffffffffffffffffffffffffffffffffffff82169050919050565b60006100ea826100bf565b9050919050565b6100fa816100df565b811461010557600080fd5b50565b600081519050610117816100f1565b92915050565b60008060408385031215610134576101336100ba565b5b600061014285828601610108565b925050602061015385828601610108565b9150509250929050565b6108a78061016c6000396000f3fe6080604052600436106100595760003560e01c8063089fe6aa1461006557806350879c1c146100905780637ed3717f146100bb578063c31c9c07146100eb578063c6bbd5a714610116578063f4b9fa751461014157610060565b3661006057005b600080fd5b34801561007157600080fd5b5061007a61016c565b60405161008791906104b3565b60405180910390f35b34801561009c57600080fd5b506100a5610172565b6040516100b2919061050f565b60405180910390f35b6100d560048036038101906100d09190610565565b610198565b6040516100e291906105a1565b60405180910390f35b3480156100f757600080fd5b50610100610441565b60405161010d919061061b565b60405180910390f35b34801561012257600080fd5b5061012b610459565b6040516101389190610657565b60405180910390f35b34801561014d57600080fd5b50610156610471565b604051610163919061050f565b60405180910390f35b610bb881565b600160009054906101000a900473ffffffffffffffffffffffffffffffffffffffff1681565b600080604051806101000160405280600160009054906101000a900473ffffffffffffffffffffffffffffffffffffffff1673ffffffffffffffffffffffffffffffffffffffff16815260200160008054906101000a900473ffffffffffffffffffffffffffffffffffffffff1673ffffffffffffffffffffffffffffffffffffffff168152602001610bb862ffffff1681526020013373ffffffffffffffffffffffffffffffffffffffff168152602001428152602001848152602001348152602001600073ffffffffffffffffffffffffffffffffffffffff16815250905073e592427a0aece92de3edee1f18e0157c0586156473ffffffffffffffffffffffffffffffffffffffff1663db3e2198826040518263ffffffff1660e01b81526004016102c69190610750565b602060405180830381600087803b1580156102e057600080fd5b505af11580156102f4573d6000803e3d6000fd5b505050506040513d601f19601f820116820180604052508101906103189190610781565b915073e592427a0aece92de3edee1f18e0157c0586156473ffffffffffffffffffffffffffffffffffffffff166312210e8a6040518163ffffffff1660e01b8152600401600060405180830381600087803b15801561037657600080fd5b505af115801561038a573d6000803e3d6000fd5b5050505060003373ffffffffffffffffffffffffffffffffffffffff16476040516103b4906107df565b60006040518083038185875af1925050503d80600081146103f1576040519150601f19603f3d011682016040523d82523d6000602084013e6103f6565b606091505b505090508061043a576040517f08c379a000000000000000000000000000000000000000000000000000000000815260040161043190610851565b60405180910390fd5b5050919050565b73e592427a0aece92de3edee1f18e0157c0586156481565b73b27308f9f90d607463bb33ea1bebb41c27ce5ab681565b60008054906101000a900473ffffffffffffffffffffffffffffffffffffffff1681565b600062ffffff82169050919050565b6104ad81610495565b82525050565b60006020820190506104c860008301846104a4565b92915050565b600073ffffffffffffffffffffffffffffffffffffffff82169050919050565b60006104f9826104ce565b9050919050565b610509816104ee565b82525050565b60006020820190506105246000830184610500565b92915050565b600080fd5b6000819050919050565b6105428161052f565b811461054d57600080fd5b50565b60008135905061055f81610539565b92915050565b60006020828403121561057b5761057a61052a565b5b600061058984828501610550565b91505092915050565b61059b8161052f565b82525050565b60006020820190506105b66000830184610592565b92915050565b6000819050919050565b60006105e16105dc6105d7846104ce565b6105bc565b6104ce565b9050919050565b60006105f3826105c6565b9050919050565b6000610605826105e8565b9050919050565b610615816105fa565b82525050565b6000602082019050610630600083018461060c565b92915050565b6000610641826105e8565b9050919050565b61065181610636565b82525050565b600060208201905061066c6000830184610648565b92915050565b61067b816104ee565b82525050565b61068a81610495565b82525050565b6106998161052f565b82525050565b6106a8816104ce565b82525050565b610100820160008201516106c56000850182610672565b5060208201516106d86020850182610672565b5060408201516106eb6040850182610681565b5060608201516106fe6060850182610672565b5060808201516107116080850182610690565b5060a082015161072460a0850182610690565b5060c082015161073760c0850182610690565b5060e082015161074a60e085018261069f565b50505050565b60006101008201905061076660008301846106ae565b92915050565b60008151905061077b81610539565b92915050565b6000602082840312156107975761079661052a565b5b60006107a58482850161076c565b91505092915050565b600081905092915050565b50565b60006107c96000836107ae565b91506107d4826107b9565b600082019050919050565b60006107ea826107bc565b9150819050919050565b600082825260208201905092915050565b7f5472616e73666572206661696c65640000000000000000000000000000000000600082015250565b600061083b600f836107f4565b915061084682610805565b602082019050919050565b6000602082019050818103600083015261086a8161082e565b905091905056fea2646970667358221220fbab2e06964169fcee5a338a0445809fec1bd51a568bead63fc78f3e3571025864736f6c63430008090033",
  "immutableReferences": {},
  "source": "//SPDX-License-Identifier: UNLICENSED\npragma solidity ^0.8.9;\npragma abicoder v2;\n\nimport '@uniswap/v3-periphery/contracts/libraries/TransferHelper.sol';\nimport '@uniswap/v3-periphery/contracts/interfaces/ISwapRouter.sol';\nimport '@uniswap/v3-periphery/contracts/interfaces/IQuoter.sol';\n\ninterface IUniSwapRouter is ISwapRouter {\n    function refundETH() external payable;\n}\n\ncontract Swap {\n    uint24 public constant poolFee = 3000;\n    address public dai;\n    address public weth9;\n    IUniSwapRouter public constant swapRouter = IUniSwapRouter(0xE592427A0AEce92De3Edee1F18E0157C05861564);\n    IQuoter public constant quoter = IQuoter(0xb27308f9F90D607463bb33eA1BeBb41C27CE5AB6);\n    constructor(address _dai, address _weth) {\n        dai = _dai;\n        weth9 = _weth;\n    }\n\n    // Used to accept swapRouter refund \n    receive() external payable {\n    }\n\n    function convertEthToExactDai(uint256 _amountOut) external payable returns(uint256 _amountIn) {\n        ISwapRouter.ExactOutputSingleParams memory params =\n            ISwapRouter.ExactOutputSingleParams({\n                tokenIn: weth9,\n                tokenOut: dai,\n                fee: poolFee,\n                recipient: msg.sender,\n                deadline: block.timestamp,\n                amountOut: _amountOut,\n                amountInMaximum: msg.value,\n                sqrtPriceLimitX96: 0\n            });\n\n        _amountIn = swapRouter.exactOutputSingle(params);\n        swapRouter.refundETH();\n        // Send the refunded either back to sender\n        (bool success, ) = msg.sender.call{value: address(this).balance }('');\n        require(success, \"Transfer failed\");\n    }\n}",
  "sourcePath": "/Users/ethancemer/Documents/make-it-happen/src/contracts/Swap.sol",
  "compiler": {
    "name": "solc",
    "version": "0.8.9+commit.e5eed63a.Emscripten.clang"
  },
  "schemaVersion": "3.4.3",
  "updatedAt": "2021-11-17T14:56:52.690Z",
  "devdoc": {
    "kind": "dev",
    "methods": {},
    "version": 1
  },
  "userdoc": {
    "kind": "user",
    "methods": {},
    "version": 1
  }
}