{
  "contractName": "Swap",
  "abi": [
    {
      "inputs": [
        {
          "internalType": "address",
          "name": "_dai",
          "type": "address"
        },
        {
          "internalType": "address",
          "name": "_weth",
          "type": "address"
        }
      ],
      "stateMutability": "nonpayable",
      "type": "constructor"
    },
    {
      "anonymous": false,
      "inputs": [
        {
          "indexed": false,
          "internalType": "address",
          "name": "user",
          "type": "address"
        },
        {
          "indexed": false,
          "internalType": "uint256",
          "name": "amountOut",
          "type": "uint256"
        },
        {
          "indexed": false,
          "internalType": "uint256",
          "name": "amountInMaximum",
          "type": "uint256"
        },
        {
          "indexed": false,
          "internalType": "uint256",
          "name": "amountIn",
          "type": "uint256"
        }
      ],
      "name": "Converted",
      "type": "event"
    },
    {
      "inputs": [],
      "name": "dai",
      "outputs": [
        {
          "internalType": "address",
          "name": "",
          "type": "address"
        }
      ],
      "stateMutability": "view",
      "type": "function",
      "constant": true
    },
    {
      "inputs": [],
      "name": "poolFee",
      "outputs": [
        {
          "internalType": "uint24",
          "name": "",
          "type": "uint24"
        }
      ],
      "stateMutability": "view",
      "type": "function",
      "constant": true
    },
    {
      "inputs": [],
      "name": "quoter",
      "outputs": [
        {
          "internalType": "contract IQuoter",
          "name": "",
          "type": "address"
        }
      ],
      "stateMutability": "view",
      "type": "function",
      "constant": true
    },
    {
      "inputs": [],
      "name": "swapRouter",
      "outputs": [
        {
          "internalType": "contract IUniSwapRouter",
          "name": "",
          "type": "address"
        }
      ],
      "stateMutability": "view",
      "type": "function",
      "constant": true
    },
    {
      "inputs": [],
      "name": "weth",
      "outputs": [
        {
          "internalType": "address",
          "name": "",
          "type": "address"
        }
      ],
      "stateMutability": "view",
      "type": "function",
      "constant": true
    },
    {
      "stateMutability": "payable",
      "type": "receive",
      "payable": true
    },
    {
      "inputs": [
        {
          "internalType": "uint256",
          "name": "_amountOut",
          "type": "uint256"
        }
      ],
      "name": "getEthInputAmount",
      "outputs": [
        {
          "internalType": "uint256",
          "name": "_amountIn",
          "type": "uint256"
        }
      ],
      "stateMutability": "payable",
      "type": "function",
      "payable": true
    },
    {
      "inputs": [
        {
          "internalType": "uint256",
          "name": "_daiAmountOut",
          "type": "uint256"
        },
        {
          "internalType": "uint256",
          "name": "_deadline",
          "type": "uint256"
        }
      ],
      "name": "convertEthToExactDai",
      "outputs": [],
      "stateMutability": "payable",
      "type": "function",
      "payable": true
    }
  ],
  "bytecode": "0x608060405234801561001057600080fd5b50604051610e23380380610e238339818101604052810190610032919061011d565b816000806101000a81548173ffffffffffffffffffffffffffffffffffffffff021916908373ffffffffffffffffffffffffffffffffffffffff16021790555080600160006101000a81548173ffffffffffffffffffffffffffffffffffffffff021916908373ffffffffffffffffffffffffffffffffffffffff160217905550505061015d565b600080fd5b600073ffffffffffffffffffffffffffffffffffffffff82169050919050565b60006100ea826100bf565b9050919050565b6100fa816100df565b811461010557600080fd5b50565b600081519050610117816100f1565b92915050565b60008060408385031215610134576101336100ba565b5b600061014285828601610108565b925050602061015385828601610108565b9150509250929050565b610cb78061016c6000396000f3fe6080604052600436106100745760003560e01c8063c31c9c071161004e578063c31c9c0714610106578063c6bbd5a714610131578063f4b9fa751461015c578063f6275432146101875761007b565b8063089fe6aa146100805780633fc8cef3146100ab578063938a8a7b146100d65761007b565b3661007b57005b600080fd5b34801561008c57600080fd5b506100956101a3565b6040516100a291906106b8565b60405180910390f35b3480156100b757600080fd5b506100c06101a9565b6040516100cd9190610714565b60405180910390f35b6100f060048036038101906100eb919061076a565b6101cf565b6040516100fd91906107a6565b60405180910390f35b34801561011257600080fd5b5061011b6102d8565b6040516101289190610820565b60405180910390f35b34801561013d57600080fd5b506101466102f0565b604051610153919061085c565b60405180910390f35b34801561016857600080fd5b50610171610308565b60405161017e9190610714565b60405180910390f35b6101a1600480360381019061019c9190610877565b61032c565b005b610bb881565b600160009054906101000a900473ffffffffffffffffffffffffffffffffffffffff1681565b600080600160009054906101000a900473ffffffffffffffffffffffffffffffffffffffff16905060008060009054906101000a900473ffffffffffffffffffffffffffffffffffffffff16905060006101f49050600073b27308f9f90d607463bb33ea1bebb41c27ce5ab673ffffffffffffffffffffffffffffffffffffffff166330d07f218585858a866040518663ffffffff1660e01b815260040161027b9594939291906108c6565b602060405180830381600087803b15801561029557600080fd5b505af11580156102a9573d6000803e3d6000fd5b505050506040513d601f19601f820116820180604052508101906102cd919061092e565b945050505050919050565b73e592427a0aece92de3edee1f18e0157c0586156481565b73b27308f9f90d607463bb33ea1bebb41c27ce5ab681565b60008054906101000a900473ffffffffffffffffffffffffffffffffffffffff1681565b6000821161036f576040517f08c379a0000000000000000000000000000000000000000000000000000000008152600401610366906109de565b60405180910390fd5b600034116103b2576040517f08c379a00000000000000000000000000000000000000000000000000000000081526004016103a990610a70565b60405180910390fd5b6000604051806101000160405280600160009054906101000a900473ffffffffffffffffffffffffffffffffffffffff1673ffffffffffffffffffffffffffffffffffffffff16815260200160008054906101000a900473ffffffffffffffffffffffffffffffffffffffff1673ffffffffffffffffffffffffffffffffffffffff168152602001610bb862ffffff1681526020013373ffffffffffffffffffffffffffffffffffffffff168152602001838152602001848152602001348152602001600073ffffffffffffffffffffffffffffffffffffffff168152509050600073e592427a0aece92de3edee1f18e0157c0586156473ffffffffffffffffffffffffffffffffffffffff1663db3e219834846040518363ffffffff1660e01b81526004016104e29190610b6e565b6020604051808303818588803b1580156104fb57600080fd5b505af115801561050f573d6000803e3d6000fd5b50505050506040513d601f19601f82011682018060405250810190610534919061092e565b905073e592427a0aece92de3edee1f18e0157c0586156473ffffffffffffffffffffffffffffffffffffffff166312210e8a6040518163ffffffff1660e01b8152600401600060405180830381600087803b15801561059257600080fd5b505af11580156105a6573d6000803e3d6000fd5b5050505060003373ffffffffffffffffffffffffffffffffffffffff16476040516105d090610bbb565b60006040518083038185875af1925050503d806000811461060d576040519150601f19603f3d011682016040523d82523d6000602084013e610612565b606091505b5050905080610656576040517f08c379a000000000000000000000000000000000000000000000000000000000815260040161064d90610c1c565b60405180910390fd5b7fe8e327a81bf019d3af2e7baa0c6f3dcb5231127e9a5f3448d9819d7faef21f9d3386348560405161068b9493929190610c3c565b60405180910390a15050505050565b600062ffffff82169050919050565b6106b28161069a565b82525050565b60006020820190506106cd60008301846106a9565b92915050565b600073ffffffffffffffffffffffffffffffffffffffff82169050919050565b60006106fe826106d3565b9050919050565b61070e816106f3565b82525050565b60006020820190506107296000830184610705565b92915050565b600080fd5b6000819050919050565b61074781610734565b811461075257600080fd5b50565b6000813590506107648161073e565b92915050565b6000602082840312156107805761077f61072f565b5b600061078e84828501610755565b91505092915050565b6107a081610734565b82525050565b60006020820190506107bb6000830184610797565b92915050565b6000819050919050565b60006107e66107e16107dc846106d3565b6107c1565b6106d3565b9050919050565b60006107f8826107cb565b9050919050565b600061080a826107ed565b9050919050565b61081a816107ff565b82525050565b60006020820190506108356000830184610811565b92915050565b6000610846826107ed565b9050919050565b6108568161083b565b82525050565b6000602082019050610871600083018461084d565b92915050565b6000806040838503121561088e5761088d61072f565b5b600061089c85828601610755565b92505060206108ad85828601610755565b9150509250929050565b6108c0816106d3565b82525050565b600060a0820190506108db6000830188610705565b6108e86020830187610705565b6108f560408301866106a9565b6109026060830185610797565b61090f60808301846108b7565b9695505050505050565b6000815190506109288161073e565b92915050565b6000602082840312156109445761094361072f565b5b600061095284828501610919565b91505092915050565b600082825260208201905092915050565b7f4572726f722c2044414920616d6f756e74206f7574206d75737420626520677260008201527f6561746572207468616e20300000000000000000000000000000000000000000602082015250565b60006109c8602c8361095b565b91506109d38261096c565b604082019050919050565b600060208201905081810360008301526109f7816109bb565b9050919050565b7f4572726f722c2045544820616d6f756e74206d7573742062652067726561746560008201527f72207468616e2030000000000000000000000000000000000000000000000000602082015250565b6000610a5a60288361095b565b9150610a65826109fe565b604082019050919050565b60006020820190508181036000830152610a8981610a4d565b9050919050565b610a99816106f3565b82525050565b610aa88161069a565b82525050565b610ab781610734565b82525050565b610ac6816106d3565b82525050565b61010082016000820151610ae36000850182610a90565b506020820151610af66020850182610a90565b506040820151610b096040850182610a9f565b506060820151610b1c6060850182610a90565b506080820151610b2f6080850182610aae565b5060a0820151610b4260a0850182610aae565b5060c0820151610b5560c0850182610aae565b5060e0820151610b6860e0850182610abd565b50505050565b600061010082019050610b846000830184610acc565b92915050565b600081905092915050565b50565b6000610ba5600083610b8a565b9150610bb082610b95565b600082019050919050565b6000610bc682610b98565b9150819050919050565b7f5472616e73666572206661696c65640000000000000000000000000000000000600082015250565b6000610c06600f8361095b565b9150610c1182610bd0565b602082019050919050565b60006020820190508181036000830152610c3581610bf9565b9050919050565b6000608082019050610c516000830187610705565b610c5e6020830186610797565b610c6b6040830185610797565b610c786060830184610797565b9594505050505056fea264697066735822122079f3c11e2b4c7a5f8beae97c91a4e450b875be616eb1a4bc414c2985bb85d4ec64736f6c63430008090033",
  "immutableReferences": {},
  "source": "//SPDX-License-Identifier: UNLICENSED\npragma solidity ^0.8.9;\npragma abicoder v2;\n\nimport '@uniswap/v3-periphery/contracts/interfaces/ISwapRouter.sol';\nimport '@uniswap/v3-periphery/contracts/interfaces/IQuoter.sol';\n\ninterface IUniSwapRouter is ISwapRouter {\n    function refundETH() external payable;\n}\n\ncontract Swap {\n    uint24 public constant poolFee = 3000;\n    address public dai;\n    address public weth;\n    IUniSwapRouter public constant swapRouter = IUniSwapRouter(0xE592427A0AEce92De3Edee1F18E0157C05861564);\n    IQuoter public constant quoter = IQuoter(0xb27308f9F90D607463bb33eA1BeBb41C27CE5AB6);\n    event Converted (\n        address user,\n        uint256 amountOut,\n        uint256 amountInMaximum,\n        uint256 amountIn\n    );\n    constructor(address _dai, address _weth) {\n        dai = _dai;\n        weth = _weth;\n    }\n\n    // Used to accept swapRouter refund \n    receive() external payable {\n    }\n    // This function is a read only function but can't be marked as view because it relies on non-view functiions to compute the result.\n    function getEthInputAmount(uint256 _amountOut) external payable returns(uint256 _amountIn) {\n        address _tokenIn = weth;\n        address _tokenOut = dai;\n        uint24 _fee = 500;\n        uint160 sqrtPriceLimitX96 = 0;\n        _amountIn = quoter.quoteExactOutputSingle(\n            _tokenIn,\n            _tokenOut,\n            _fee,\n            _amountOut,\n            sqrtPriceLimitX96\n        );\n    }\n\n    function convertEthToExactDai(uint256 _daiAmountOut, uint256 _deadline) external payable {\n        require(_daiAmountOut > 0, \"Error, DAI amount out must be greater than 0\");\n        require(msg.value > 0, \"Error, ETH amount must be greater than 0\");\n        ISwapRouter.ExactOutputSingleParams memory params =\n            ISwapRouter.ExactOutputSingleParams({\n                tokenIn: weth,\n                tokenOut: dai,\n                fee: poolFee,\n                recipient: msg.sender,\n                deadline: _deadline,\n                amountOut: _daiAmountOut,\n                amountInMaximum: msg.value,\n                sqrtPriceLimitX96: 0\n            });\n\n        uint256 _amountIn = swapRouter.exactOutputSingle{value: msg.value}(params);\n        swapRouter.refundETH();\n        // Send the refunded ETH back to sender\n        (bool success, ) = msg.sender.call{value: address(this).balance }('');\n        require(success, \"Transfer failed\");\n        emit Converted (msg.sender, _daiAmountOut, msg.value, _amountIn);\n    }\n}\n",
  "sourcePath": "/Users/ethancemer/Documents/make-it-happen/src/contracts/Swap.sol",
  "compiler": {
    "name": "solc",
    "version": "0.8.9+commit.e5eed63a.Emscripten.clang"
  },
  "schemaVersion": "3.4.3",
  "updatedAt": "2021-11-24T18:31:48.226Z",
  "networkType": "ethereum",
  "devdoc": {
    "kind": "dev",
    "methods": {},
    "version": 1
  },
  "userdoc": {
    "kind": "user",
    "methods": {},
    "version": 1
  }
}