{
  "contractName": "Swap",
  "abi": [
    {
      "inputs": [
        {
          "internalType": "address",
          "name": "_dai",
          "type": "address"
        },
        {
          "internalType": "address",
          "name": "_weth",
          "type": "address"
        }
      ],
      "stateMutability": "nonpayable",
      "type": "constructor"
    },
    {
      "anonymous": false,
      "inputs": [
        {
          "indexed": false,
          "internalType": "address",
          "name": "user",
          "type": "address"
        },
        {
          "indexed": false,
          "internalType": "uint256",
          "name": "amountOut",
          "type": "uint256"
        },
        {
          "indexed": false,
          "internalType": "uint256",
          "name": "amountInMaximum",
          "type": "uint256"
        },
        {
          "indexed": false,
          "internalType": "uint256",
          "name": "amountIn",
          "type": "uint256"
        }
      ],
      "name": "Converted",
      "type": "event"
    },
    {
      "inputs": [],
      "name": "dai",
      "outputs": [
        {
          "internalType": "address",
          "name": "",
          "type": "address"
        }
      ],
      "stateMutability": "view",
      "type": "function",
      "constant": true
    },
    {
      "inputs": [],
      "name": "poolFee",
      "outputs": [
        {
          "internalType": "uint24",
          "name": "",
          "type": "uint24"
        }
      ],
      "stateMutability": "view",
      "type": "function",
      "constant": true
    },
    {
      "inputs": [],
      "name": "quoter",
      "outputs": [
        {
          "internalType": "contract IQuoter",
          "name": "",
          "type": "address"
        }
      ],
      "stateMutability": "view",
      "type": "function",
      "constant": true
    },
    {
      "inputs": [],
      "name": "swapRouter",
      "outputs": [
        {
          "internalType": "contract IUSwapRouter",
          "name": "",
          "type": "address"
        }
      ],
      "stateMutability": "view",
      "type": "function",
      "constant": true
    },
    {
      "inputs": [],
      "name": "weth",
      "outputs": [
        {
          "internalType": "address",
          "name": "",
          "type": "address"
        }
      ],
      "stateMutability": "view",
      "type": "function",
      "constant": true
    },
    {
      "stateMutability": "payable",
      "type": "receive",
      "payable": true
    },
    {
      "inputs": [
        {
          "internalType": "uint256",
          "name": "_amountOut",
          "type": "uint256"
        }
      ],
      "name": "getEthInputAmount",
      "outputs": [
        {
          "internalType": "uint256",
          "name": "_amountIn",
          "type": "uint256"
        }
      ],
      "stateMutability": "payable",
      "type": "function",
      "payable": true
    },
    {
      "inputs": [
        {
          "internalType": "uint256",
          "name": "_daiAmountOut",
          "type": "uint256"
        },
        {
          "internalType": "uint256",
          "name": "_deadline",
          "type": "uint256"
        }
      ],
      "name": "convertEthToExactDai",
      "outputs": [],
      "stateMutability": "payable",
      "type": "function",
      "payable": true
    }
  ],
  "bytecode": "0x608060405234801561001057600080fd5b50604051610e05380380610e058339818101604052810190610032919061011d565b816000806101000a81548173ffffffffffffffffffffffffffffffffffffffff021916908373ffffffffffffffffffffffffffffffffffffffff16021790555080600160006101000a81548173ffffffffffffffffffffffffffffffffffffffff021916908373ffffffffffffffffffffffffffffffffffffffff160217905550505061015d565b600080fd5b600073ffffffffffffffffffffffffffffffffffffffff82169050919050565b60006100ea826100bf565b9050919050565b6100fa816100df565b811461010557600080fd5b50565b600081519050610117816100f1565b92915050565b60008060408385031215610134576101336100ba565b5b600061014285828601610108565b925050602061015385828601610108565b9150509250929050565b610c998061016c6000396000f3fe6080604052600436106100745760003560e01c8063c31c9c071161004e578063c31c9c0714610106578063c6bbd5a714610131578063f4b9fa751461015c578063f6275432146101875761007b565b8063089fe6aa146100805780633fc8cef3146100ab578063938a8a7b146100d65761007b565b3661007b57005b600080fd5b34801561008c57600080fd5b506100956101a3565b6040516100a2919061069a565b60405180910390f35b3480156100b757600080fd5b506100c06101a9565b6040516100cd91906106f6565b60405180910390f35b6100f060048036038101906100eb919061074c565b6101cf565b6040516100fd9190610788565b60405180910390f35b34801561011257600080fd5b5061011b6102c9565b6040516101289190610802565b60405180910390f35b34801561013d57600080fd5b506101466102e1565b604051610153919061083e565b60405180910390f35b34801561016857600080fd5b506101716102f9565b60405161017e91906106f6565b60405180910390f35b6101a1600480360381019061019c9190610859565b61031d565b005b610bb881565b600160009054906101000a900473ffffffffffffffffffffffffffffffffffffffff1681565b600080600160009054906101000a900473ffffffffffffffffffffffffffffffffffffffff16905060008060009054906101000a900473ffffffffffffffffffffffffffffffffffffffff16905060006101f49050600073b27308f9f90d607463bb33ea1bebb41c27ce5ab673ffffffffffffffffffffffffffffffffffffffff166330d07f218585858a866040518663ffffffff1660e01b815260040161027b9594939291906108a8565b6020604051808303816000875af115801561029a573d6000803e3d6000fd5b505050506040513d601f19601f820116820180604052508101906102be9190610910565b945050505050919050565b73e592427a0aece92de3edee1f18e0157c0586156481565b73b27308f9f90d607463bb33ea1bebb41c27ce5ab681565b60008054906101000a900473ffffffffffffffffffffffffffffffffffffffff1681565b60008211610360576040517f08c379a0000000000000000000000000000000000000000000000000000000008152600401610357906109c0565b60405180910390fd5b600034116103a3576040517f08c379a000000000000000000000000000000000000000000000000000000000815260040161039a90610a52565b60405180910390fd5b6000604051806101000160405280600160009054906101000a900473ffffffffffffffffffffffffffffffffffffffff1673ffffffffffffffffffffffffffffffffffffffff16815260200160008054906101000a900473ffffffffffffffffffffffffffffffffffffffff1673ffffffffffffffffffffffffffffffffffffffff168152602001610bb862ffffff1681526020013373ffffffffffffffffffffffffffffffffffffffff168152602001838152602001848152602001348152602001600073ffffffffffffffffffffffffffffffffffffffff168152509050600073e592427a0aece92de3edee1f18e0157c0586156473ffffffffffffffffffffffffffffffffffffffff1663db3e219834846040518363ffffffff1660e01b81526004016104d39190610b50565b60206040518083038185885af11580156104f1573d6000803e3d6000fd5b50505050506040513d601f19601f820116820180604052508101906105169190610910565b905073e592427a0aece92de3edee1f18e0157c0586156473ffffffffffffffffffffffffffffffffffffffff166312210e8a6040518163ffffffff1660e01b8152600401600060405180830381600087803b15801561057457600080fd5b505af1158015610588573d6000803e3d6000fd5b5050505060003373ffffffffffffffffffffffffffffffffffffffff16476040516105b290610b9d565b60006040518083038185875af1925050503d80600081146105ef576040519150601f19603f3d011682016040523d82523d6000602084013e6105f4565b606091505b5050905080610638576040517f08c379a000000000000000000000000000000000000000000000000000000000815260040161062f90610bfe565b60405180910390fd5b7fe8e327a81bf019d3af2e7baa0c6f3dcb5231127e9a5f3448d9819d7faef21f9d3386348560405161066d9493929190610c1e565b60405180910390a15050505050565b600062ffffff82169050919050565b6106948161067c565b82525050565b60006020820190506106af600083018461068b565b92915050565b600073ffffffffffffffffffffffffffffffffffffffff82169050919050565b60006106e0826106b5565b9050919050565b6106f0816106d5565b82525050565b600060208201905061070b60008301846106e7565b92915050565b600080fd5b6000819050919050565b61072981610716565b811461073457600080fd5b50565b60008135905061074681610720565b92915050565b60006020828403121561076257610761610711565b5b600061077084828501610737565b91505092915050565b61078281610716565b82525050565b600060208201905061079d6000830184610779565b92915050565b6000819050919050565b60006107c86107c36107be846106b5565b6107a3565b6106b5565b9050919050565b60006107da826107ad565b9050919050565b60006107ec826107cf565b9050919050565b6107fc816107e1565b82525050565b600060208201905061081760008301846107f3565b92915050565b6000610828826107cf565b9050919050565b6108388161081d565b82525050565b6000602082019050610853600083018461082f565b92915050565b600080604083850312156108705761086f610711565b5b600061087e85828601610737565b925050602061088f85828601610737565b9150509250929050565b6108a2816106b5565b82525050565b600060a0820190506108bd60008301886106e7565b6108ca60208301876106e7565b6108d7604083018661068b565b6108e46060830185610779565b6108f16080830184610899565b9695505050505050565b60008151905061090a81610720565b92915050565b60006020828403121561092657610925610711565b5b6000610934848285016108fb565b91505092915050565b600082825260208201905092915050565b7f4572726f722c2044414920616d6f756e74206f7574206d75737420626520677260008201527f6561746572207468616e20300000000000000000000000000000000000000000602082015250565b60006109aa602c8361093d565b91506109b58261094e565b604082019050919050565b600060208201905081810360008301526109d98161099d565b9050919050565b7f4572726f722c2045544820616d6f756e74206d7573742062652067726561746560008201527f72207468616e2030000000000000000000000000000000000000000000000000602082015250565b6000610a3c60288361093d565b9150610a47826109e0565b604082019050919050565b60006020820190508181036000830152610a6b81610a2f565b9050919050565b610a7b816106d5565b82525050565b610a8a8161067c565b82525050565b610a9981610716565b82525050565b610aa8816106b5565b82525050565b61010082016000820151610ac56000850182610a72565b506020820151610ad86020850182610a72565b506040820151610aeb6040850182610a81565b506060820151610afe6060850182610a72565b506080820151610b116080850182610a90565b5060a0820151610b2460a0850182610a90565b5060c0820151610b3760c0850182610a90565b5060e0820151610b4a60e0850182610a9f565b50505050565b600061010082019050610b666000830184610aae565b92915050565b600081905092915050565b50565b6000610b87600083610b6c565b9150610b9282610b77565b600082019050919050565b6000610ba882610b7a565b9150819050919050565b7f5472616e73666572206661696c65640000000000000000000000000000000000600082015250565b6000610be8600f8361093d565b9150610bf382610bb2565b602082019050919050565b60006020820190508181036000830152610c1781610bdb565b9050919050565b6000608082019050610c3360008301876106e7565b610c406020830186610779565b610c4d6040830185610779565b610c5a6060830184610779565b9594505050505056fea26469706673582212206e1990f02e6579cc1ab7a2c116a06cf330b7da5b06b45d63895e35d3c3dfca2964736f6c634300080a0033",
  "immutableReferences": {},
  "source": "// SPDX-License-Identifier: MIT\n\n// This contract is not used by my application. It is only used to seed ganache accounts with Dai for testing purposes. \npragma solidity ^0.8.1;\npragma abicoder v2;\n\nimport '@uniswap/v3-periphery/contracts/interfaces/ISwapRouter.sol';\nimport '@uniswap/v3-periphery/contracts/interfaces/IQuoter.sol';\n\ninterface IUSwapRouter is ISwapRouter {\n    function refundETH() external payable;\n}\n\ncontract Swap {\n    uint24 public constant poolFee = 3000;\n    address public dai;\n    address public weth;\n    IUSwapRouter public constant swapRouter = IUSwapRouter(0xE592427A0AEce92De3Edee1F18E0157C05861564);\n    IQuoter public constant quoter = IQuoter(0xb27308f9F90D607463bb33eA1BeBb41C27CE5AB6);\n    event Converted (\n        address user,\n        uint256 amountOut,\n        uint256 amountInMaximum,\n        uint256 amountIn\n    );\n    constructor(address _dai, address _weth) {\n        dai = _dai;\n        weth = _weth;\n    }\n\n    // Used to accept swapRouter refund \n    receive() external payable {\n    }\n    // This function is a read only function but can't be marked as view because it relies on non-view functiions to compute the result.\n    function getEthInputAmount(uint256 _amountOut) external payable returns(uint256 _amountIn) {\n        address _tokenIn = weth;\n        address _tokenOut = dai;\n        uint24 _fee = 500;\n        uint160 sqrtPriceLimitX96 = 0;\n        _amountIn = quoter.quoteExactOutputSingle(\n            _tokenIn,\n            _tokenOut,\n            _fee,\n            _amountOut,\n            sqrtPriceLimitX96\n        );\n    }\n\n    function convertEthToExactDai(uint256 _daiAmountOut, uint256 _deadline) external payable {\n        require(_daiAmountOut > 0, \"Error, DAI amount out must be greater than 0\");\n        require(msg.value > 0, \"Error, ETH amount must be greater than 0\");\n        ISwapRouter.ExactOutputSingleParams memory params =\n            ISwapRouter.ExactOutputSingleParams({\n                tokenIn: weth,\n                tokenOut: dai,\n                fee: poolFee,\n                recipient: msg.sender,\n                deadline: _deadline,\n                amountOut: _daiAmountOut,\n                amountInMaximum: msg.value,\n                sqrtPriceLimitX96: 0\n            });\n\n        uint256 _amountIn = swapRouter.exactOutputSingle{value: msg.value}(params);\n        swapRouter.refundETH();\n        // Send the refunded ETH back to sender\n        (bool success, ) = msg.sender.call{value: address(this).balance }('');\n        require(success, \"Transfer failed\");\n        emit Converted (msg.sender, _daiAmountOut, msg.value, _amountIn);\n    }\n}\n",
  "sourcePath": "/Users/ethancemer/Documents/make-it-happen/src/contracts/Swap.sol",
  "compiler": {
    "name": "solc",
    "version": "0.8.10+commit.fc410830.Emscripten.clang"
  },
  "schemaVersion": "3.4.3",
  "updatedAt": "2021-12-08T18:13:57.172Z",
  "networkType": "ethereum",
  "devdoc": {
    "kind": "dev",
    "methods": {},
    "version": 1
  },
  "userdoc": {
    "kind": "user",
    "methods": {},
    "version": 1
  }
}